{
  "contractName": "ColPay",
  "abi": [
    {
      "inputs": [
        {
          "internalType": "contract CPToken",
          "name": "_cpToken",
          "type": "address"
        }
      ],
      "stateMutability": "nonpayable",
      "type": "constructor"
    },
    {
      "anonymous": false,
      "inputs": [
        {
          "indexed": false,
          "internalType": "uint256",
          "name": "id",
          "type": "uint256"
        },
        {
          "indexed": false,
          "internalType": "string",
          "name": "name",
          "type": "string"
        },
        {
          "indexed": false,
          "internalType": "uint256",
          "name": "totalAmount",
          "type": "uint256"
        },
        {
          "indexed": false,
          "internalType": "uint256",
          "name": "amountPaid",
          "type": "uint256"
        },
        {
          "indexed": false,
          "internalType": "address",
          "name": "buyer",
          "type": "address"
        },
        {
          "indexed": false,
          "internalType": "address",
          "name": "seller",
          "type": "address"
        },
        {
          "indexed": false,
          "internalType": "uint256",
          "name": "startDate",
          "type": "uint256"
        },
        {
          "indexed": false,
          "internalType": "uint256",
          "name": "expiryDate",
          "type": "uint256"
        },
        {
          "indexed": false,
          "internalType": "uint256",
          "name": "daysToOpen",
          "type": "uint256"
        },
        {
          "indexed": false,
          "internalType": "uint256",
          "name": "speed",
          "type": "uint256"
        },
        {
          "indexed": false,
          "internalType": "string",
          "name": "contractStatus",
          "type": "string"
        },
        {
          "indexed": false,
          "internalType": "bool",
          "name": "createdBySeller",
          "type": "bool"
        }
      ],
      "name": "PaymentContractCreated",
      "type": "event"
    },
    {
      "anonymous": false,
      "inputs": [
        {
          "indexed": false,
          "internalType": "uint256",
          "name": "id",
          "type": "uint256"
        },
        {
          "indexed": false,
          "internalType": "address",
          "name": "statusUpdatedBy",
          "type": "address"
        },
        {
          "indexed": false,
          "internalType": "string",
          "name": "contractStatus",
          "type": "string"
        }
      ],
      "name": "PaymentContractStatusUpdate",
      "type": "event"
    },
    {
      "anonymous": false,
      "inputs": [
        {
          "indexed": false,
          "internalType": "uint256",
          "name": "date",
          "type": "uint256"
        },
        {
          "indexed": false,
          "internalType": "uint256",
          "name": "contractID",
          "type": "uint256"
        },
        {
          "indexed": false,
          "internalType": "uint256",
          "name": "value",
          "type": "uint256"
        },
        {
          "indexed": false,
          "internalType": "bool",
          "name": "successful",
          "type": "bool"
        }
      ],
      "name": "TransactionMade",
      "type": "event"
    },
    {
      "inputs": [],
      "name": "contractCount",
      "outputs": [
        {
          "internalType": "uint256",
          "name": "",
          "type": "uint256"
        }
      ],
      "stateMutability": "view",
      "type": "function",
      "constant": true
    },
    {
      "inputs": [],
      "name": "cpToken",
      "outputs": [
        {
          "internalType": "contract CPToken",
          "name": "",
          "type": "address"
        }
      ],
      "stateMutability": "view",
      "type": "function",
      "constant": true
    },
    {
      "inputs": [
        {
          "internalType": "address",
          "name": "",
          "type": "address"
        }
      ],
      "name": "incurredDebt",
      "outputs": [
        {
          "internalType": "uint256",
          "name": "",
          "type": "uint256"
        }
      ],
      "stateMutability": "view",
      "type": "function",
      "constant": true
    },
    {
      "inputs": [
        {
          "internalType": "address",
          "name": "",
          "type": "address"
        }
      ],
      "name": "isBlocked",
      "outputs": [
        {
          "internalType": "bool",
          "name": "",
          "type": "bool"
        }
      ],
      "stateMutability": "view",
      "type": "function",
      "constant": true
    },
    {
      "inputs": [],
      "name": "name",
      "outputs": [
        {
          "internalType": "string",
          "name": "",
          "type": "string"
        }
      ],
      "stateMutability": "view",
      "type": "function",
      "constant": true
    },
    {
      "inputs": [],
      "name": "owner",
      "outputs": [
        {
          "internalType": "address",
          "name": "",
          "type": "address"
        }
      ],
      "stateMutability": "view",
      "type": "function",
      "constant": true
    },
    {
      "inputs": [
        {
          "internalType": "uint256",
          "name": "",
          "type": "uint256"
        }
      ],
      "name": "paymentContracts",
      "outputs": [
        {
          "internalType": "uint256",
          "name": "id",
          "type": "uint256"
        },
        {
          "internalType": "string",
          "name": "name",
          "type": "string"
        },
        {
          "internalType": "uint256",
          "name": "totalAmount",
          "type": "uint256"
        },
        {
          "internalType": "uint256",
          "name": "amountPaid",
          "type": "uint256"
        },
        {
          "internalType": "address",
          "name": "buyer",
          "type": "address"
        },
        {
          "internalType": "address",
          "name": "seller",
          "type": "address"
        },
        {
          "internalType": "uint256",
          "name": "startDate",
          "type": "uint256"
        },
        {
          "internalType": "uint256",
          "name": "expiryDate",
          "type": "uint256"
        },
        {
          "internalType": "uint256",
          "name": "daysToOpen",
          "type": "uint256"
        },
        {
          "internalType": "uint256",
          "name": "speed",
          "type": "uint256"
        },
        {
          "internalType": "string",
          "name": "contractStatus",
          "type": "string"
        },
        {
          "internalType": "bool",
          "name": "createdBySeller",
          "type": "bool"
        }
      ],
      "stateMutability": "view",
      "type": "function",
      "constant": true
    },
    {
      "inputs": [
        {
          "internalType": "address",
          "name": "",
          "type": "address"
        },
        {
          "internalType": "uint256",
          "name": "",
          "type": "uint256"
        }
      ],
      "name": "paymentContractsHeldPerAddress",
      "outputs": [
        {
          "internalType": "uint256",
          "name": "",
          "type": "uint256"
        }
      ],
      "stateMutability": "view",
      "type": "function",
      "constant": true
    },
    {
      "inputs": [
        {
          "internalType": "address",
          "name": "",
          "type": "address"
        }
      ],
      "name": "potentialDebt",
      "outputs": [
        {
          "internalType": "uint256",
          "name": "",
          "type": "uint256"
        }
      ],
      "stateMutability": "view",
      "type": "function",
      "constant": true
    },
    {
      "inputs": [
        {
          "internalType": "uint256",
          "name": "",
          "type": "uint256"
        },
        {
          "internalType": "uint256",
          "name": "",
          "type": "uint256"
        }
      ],
      "name": "transactionLists",
      "outputs": [
        {
          "internalType": "uint256",
          "name": "date",
          "type": "uint256"
        },
        {
          "internalType": "uint256",
          "name": "value",
          "type": "uint256"
        },
        {
          "internalType": "bool",
          "name": "successful",
          "type": "bool"
        }
      ],
      "stateMutability": "view",
      "type": "function",
      "constant": true
    },
    {
      "inputs": [
        {
          "internalType": "uint256",
          "name": "_value",
          "type": "uint256"
        },
        {
          "internalType": "address",
          "name": "_receipient",
          "type": "address"
        }
      ],
      "name": "issueTokens",
      "outputs": [],
      "stateMutability": "nonpayable",
      "type": "function"
    },
    {
      "inputs": [
        {
          "internalType": "string",
          "name": "_name",
          "type": "string"
        },
        {
          "internalType": "uint256",
          "name": "_totalAmount",
          "type": "uint256"
        },
        {
          "internalType": "address",
          "name": "_recipient",
          "type": "address"
        },
        {
          "internalType": "uint256",
          "name": "_startDate",
          "type": "uint256"
        },
        {
          "internalType": "uint256",
          "name": "_expiryDate",
          "type": "uint256"
        },
        {
          "internalType": "uint256",
          "name": "_daysToOpen",
          "type": "uint256"
        },
        {
          "internalType": "uint256",
          "name": "_speed",
          "type": "uint256"
        },
        {
          "internalType": "bool",
          "name": "_createdBySeller",
          "type": "bool"
        }
      ],
      "name": "createPaymentContract",
      "outputs": [],
      "stateMutability": "nonpayable",
      "type": "function"
    },
    {
      "inputs": [
        {
          "internalType": "uint256",
          "name": "_contractID",
          "type": "uint256"
        }
      ],
      "name": "acceptPaymentContract",
      "outputs": [],
      "stateMutability": "nonpayable",
      "type": "function"
    },
    {
      "inputs": [
        {
          "internalType": "uint256",
          "name": "_contractID",
          "type": "uint256"
        }
      ],
      "name": "rejectPaymentContract",
      "outputs": [],
      "stateMutability": "nonpayable",
      "type": "function"
    },
    {
      "inputs": [
        {
          "internalType": "uint256",
          "name": "_contractID",
          "type": "uint256"
        }
      ],
      "name": "expirePaymentContract",
      "outputs": [],
      "stateMutability": "nonpayable",
      "type": "function"
    },
    {
      "inputs": [],
      "name": "checkForRequiredPayments",
      "outputs": [],
      "stateMutability": "nonpayable",
      "type": "function"
    },
    {
      "inputs": [
        {
          "internalType": "uint256",
          "name": "_contractID",
          "type": "uint256"
        },
        {
          "internalType": "uint256",
          "name": "_value",
          "type": "uint256"
        }
      ],
      "name": "makeTransaction",
      "outputs": [],
      "stateMutability": "nonpayable",
      "type": "function"
    }
  ],
  "bytecode": "0x60806040526040518060a001604052806040518060400160405280600c81526020017f4e4f545f5245564945574544000000000000000000000000000000000000000081525081526020016040518060400160405280600881526020017f52454a454354454400000000000000000000000000000000000000000000000081525081526020016040518060400160405280600881526020017f414343455054454400000000000000000000000000000000000000000000000081525081526020016040518060400160405280600981526020017f46554c46494c4c4544000000000000000000000000000000000000000000000081525081526020016040518060400160405280600f81526020017f4d495353494e475f5041594d454e540000000000000000000000000000000000815250815250600a9060056200014692919062000346565b503480156200015457600080fd5b5060405162005eca38038062005eca83398181016040528101906200017a91906200057a565b6040518060400160405280601d81526020017f5061796d656e7420467261676d656e746174696f6e205365727669636500000081525060009080519060200190620001c7929190620003ad565b5080600360006101000a81548173ffffffffffffffffffffffffffffffffffffffff021916908373ffffffffffffffffffffffffffffffffffffffff16021790555033600160006101000a81548173ffffffffffffffffffffffffffffffffffffffff021916908373ffffffffffffffffffffffffffffffffffffffff160217905550600060028190555060005b600a805490508110156200033e57600a81815481106200029e577f4e487b7100000000000000000000000000000000000000000000000000000000600052603260045260246000fd5b90600052602060002001600b600a8381548110620002e5577f4e487b7100000000000000000000000000000000000000000000000000000000600052603260045260246000fd5b90600052602060002001604051620002fe919062000631565b90815260200160405180910390209080546200031a90620006bc565b620003279291906200043e565b5080806200033590620006f2565b91505062000255565b5050620007b8565b8280548282559060005260206000209081019282156200039a579160200282015b828111156200039957825182908051906020019062000388929190620003ad565b509160200191906001019062000367565b5b509050620003a99190620004d6565b5090565b828054620003bb90620006bc565b90600052602060002090601f016020900481019282620003df57600085556200042b565b82601f10620003fa57805160ff19168380011785556200042b565b828001600101855582156200042b579182015b828111156200042a5782518255916020019190600101906200040d565b5b5090506200043a9190620004fe565b5090565b8280546200044c90620006bc565b90600052602060002090601f016020900481019282620004705760008555620004c3565b82601f10620004835780548555620004c3565b82800160010185558215620004c357600052602060002091601f016020900482015b82811115620004c2578254825591600101919060010190620004a5565b5b509050620004d29190620004fe565b5090565b5b80821115620004fa5760008181620004f091906200051d565b50600101620004d7565b5090565b5b8082111562000519576000816000905550600101620004ff565b5090565b5080546200052b90620006bc565b6000825580601f106200053f575062000560565b601f0160209004906000526020600020908101906200055f9190620004fe565b5b50565b60008151905062000574816200079e565b92915050565b6000602082840312156200058d57600080fd5b60006200059d8482850162000563565b91505092915050565b60008154620005b581620006bc565b620005c181866200065f565b94506001821660008114620005df5760018114620005f15762000628565b60ff1983168652818601935062000628565b620005fc856200064a565b60005b838110156200062057815481890152600182019150602081019050620005ff565b838801955050505b50505092915050565b60006200063f8284620005a6565b915081905092915050565b60008190508160005260206000209050919050565b600081905092915050565b6000620006778262000692565b9050919050565b60006200068b826200066a565b9050919050565b600073ffffffffffffffffffffffffffffffffffffffff82169050919050565b6000819050919050565b60006002820490506001821680620006d557607f821691505b60208210811415620006ec57620006eb6200076f565b5b50919050565b6000620006ff82620006b2565b91507fffffffffffffffffffffffffffffffffffffffffffffffffffffffffffffffff82141562000735576200073462000740565b5b600182019050919050565b7f4e487b7100000000000000000000000000000000000000000000000000000000600052601160045260246000fd5b7f4e487b7100000000000000000000000000000000000000000000000000000000600052602260045260246000fd5b620007a9816200067e565b8114620007b557600080fd5b50565b61570280620007c86000396000f3fe608060405234801561001057600080fd5b506004361061010b5760003560e01c80637ad5be88116100a25780639baca1ce116100715780639baca1ce146102af578063aaf9bfae146102e1578063ab696d76146102eb578063d0f0fc781461031b578063fbac3951146103375761010b565b80637ad5be881461023b5780638736381a146102575780638da5cb5b14610275578063939626ea146102935761010b565b80632cd73dab116100de5780632cd73dab146101985780633b9054ba146101b457806342ff1f1b146101e457806369f00a36146102005761010b565b806306fdde0314610110578063125153f61461012e5780631b4a5cc81461015e5780632c999e551461017c575b600080fd5b610118610367565b604051610125919061432c565b60405180910390f35b61014860048036038101906101439190613a54565b6103f5565b604051610155919061466e565b60405180910390f35b610166610426565b6040516101739190614311565b60405180910390f35b61019660048036038101906101919190613b83565b61044c565b005b6101b260048036038101906101ad9190613b83565b610929565b005b6101ce60048036038101906101c99190613a2b565b610fec565b6040516101db919061466e565b60405180910390f35b6101fe60048036038101906101f99190613b83565b611004565b005b61021a60048036038101906102159190613b83565b611316565b6040516102329c9b9a9998979695949392919061478f565b60405180910390f35b61025560048036038101906102509190613bd5565b6114d3565b005b61025f61188d565b60405161026c919061466e565b60405180910390f35b61027d611893565b60405161028a91906142b2565b60405180910390f35b6102ad60048036038101906102a89190613ab9565b6118b9565b005b6102c960048036038101906102c49190613c11565b611f15565b6040516102d893929190614857565b60405180910390f35b6102e9611f69565b005b61030560048036038101906103009190613a2b565b6123a0565b604051610312919061466e565b60405180910390f35b61033560048036038101906103309190613c11565b6123b8565b005b610351600480360381019061034c9190613a2b565b6132f5565b60405161035e91906142f6565b60405180910390f35b6000805461037490614b5a565b80601f01602080910402602001604051908101604052809291908181526020018280546103a090614b5a565b80156103ed5780601f106103c2576101008083540402835291602001916103ed565b820191906000526020600020905b8154815290600101906020018083116103d057829003601f168201915b505050505081565b6009602052816000526040600020818154811061041157600080fd5b90600052602060002001600091509150505481565b600360009054906101000a900473ffffffffffffffffffffffffffffffffffffffff1681565b60008111801561045e57506002548111155b61049d576040517f08c379a00000000000000000000000000000000000000000000000000000000081526004016104949061456e565b60405180910390fd5b60006004600083815260200190815260200160002060405180610180016040529081600082015481526020016001820180546104d890614b5a565b80601f016020809104026020016040519081016040528092919081815260200182805461050490614b5a565b80156105515780601f1061052657610100808354040283529160200191610551565b820191906000526020600020905b81548152906001019060200180831161053457829003601f168201915b5050505050815260200160028201548152602001600382015481526020016004820160009054906101000a900473ffffffffffffffffffffffffffffffffffffffff1673ffffffffffffffffffffffffffffffffffffffff1673ffffffffffffffffffffffffffffffffffffffff1681526020016005820160009054906101000a900473ffffffffffffffffffffffffffffffffffffffff1673ffffffffffffffffffffffffffffffffffffffff1673ffffffffffffffffffffffffffffffffffffffff16815260200160068201548152602001600782015481526020016008820154815260200160098201548152602001600a8201805461065290614b5a565b80601f016020809104026020016040519081016040528092919081815260200182805461067e90614b5a565b80156106cb5780601f106106a0576101008083540402835291602001916106cb565b820191906000526020600020905b8154815290600101906020018083116106ae57829003601f168201915b50505050508152602001600b820160009054906101000a900460ff1615151515815250509050600b6040516106ff90614273565b908152602001604051809103902060405161071a919061421b565b6040518091039020816101400151805190602001201461076f576040517f08c379a00000000000000000000000000000000000000000000000000000000081526004016107669061460e565b60405180910390fd5b806080015173ffffffffffffffffffffffffffffffffffffffff163373ffffffffffffffffffffffffffffffffffffffff1614806107dc57508060a0015173ffffffffffffffffffffffffffffffffffffffff163373ffffffffffffffffffffffffffffffffffffffff16145b50806040015160076000836080015173ffffffffffffffffffffffffffffffffffffffff1673ffffffffffffffffffffffffffffffffffffffff168152602001908152602001600020546108309190614a66565b60076000836080015173ffffffffffffffffffffffffffffffffffffffff1673ffffffffffffffffffffffffffffffffffffffff1681526020019081526020016000208190555061092582600b6040516108899061425e565b908152602001604051809103902080546108a290614b5a565b80601f01602080910402602001604051908101604052809291908181526020018280546108ce90614b5a565b801561091b5780601f106108f05761010080835404028352916020019161091b565b820191906000526020600020905b8154815290600101906020018083116108fe57829003601f168201915b5050505050613315565b5050565b60008111801561093b57506002548111155b61097a576040517f08c379a00000000000000000000000000000000000000000000000000000000081526004016109719061456e565b60405180910390fd5b60006004600083815260200190815260200160002060405180610180016040529081600082015481526020016001820180546109b590614b5a565b80601f01602080910402602001604051908101604052809291908181526020018280546109e190614b5a565b8015610a2e5780601f10610a0357610100808354040283529160200191610a2e565b820191906000526020600020905b815481529060010190602001808311610a1157829003601f168201915b5050505050815260200160028201548152602001600382015481526020016004820160009054906101000a900473ffffffffffffffffffffffffffffffffffffffff1673ffffffffffffffffffffffffffffffffffffffff1673ffffffffffffffffffffffffffffffffffffffff1681526020016005820160009054906101000a900473ffffffffffffffffffffffffffffffffffffffff1673ffffffffffffffffffffffffffffffffffffffff1673ffffffffffffffffffffffffffffffffffffffff16815260200160068201548152602001600782015481526020016008820154815260200160098201548152602001600a82018054610b2f90614b5a565b80601f0160208091040260200160405190810160405280929190818152602001828054610b5b90614b5a565b8015610ba85780601f10610b7d57610100808354040283529160200191610ba8565b820191906000526020600020905b815481529060010190602001808311610b8b57829003601f168201915b50505050508152602001600b820160009054906101000a900460ff161515151581525050905080610160015115610c5057806080015173ffffffffffffffffffffffffffffffffffffffff163373ffffffffffffffffffffffffffffffffffffffff1614610c4b576040517f08c379a0000000000000000000000000000000000000000000000000000000008152600401610c42906143ce565b60405180910390fd5b610cc3565b8060a0015173ffffffffffffffffffffffffffffffffffffffff163373ffffffffffffffffffffffffffffffffffffffff1614610cc2576040517f08c379a0000000000000000000000000000000000000000000000000000000008152600401610cb99061434e565b60405180910390fd5b5b600360009054906101000a900473ffffffffffffffffffffffffffffffffffffffff1673ffffffffffffffffffffffffffffffffffffffff166370a0823182608001516040518263ffffffff1660e01b8152600401610d2291906142b2565b60206040518083038186803b158015610d3a57600080fd5b505afa158015610d4e573d6000803e3d6000fd5b505050506040513d601f19601f82011682018060405250810190610d729190613bac565b816040015160066000846080015173ffffffffffffffffffffffffffffffffffffffff1673ffffffffffffffffffffffffffffffffffffffff16815260200190815260200160002054610dc59190614985565b1115610e06576040517f08c379a0000000000000000000000000000000000000000000000000000000008152600401610dfd906144ce565b60405180910390fd5b806040015160076000836080015173ffffffffffffffffffffffffffffffffffffffff1673ffffffffffffffffffffffffffffffffffffffff16815260200190815260200160002054610e599190614a66565b60076000836080015173ffffffffffffffffffffffffffffffffffffffff1673ffffffffffffffffffffffffffffffffffffffff16815260200190815260200160002081905550806040015160066000836080015173ffffffffffffffffffffffffffffffffffffffff1673ffffffffffffffffffffffffffffffffffffffff16815260200190815260200160002054610ef39190614985565b60066000836080015173ffffffffffffffffffffffffffffffffffffffff1673ffffffffffffffffffffffffffffffffffffffff16815260200190815260200160002081905550610fe882600b604051610f4c90614249565b90815260200160405180910390208054610f6590614b5a565b80601f0160208091040260200160405190810160405280929190818152602001828054610f9190614b5a565b8015610fde5780601f10610fb357610100808354040283529160200191610fde565b820191906000526020600020905b815481529060010190602001808311610fc157829003601f168201915b5050505050613315565b5050565b60076020528060005260406000206000915090505481565b60008111801561101657506002548111155b611055576040517f08c379a000000000000000000000000000000000000000000000000000000000815260040161104c9061456e565b60405180910390fd5b600060046000838152602001908152602001600020604051806101800160405290816000820154815260200160018201805461109090614b5a565b80601f01602080910402602001604051908101604052809291908181526020018280546110bc90614b5a565b80156111095780601f106110de57610100808354040283529160200191611109565b820191906000526020600020905b8154815290600101906020018083116110ec57829003601f168201915b5050505050815260200160028201548152602001600382015481526020016004820160009054906101000a900473ffffffffffffffffffffffffffffffffffffffff1673ffffffffffffffffffffffffffffffffffffffff1673ffffffffffffffffffffffffffffffffffffffff1681526020016005820160009054906101000a900473ffffffffffffffffffffffffffffffffffffffff1673ffffffffffffffffffffffffffffffffffffffff1673ffffffffffffffffffffffffffffffffffffffff16815260200160068201548152602001600782015481526020016008820154815260200160098201548152602001600a8201805461120a90614b5a565b80601f016020809104026020016040519081016040528092919081815260200182805461123690614b5a565b80156112835780601f1061125857610100808354040283529160200191611283565b820191906000526020600020905b81548152906001019060200180831161126657829003601f168201915b50505050508152602001600b820160009054906101000a900460ff16151515158152505090508060e0015142116112ef576040517f08c379a00000000000000000000000000000000000000000000000000000000081526004016112e69061464e565b60405180910390fd5b6000816060015182604001516113059190614a66565b905061131183826123b8565b505050565b600460205280600052604060002060009150905080600001549080600101805461133f90614b5a565b80601f016020809104026020016040519081016040528092919081815260200182805461136b90614b5a565b80156113b85780601f1061138d576101008083540402835291602001916113b8565b820191906000526020600020905b81548152906001019060200180831161139b57829003601f168201915b5050505050908060020154908060030154908060040160009054906101000a900473ffffffffffffffffffffffffffffffffffffffff16908060050160009054906101000a900473ffffffffffffffffffffffffffffffffffffffff169080600601549080600701549080600801549080600901549080600a01805461143d90614b5a565b80601f016020809104026020016040519081016040528092919081815260200182805461146990614b5a565b80156114b65780601f1061148b576101008083540402835291602001916114b6565b820191906000526020600020905b81548152906001019060200180831161149957829003601f168201915b50505050509080600b0160009054906101000a900460ff1690508c565b600160009054906101000a900473ffffffffffffffffffffffffffffffffffffffff1673ffffffffffffffffffffffffffffffffffffffff163373ffffffffffffffffffffffffffffffffffffffff1614611563576040517f08c379a000000000000000000000000000000000000000000000000000000000815260040161155a9061458e565b60405180910390fd5b600082116115a6576040517f08c379a000000000000000000000000000000000000000000000000000000000815260040161159d9061452e565b60405180910390fd5b6064600360009054906101000a900473ffffffffffffffffffffffffffffffffffffffff1673ffffffffffffffffffffffffffffffffffffffff166370a08231306040518263ffffffff1660e01b815260040161160391906142b2565b60206040518083038186803b15801561161b57600080fd5b505afa15801561162f573d6000803e3d6000fd5b505050506040513d601f19601f820116820180604052508101906116539190613bac565b61165d91906149db565b821061169e576040517f08c379a00000000000000000000000000000000000000000000000000000000081526004016116959061444e565b60405180910390fd5b6000600360009054906101000a900473ffffffffffffffffffffffffffffffffffffffff1673ffffffffffffffffffffffffffffffffffffffff166370a08231336040518263ffffffff1660e01b81526004016116fb91906142b2565b60206040518083038186803b15801561171357600080fd5b505afa158015611727573d6000803e3d6000fd5b505050506040513d601f19601f8201168201806040525081019061174b9190613bac565b14801561179a57506000600960003373ffffffffffffffffffffffffffffffffffffffff1673ffffffffffffffffffffffffffffffffffffffff16815260200190815260200160002080549050145b6117d9576040517f08c379a00000000000000000000000000000000000000000000000000000000081526004016117d0906145ce565b60405180910390fd5b600360009054906101000a900473ffffffffffffffffffffffffffffffffffffffff1673ffffffffffffffffffffffffffffffffffffffff1663a9059cbb82846040518363ffffffff1660e01b81526004016118369291906142cd565b602060405180830381600087803b15801561185057600080fd5b505af1158015611864573d6000803e3d6000fd5b505050506040513d601f19601f820116820180604052508101906118889190613a90565b505050565b60025481565b600160009054906101000a900473ffffffffffffffffffffffffffffffffffffffff1681565b8385116118fb576040517f08c379a00000000000000000000000000000000000000000000000000000000081526004016118f2906143ae565b60405180910390fd5b6000871161193e576040517f08c379a00000000000000000000000000000000000000000000000000000000081526004016119359061438e565b60405180910390fd5b6000885111611982576040517f08c379a00000000000000000000000000000000000000000000000000000000081526004016119799061448e565b60405180910390fd5b82600261198f878761380f565b61199991906149db565b106119d9576040517f08c379a00000000000000000000000000000000000000000000000000000000081526004016119d09061436e565b60405180910390fd5b6000821180156119e95750606482105b611a28576040517f08c379a0000000000000000000000000000000000000000000000000000000008152600401611a1f906143ee565b60405180910390fd5b834210611a6a576040517f08c379a0000000000000000000000000000000000000000000000000000000008152600401611a619061446e565b60405180910390fd5b3373ffffffffffffffffffffffffffffffffffffffff168673ffffffffffffffffffffffffffffffffffffffff161415611ad9576040517f08c379a0000000000000000000000000000000000000000000000000000000008152600401611ad0906144ee565b60405180910390fd5b6000808215611aed57339050879150611af4565b8790503391505b60001515600860008473ffffffffffffffffffffffffffffffffffffffff1673ffffffffffffffffffffffffffffffffffffffff16815260200190815260200160002060009054906101000a900460ff16151514611b87576040517f08c379a0000000000000000000000000000000000000000000000000000000008152600401611b7e9061440e565b60405180910390fd5b88600760008473ffffffffffffffffffffffffffffffffffffffff1673ffffffffffffffffffffffffffffffffffffffff16815260200190815260200160002054611bd29190614985565b600760008473ffffffffffffffffffffffffffffffffffffffff1673ffffffffffffffffffffffffffffffffffffffff1681526020019081526020016000208190555060405180610180016040528060025481526020018b81526020018a8152602001600081526020018373ffffffffffffffffffffffffffffffffffffffff1681526020018273ffffffffffffffffffffffffffffffffffffffff168152602001888152602001878152602001868152602001858152602001600b604051611c9a90614273565b90815260200160405180910390208054611cb390614b5a565b80601f0160208091040260200160405190810160405280929190818152602001828054611cdf90614b5a565b8015611d2c5780601f10611d0157610100808354040283529160200191611d2c565b820191906000526020600020905b815481529060010190602001808311611d0f57829003601f168201915b50505050508152602001841515815250600460006002548152602001908152602001600020600082015181600001556020820151816001019080519060200190611d77929190613894565b50604082015181600201556060820151816003015560808201518160040160006101000a81548173ffffffffffffffffffffffffffffffffffffffff021916908373ffffffffffffffffffffffffffffffffffffffff16021790555060a08201518160050160006101000a81548173ffffffffffffffffffffffffffffffffffffffff021916908373ffffffffffffffffffffffffffffffffffffffff16021790555060c0820151816006015560e082015181600701556101008201518160080155610120820151816009015561014082015181600a019080519060200190611e61929190613894565b5061016082015181600b0160006101000a81548160ff0219169083151502179055509050507faf8d33bce3523f39faa27ad0dd8b9297951a7c816cd3d459ca294dc0aad3b2786002548b8b600086868d8d8d8d600b604051611ec290614273565b90815260200160405180910390208e604051611ee99c9b9a999897969594939291906146c7565b60405180910390a160026000815480929190611f0490614bbd565b919050555050505050505050505050565b60056020528160005260406000208181548110611f3157600080fd5b9060005260206000209060030201600091509150508060000154908060010154908060020160009054906101000a900460ff16905083565b600160009054906101000a900473ffffffffffffffffffffffffffffffffffffffff1673ffffffffffffffffffffffffffffffffffffffff163373ffffffffffffffffffffffffffffffffffffffff1614611ff9576040517f08c379a0000000000000000000000000000000000000000000000000000000008152600401611ff0906145ae565b60405180910390fd5b60005b60025481101561239d57600060046000838152602001908152602001600020604051806101800160405290816000820154815260200160018201805461204190614b5a565b80601f016020809104026020016040519081016040528092919081815260200182805461206d90614b5a565b80156120ba5780601f1061208f576101008083540402835291602001916120ba565b820191906000526020600020905b81548152906001019060200180831161209d57829003601f168201915b5050505050815260200160028201548152602001600382015481526020016004820160009054906101000a900473ffffffffffffffffffffffffffffffffffffffff1673ffffffffffffffffffffffffffffffffffffffff1673ffffffffffffffffffffffffffffffffffffffff1681526020016005820160009054906101000a900473ffffffffffffffffffffffffffffffffffffffff1673ffffffffffffffffffffffffffffffffffffffff1673ffffffffffffffffffffffffffffffffffffffff16815260200160068201548152602001600782015481526020016008820154815260200160098201548152602001600a820180546121bb90614b5a565b80601f01602080910402602001604051908101604052809291908181526020018280546121e790614b5a565b80156122345780601f1061220957610100808354040283529160200191612234565b820191906000526020600020905b81548152906001019060200180831161221757829003601f168201915b50505050508152602001600b820160009054906101000a900460ff16151515158152505090508060e00151421180156122a85750600b60405161227690614249565b9081526020016040518091039020604051612291919061421b565b604051809103902081610140015180519060200120145b156122bb576122b682611004565b612389565b600b6040516122c99061429d565b90815260200160405180910390206040516122e4919061421b565b6040518091039020816101400151805190602001201415612388576123878260056000858152602001908152602001600020600160056000878152602001908152602001600020805490506123399190614a66565b81548110612370577f4e487b7100000000000000000000000000000000000000000000000000000000600052603260045260246000fd5b9060005260206000209060030201600101546123b8565b5b5b50808061239590614bbd565b915050611ffc565b50565b60066020528060005260406000206000915090505481565b6000821180156123ca57506002548211155b612409576040517f08c379a00000000000000000000000000000000000000000000000000000000081526004016124009061456e565b60405180910390fd5b6000811161244c576040517f08c379a00000000000000000000000000000000000000000000000000000000081526004016124439061438e565b60405180910390fd5b600060046000848152602001908152602001600020604051806101800160405290816000820154815260200160018201805461248790614b5a565b80601f01602080910402602001604051908101604052809291908181526020018280546124b390614b5a565b80156125005780601f106124d557610100808354040283529160200191612500565b820191906000526020600020905b8154815290600101906020018083116124e357829003601f168201915b5050505050815260200160028201548152602001600382015481526020016004820160009054906101000a900473ffffffffffffffffffffffffffffffffffffffff1673ffffffffffffffffffffffffffffffffffffffff1673ffffffffffffffffffffffffffffffffffffffff1681526020016005820160009054906101000a900473ffffffffffffffffffffffffffffffffffffffff1673ffffffffffffffffffffffffffffffffffffffff1673ffffffffffffffffffffffffffffffffffffffff16815260200160068201548152602001600782015481526020016008820154815260200160098201548152602001600a8201805461260190614b5a565b80601f016020809104026020016040519081016040528092919081815260200182805461262d90614b5a565b801561267a5780601f1061264f5761010080835404028352916020019161267a565b820191906000526020600020905b81548152906001019060200180831161265d57829003601f168201915b50505050508152602001600b820160009054906101000a900460ff161515151581525050905060008282606001516126b29190614985565b905081604001518111156126fb576040517f08c379a00000000000000000000000000000000000000000000000000000000081526004016126f29061462e565b60405180910390fd5b600b60405161270990614249565b9081526020016040518091039020604051612724919061421b565b60405180910390208261014001518051906020012014806127805750600b60405161274e9061429d565b9081526020016040518091039020604051612769919061421b565b604051809103902082610140015180519060200120145b6127bf576040517f08c379a00000000000000000000000000000000000000000000000000000000081526004016127b6906144ae565b60405180910390fd5b3373ffffffffffffffffffffffffffffffffffffffff168260a0015173ffffffffffffffffffffffffffffffffffffffff16148061282c57503373ffffffffffffffffffffffffffffffffffffffff16826080015173ffffffffffffffffffffffffffffffffffffffff16145b8061288457503373ffffffffffffffffffffffffffffffffffffffff16600160009054906101000a900473ffffffffffffffffffffffffffffffffffffffff1673ffffffffffffffffffffffffffffffffffffffff16145b6128c3576040517f08c379a00000000000000000000000000000000000000000000000000000000081526004016128ba9061454e565b60405180910390fd5b6128d68260c00151836101000151613840565b4211612917576040517f08c379a000000000000000000000000000000000000000000000000000000000815260040161290e906145ee565b60405180910390fd5b600061292b8360c001518460e00151613871565b9050600061293d8460c0015142613871565b905060008260648361294f9190614a0c565b61295991906149db565b905060006064866101200151836129709190614a0c565b61297a91906149db565b9050600060648760400151836129909190614a0c565b61299a91906149db565b90508787606001516129ac9190614985565b8111156129ee576040517f08c379a00000000000000000000000000000000000000000000000000000000081526004016129e59061442e565b60405180910390fd5b6129f661391a565b88600360009054906101000a900473ffffffffffffffffffffffffffffffffffffffff1673ffffffffffffffffffffffffffffffffffffffff166370a08231336040518263ffffffff1660e01b8152600401612a5291906142b2565b60206040518083038186803b158015612a6a57600080fd5b505afa158015612a7e573d6000803e3d6000fd5b505050506040513d601f19601f82011682018060405250810190612aa29190613bac565b1015612bd757600b604051612ab69061429d565b90815260200160405180910390208054612acf90614b5a565b80601f0160208091040260200160405190810160405280929190818152602001828054612afb90614b5a565b8015612b485780601f10612b1d57610100808354040283529160200191612b48565b820191906000526020600020905b815481529060010190602001808311612b2b57829003601f168201915b50505050508861014001819052506001600860008a6080015173ffffffffffffffffffffffffffffffffffffffff1673ffffffffffffffffffffffffffffffffffffffff16815260200190815260200160002060006101000a81548160ff02191690831515021790555060405180606001604052804281526020018a81526020016000151581525090506130ec565b60086000896080015173ffffffffffffffffffffffffffffffffffffffff1673ffffffffffffffffffffffffffffffffffffffff16815260200190815260200160002060009054906101000a900460ff1615612e05576000805b600960008b6080015173ffffffffffffffffffffffffffffffffffffffff1673ffffffffffffffffffffffffffffffffffffffff16815260200190815260200160002080549050811015612da057808c14158015612d1e5750600015156005600083815260200190815260200160002060016005600085815260200190815260200160002080549050612cc49190614a66565b81548110612cfb577f4e487b7100000000000000000000000000000000000000000000000000000000600052603260045260246000fd5b906000526020600020906003020160020160009054906101000a900460ff161515145b8015612d835750600b604051612d339061429d565b9081526020016040518091039020604051612d4e919061421b565b604051809103902060046000838152602001908152602001600020600a01604051612d79919061421b565b6040518091039020145b15612d8d57600191505b8080612d9890614bbd565b915050612c31565b5080612e03576000600860008b6080015173ffffffffffffffffffffffffffffffffffffffff1673ffffffffffffffffffffffffffffffffffffffff16815260200190815260200160002060006101000a81548160ff0219169083151502179055505b505b60405180606001604052804281526020018a81526020016001151581525090508760400151600660008a6080015173ffffffffffffffffffffffffffffffffffffffff1673ffffffffffffffffffffffffffffffffffffffff16815260200190815260200160002054612e789190614985565b600660008a6080015173ffffffffffffffffffffffffffffffffffffffff1673ffffffffffffffffffffffffffffffffffffffff16815260200190815260200160002081905550600360009054906101000a900473ffffffffffffffffffffffffffffffffffffffff1673ffffffffffffffffffffffffffffffffffffffff1663a9059cbb8960a001518b6040518363ffffffff1660e01b8152600401612f209291906142cd565b602060405180830381600087803b158015612f3a57600080fd5b505af1158015612f4e573d6000803e3d6000fd5b505050506040513d601f19601f82011682018060405250810190612f729190613a90565b5086886060018181525050876040015187141561303c576130378a600b604051612f9b90614288565b90815260200160405180910390208054612fb490614b5a565b80601f0160208091040260200160405190810160405280929190818152602001828054612fe090614b5a565b801561302d5780601f106130025761010080835404028352916020019161302d565b820191906000526020600020905b81548152906001019060200180831161301057829003601f168201915b5050505050613315565b6130eb565b6130ea8a600b60405161304e90614249565b9081526020016040518091039020805461306790614b5a565b80601f016020809104026020016040519081016040528092919081815260200182805461309390614b5a565b80156130e05780601f106130b5576101008083540402835291602001916130e0565b820191906000526020600020905b8154815290600101906020018083116130c357829003601f168201915b5050505050613315565b5b5b600560008b8152602001908152602001600020819080600181540180825580915050600190039060005260206000209060030201600090919091909150600082015181600001556020820151816001015560408201518160020160006101000a81548160ff021916908315150217905550505087600460008c8152602001908152602001600020600082015181600001556020820151816001019080519060200190613199929190613894565b50604082015181600201556060820151816003015560808201518160040160006101000a81548173ffffffffffffffffffffffffffffffffffffffff021916908373ffffffffffffffffffffffffffffffffffffffff16021790555060a08201518160050160006101000a81548173ffffffffffffffffffffffffffffffffffffffff021916908373ffffffffffffffffffffffffffffffffffffffff16021790555060c0820151816006015560e082015181600701556101008201518160080155610120820151816009015561014082015181600a019080519060200190613283929190613894565b5061016082015181600b0160006101000a81548160ff0219169083151502179055509050507f924340d7c102e2cee21286942e8c57f1aa00b6eed126d45563540731f3ee18b6428b8b84604001516040516132e1949392919061488e565b60405180910390a150505050505050505050565b60086020528060005260406000206000915054906101000a900460ff1681565b600060046000848152602001908152602001600020604051806101800160405290816000820154815260200160018201805461335090614b5a565b80601f016020809104026020016040519081016040528092919081815260200182805461337c90614b5a565b80156133c95780601f1061339e576101008083540402835291602001916133c9565b820191906000526020600020905b8154815290600101906020018083116133ac57829003601f168201915b5050505050815260200160028201548152602001600382015481526020016004820160009054906101000a900473ffffffffffffffffffffffffffffffffffffffff1673ffffffffffffffffffffffffffffffffffffffff1673ffffffffffffffffffffffffffffffffffffffff1681526020016005820160009054906101000a900473ffffffffffffffffffffffffffffffffffffffff1673ffffffffffffffffffffffffffffffffffffffff1673ffffffffffffffffffffffffffffffffffffffff16815260200160068201548152602001600782015481526020016008820154815260200160098201548152602001600a820180546134ca90614b5a565b80601f01602080910402602001604051908101604052809291908181526020018280546134f690614b5a565b80156135435780601f1061351857610100808354040283529160200191613543565b820191906000526020600020905b81548152906001019060200180831161352657829003601f168201915b50505050508152602001600b820160009054906101000a900460ff16151515158152505090506000600b8360405161357b9190614232565b9081526020016040518091039020805461359490614b5a565b9050116135d6576040517f08c379a00000000000000000000000000000000000000000000000000000000081526004016135cd9061450e565b60405180910390fd5b600b826040516135e69190614232565b908152602001604051809103902080546135ff90614b5a565b80601f016020809104026020016040519081016040528092919081815260200182805461362b90614b5a565b80156136785780601f1061364d57610100808354040283529160200191613678565b820191906000526020600020905b81548152906001019060200180831161365b57829003601f168201915b505050505081610140018190525080600460008581526020019081526020016000206000820151816000015560208201518160010190805190602001906136c0929190613894565b50604082015181600201556060820151816003015560808201518160040160006101000a81548173ffffffffffffffffffffffffffffffffffffffff021916908373ffffffffffffffffffffffffffffffffffffffff16021790555060a08201518160050160006101000a81548173ffffffffffffffffffffffffffffffffffffffff021916908373ffffffffffffffffffffffffffffffffffffffff16021790555060c0820151816006015560e082015181600701556101008201518160080155610120820151816009015561014082015181600a0190805190602001906137aa929190613894565b5061016082015181600b0160006101000a81548160ff0219169083151502179055509050507f11c14d31769b5bf1b6c53d008d48746e44cd58558ad11c2e075e2d1916aeb49b83338460405161380293929190614689565b60405180910390a1505050565b60008183111561381e57600080fd5b62015180838361382e9190614a66565b61383891906149db565b905092915050565b600062015180826138519190614a0c565b8361385c9190614985565b90508281101561386b57600080fd5b92915050565b60008183111561388057600080fd5b828261388c9190614a66565b905092915050565b8280546138a090614b5a565b90600052602060002090601f0160209004810192826138c25760008555613909565b82601f106138db57805160ff1916838001178555613909565b82800160010185558215613909579182015b828111156139085782518255916020019190600101906138ed565b5b509050613916919061393d565b5090565b604051806060016040528060008152602001600081526020016000151581525090565b5b8082111561395657600081600090555060010161393e565b5090565b600061396d613968846148f8565b6148d3565b90508281526020810184848401111561398557600080fd5b613990848285614b18565b509392505050565b6000813590506139a781615687565b92915050565b6000813590506139bc8161569e565b92915050565b6000815190506139d18161569e565b92915050565b600082601f8301126139e857600080fd5b81356139f884826020860161395a565b91505092915050565b600081359050613a10816156b5565b92915050565b600081519050613a25816156b5565b92915050565b600060208284031215613a3d57600080fd5b6000613a4b84828501613998565b91505092915050565b60008060408385031215613a6757600080fd5b6000613a7585828601613998565b9250506020613a8685828601613a01565b9150509250929050565b600060208284031215613aa257600080fd5b6000613ab0848285016139c2565b91505092915050565b600080600080600080600080610100898b031215613ad657600080fd5b600089013567ffffffffffffffff811115613af057600080fd5b613afc8b828c016139d7565b9850506020613b0d8b828c01613a01565b9750506040613b1e8b828c01613998565b9650506060613b2f8b828c01613a01565b9550506080613b408b828c01613a01565b94505060a0613b518b828c01613a01565b93505060c0613b628b828c01613a01565b92505060e0613b738b828c016139ad565b9150509295985092959890939650565b600060208284031215613b9557600080fd5b6000613ba384828501613a01565b91505092915050565b600060208284031215613bbe57600080fd5b6000613bcc84828501613a16565b91505092915050565b60008060408385031215613be857600080fd5b6000613bf685828601613a01565b9250506020613c0785828601613998565b9150509250929050565b60008060408385031215613c2457600080fd5b6000613c3285828601613a01565b9250506020613c4385828601613a01565b9150509250929050565b613c5681614a9a565b82525050565b613c6581614aac565b82525050565b60008154613c7881614b5a565b613c82818661495e565b94506001821660008114613c9d5760018114613cae57613ce1565b60ff19831686528186019350613ce1565b613cb785614929565b60005b83811015613cd957815481890152600182019150602081019050613cba565b838801955050505b50505092915050565b613cf381614ae2565b82525050565b613d0281614b06565b82525050565b6000613d1382614953565b613d1d8185614969565b9350613d2d818560208601614b27565b613d3681614cc2565b840191505092915050565b6000613d4c82614953565b613d56818561497a565b9350613d66818560208601614b27565b80840191505092915050565b60008154613d7f81614b5a565b613d898186614969565b94506001821660008114613da45760018114613db657613de9565b60ff1983168652602086019350613de9565b613dbf8561493e565b60005b83811015613de157815481890152600182019150602081019050613dc2565b808801955050505b50505092915050565b6000613dff604a83614969565b9150613e0a82614cd3565b606082019050919050565b6000613e22604483614969565b9150613e2d82614d48565b606082019050919050565b6000613e45602a83614969565b9150613e5082614dbd565b604082019050919050565b6000613e68603283614969565b9150613e7382614e0c565b604082019050919050565b6000613e8b604a83614969565b9150613e9682614e5b565b606082019050919050565b6000613eae603b83614969565b9150613eb982614ed0565b604082019050919050565b6000613ed1603983614969565b9150613edc82614f1f565b604082019050919050565b6000613ef4604383614969565b9150613eff82614f6e565b606082019050919050565b6000613f17603b83614969565b9150613f2282614fe3565b604082019050919050565b6000613f3a602e83614969565b9150613f4582615032565b604082019050919050565b6000613f5d60088361497a565b9150613f6882615081565b600882019050919050565b6000613f80602e83614969565b9150613f8b826150aa565b604082019050919050565b6000613fa3602a83614969565b9150613fae826150f9565b604082019050919050565b6000613fc6604183614969565b9150613fd182615148565b606082019050919050565b6000613fe9601e83614969565b9150613ff4826151bd565b602082019050919050565b600061400c60088361497a565b9150614017826151e6565b600882019050919050565b600061402f601c83614969565b915061403a8261520f565b602082019050919050565b6000614052602d83614969565b915061405d82615238565b604082019050919050565b6000614075600c8361497a565b915061408082615287565b600c82019050919050565b6000614098604083614969565b91506140a3826152b0565b604082019050919050565b60006140bb601d83614969565b91506140c6826152ff565b602082019050919050565b60006140de605083614969565b91506140e982615328565b606082019050919050565b6000614101606883614969565b915061410c8261539d565b608082019050919050565b6000614124603283614969565b915061412f82615438565b604082019050919050565b6000614147605183614969565b915061415282615487565b606082019050919050565b600061416a60098361497a565b9150614175826154fc565b600982019050919050565b600061418d603883614969565b915061419882615525565b604082019050919050565b60006141b0604a83614969565b91506141bb82615574565b606082019050919050565b60006141d3604c83614969565b91506141de826155e9565b606082019050919050565b60006141f6600f8361497a565b91506142018261565e565b600f82019050919050565b61421581614ad8565b82525050565b60006142278284613c6b565b915081905092915050565b600061423e8284613d41565b915081905092915050565b600061425482613f50565b9150819050919050565b600061426982613fff565b9150819050919050565b600061427e82614068565b9150819050919050565b60006142938261415d565b9150819050919050565b60006142a8826141e9565b9150819050919050565b60006020820190506142c76000830184613c4d565b92915050565b60006040820190506142e26000830185613c4d565b6142ef602083018461420c565b9392505050565b600060208201905061430b6000830184613c5c565b92915050565b60006020820190506143266000830184613cea565b92915050565b600060208201905081810360008301526143468184613d08565b905092915050565b6000602082019050818103600083015261436781613df2565b9050919050565b6000602082019050818103600083015261438781613e15565b9050919050565b600060208201905081810360008301526143a781613e38565b9050919050565b600060208201905081810360008301526143c781613e5b565b9050919050565b600060208201905081810360008301526143e781613e7e565b9050919050565b6000602082019050818103600083015261440781613ea1565b9050919050565b6000602082019050818103600083015261442781613ec4565b9050919050565b6000602082019050818103600083015261444781613ee7565b9050919050565b6000602082019050818103600083015261446781613f0a565b9050919050565b6000602082019050818103600083015261448781613f2d565b9050919050565b600060208201905081810360008301526144a781613f73565b9050919050565b600060208201905081810360008301526144c781613f96565b9050919050565b600060208201905081810360008301526144e781613fb9565b9050919050565b6000602082019050818103600083015261450781613fdc565b9050919050565b6000602082019050818103600083015261452781614022565b9050919050565b6000602082019050818103600083015261454781614045565b9050919050565b600060208201905081810360008301526145678161408b565b9050919050565b60006020820190508181036000830152614587816140ae565b9050919050565b600060208201905081810360008301526145a7816140d1565b9050919050565b600060208201905081810360008301526145c7816140f4565b9050919050565b600060208201905081810360008301526145e781614117565b9050919050565b600060208201905081810360008301526146078161413a565b9050919050565b6000602082019050818103600083015261462781614180565b9050919050565b60006020820190508181036000830152614647816141a3565b9050919050565b60006020820190508181036000830152614667816141c6565b9050919050565b6000602082019050614683600083018461420c565b92915050565b600060608201905061469e600083018661420c565b6146ab6020830185613c4d565b81810360408301526146bd8184613d08565b9050949350505050565b6000610180820190506146dd600083018f61420c565b81810360208301526146ef818e613d08565b90506146fe604083018d61420c565b61470b606083018c613cf9565b614718608083018b613c4d565b61472560a083018a613c4d565b61473260c083018961420c565b61473f60e083018861420c565b61474d61010083018761420c565b61475b61012083018661420c565b81810361014083015261476e8185613d72565b905061477e610160830184613c5c565b9d9c50505050505050505050505050565b6000610180820190506147a5600083018f61420c565b81810360208301526147b7818e613d08565b90506147c6604083018d61420c565b6147d3606083018c61420c565b6147e0608083018b613c4d565b6147ed60a083018a613c4d565b6147fa60c083018961420c565b61480760e083018861420c565b61481561010083018761420c565b61482361012083018661420c565b8181036101408301526148368185613d08565b9050614846610160830184613c5c565b9d9c50505050505050505050505050565b600060608201905061486c600083018661420c565b614879602083018561420c565b6148866040830184613c5c565b949350505050565b60006080820190506148a3600083018761420c565b6148b0602083018661420c565b6148bd604083018561420c565b6148ca6060830184613c5c565b95945050505050565b60006148dd6148ee565b90506148e98282614b8c565b919050565b6000604051905090565b600067ffffffffffffffff82111561491357614912614c93565b5b61491c82614cc2565b9050602081019050919050565b60008190508160005260206000209050919050565b60008190508160005260206000209050919050565b600081519050919050565b600081905092915050565b600082825260208201905092915050565b600081905092915050565b600061499082614ad8565b915061499b83614ad8565b9250827fffffffffffffffffffffffffffffffffffffffffffffffffffffffffffffffff038211156149d0576149cf614c06565b5b828201905092915050565b60006149e682614ad8565b91506149f183614ad8565b925082614a0157614a00614c35565b5b828204905092915050565b6000614a1782614ad8565b9150614a2283614ad8565b9250817fffffffffffffffffffffffffffffffffffffffffffffffffffffffffffffffff0483118215151615614a5b57614a5a614c06565b5b828202905092915050565b6000614a7182614ad8565b9150614a7c83614ad8565b925082821015614a8f57614a8e614c06565b5b828203905092915050565b6000614aa582614ab8565b9050919050565b60008115159050919050565b600073ffffffffffffffffffffffffffffffffffffffff82169050919050565b6000819050919050565b6000614aed82614af4565b9050919050565b6000614aff82614ab8565b9050919050565b6000614b1182614ad8565b9050919050565b82818337600083830152505050565b60005b83811015614b45578082015181840152602081019050614b2a565b83811115614b54576000848401525b50505050565b60006002820490506001821680614b7257607f821691505b60208210811415614b8657614b85614c64565b5b50919050565b614b9582614cc2565b810181811067ffffffffffffffff82111715614bb457614bb3614c93565b5b80604052505050565b6000614bc882614ad8565b91507fffffffffffffffffffffffffffffffffffffffffffffffffffffffffffffffff821415614bfb57614bfa614c06565b5b600182019050919050565b7f4e487b7100000000000000000000000000000000000000000000000000000000600052601160045260246000fd5b7f4e487b7100000000000000000000000000000000000000000000000000000000600052601260045260246000fd5b7f4e487b7100000000000000000000000000000000000000000000000000000000600052602260045260246000fd5b7f4e487b7100000000000000000000000000000000000000000000000000000000600052604160045260246000fd5b6000601f19601f8301169050919050565b7f53696e63652074686520636f6e7472616374207761732063726561746564206260008201527f79207468652062757965722c206f6e6c79207468652073656c6c65722063616e60208201527f2061636365707420697400000000000000000000000000000000000000000000604082015250565b7f54686520636f6e7472616374206d75737420616c6c6f77207472616e7361637460008201527f696f6e73206265666f72652068616c66207468652074696d652068617320706160208201527f7373656400000000000000000000000000000000000000000000000000000000604082015250565b7f416d6f756e7420746f20506179206d757374206265206d6f7265207468616e2060008201527f30204350546f6b656e7300000000000000000000000000000000000000000000602082015250565b7f546865205061796d656e7420436f6e74726163742063616e6e6f742066696e6960008201527f7368206265666f7265207374617274696e670000000000000000000000000000602082015250565b7f53696e63652074686520636f6e7472616374207761732063726561746564206260008201527f79207468652073656c6c65722c206f6e6c79207468652062757965722063616e60208201527f2061636365707420697400000000000000000000000000000000000000000000604082015250565b7f546865207061796d656e74207370656564206f662074686520636f6e7472616360008201527f74206d757374206265206265747765656e203020616e64203130300000000000602082015250565b7f5468652062757965722069732063757272656e746c7920626c6f636b6420666f60008201527f7220686176696e67206d6973736564207061796d656e74732e00000000000000602082015250565b7f54686520436f6e74726163742063616e6e6f742065786365656420746865206d60008201527f6178696d756d20616d6f756e7420616c6c6f776564206279207468652073706560208201527f65642e0000000000000000000000000000000000000000000000000000000000604082015250565b7f416d6f756e74205265717565737465642063616e6e6f74206265206c6172676560008201527f72207468616e203125206f662063757272656e7420737570706c790000000000602082015250565b7f546865205061796d656e7420436f6e74726163742043616e6e6f74206265206160008201527f6c72656164792065787069726564000000000000000000000000000000000000602082015250565b7f4143434550544544000000000000000000000000000000000000000000000000600082015250565b7f546865206e616d65206f6620746865205061796d656e7420436f6e747261637460008201527f206d7573742062652076616c6964000000000000000000000000000000000000602082015250565b7f54686520636f6e747261637420737461747573206d75737420616c6c6f77206660008201527f6f72207061796d656e7400000000000000000000000000000000000000000000602082015250565b7f546865204275796572206d757374206861766520656e6f7567682066756e647360008201527f20666f722074686520636f6e747261637420746f20626520616363657074656460208201527f2e00000000000000000000000000000000000000000000000000000000000000604082015250565b7f5468652062757965722063616e6e6f74206265207468652073656c6c65720000600082015250565b7f52454a4543544544000000000000000000000000000000000000000000000000600082015250565b7f546865206e657720737461747573206d7573742062652076616c696400000000600082015250565b7f416d6f756e7420526571756573746564204d757374206265206d6f726520746860008201527f616e2030204350546f6b656e7300000000000000000000000000000000000000602082015250565b7f4e4f545f52455649455745440000000000000000000000000000000000000000600082015250565b7f4f6e6c792042757965722c2053656c6c6572206f7220436f6c5061792063616e60008201527f206d616b65207472616e73616374696f6e7320696e206120636f6e7472616374602082015250565b7f54686520636f6e7472616374204944206d7573742062652076616c6964000000600082015250565b7f5468652063616c6c6572206d75737420626520436f6c5061792c20746865792060008201527f636f6e74726f6c207768656e206e6577206163636f756e74732061726520697360208201527f737565642074686520746f6b656e732e00000000000000000000000000000000604082015250565b7f5468652063616c6c6572206d75737420626520436f6c5061792c20746865792060008201527f636f6e74726f6c207468652073637269707420666f7220646574656374696e6760208201527f206578706972656420636f6e74726163747320616e64206c697175696461746960408201527f6e67207468656d2e000000000000000000000000000000000000000000000000606082015250565b7f546869732066756e6374696f6e206f6e6c7920697373756573204350546f6b6560008201527f6e7320746f206e6577206163636f756e74730000000000000000000000000000602082015250565b7f456e6f7567682064617973206861766520746f2068617665207061737420696e60008201527f206f7264657220666f722074686520636f6e747261637420746f20616c6c6f7760208201527f20666f72207472616e73616374696f6e73000000000000000000000000000000604082015250565b7f46554c46494c4c45440000000000000000000000000000000000000000000000600082015250565b7f54686520436f6e7472616374206d75737420626520696e206e6f74207265766960008201527f657765642073746174757320746f2072656a6563742069740000000000000000602082015250565b7f546f74616c20616d6f756e742070616964206d757374206e6f74206265206d6f60008201527f7265207468616e2074686520746f74616c2076616c7565206f66205061796d6560208201527f6e74436f6e747261637400000000000000000000000000000000000000000000604082015250565b7f54686520636f6e7472616374206578706972792064617465206d75737420626560008201527f20696e20746865207061737420696e206f7264657220746f206578706972652060208201527f74686520636f6e74726163740000000000000000000000000000000000000000604082015250565b7f4d495353494e475f5041594d454e540000000000000000000000000000000000600082015250565b61569081614a9a565b811461569b57600080fd5b50565b6156a781614aac565b81146156b257600080fd5b50565b6156be81614ad8565b81146156c957600080fd5b5056fea26469706673582212203244972c261f069a1d64d4699c861cbd8385ad859b82b11547d5d79ab79bfce664736f6c63430008040033",
  "immutableReferences": {},
  "source": "// SPDX-License-Identifier: MIT\npragma solidity 0.8.4;\n\nimport \"./CPToken.sol\" as CPToken;\nimport \"./DateTimeLibrary.sol\" as DateTimeLibrary;\n\ncontract ColPay {\n    string public name;\n    address public owner;\n    uint public contractCount;\n    CPToken.CPToken public cpToken;\n\n    mapping(uint => PaymentContract) public paymentContracts;\n    mapping(uint => Transaction[]) public transactionLists;\n    mapping(address => uint) public incurredDebt;\n    mapping(address => uint) public potentialDebt;\n    mapping(address => bool) public isBlocked;\n    mapping(address => uint[]) public paymentContractsHeldPerAddress;\n\n    string[] private CONTRACT_STATUS_TYPES = ['NOT_REVIEWED', 'REJECTED', 'ACCEPTED', 'FULFILLED', 'MISSING_PAYMENT'];\n    mapping(string => string) private CONTRACT_STATUS;\n\n    struct Transaction {\n        uint256 date;\n        uint value;\n        bool successful;\n    }\n\n    struct PaymentContract {\n        uint id;\n        string name;\n        uint totalAmount;\n        uint amountPaid;\n        address buyer;\n        address seller;\n        uint256 startDate;\n        uint256 expiryDate;\n        uint daysToOpen;\n        uint speed;\n        string contractStatus;\n        bool createdBySeller;\n    }\n\n    event PaymentContractCreated (\n        uint id,\n        string name,\n        uint totalAmount,\n        uint amountPaid,\n        address buyer,\n        address seller,\n        uint256 startDate,\n        uint256 expiryDate,\n        uint daysToOpen,\n        uint speed,\n        string contractStatus,\n        bool createdBySeller\n    );\n\n    event PaymentContractStatusUpdate (\n        uint id,\n        address statusUpdatedBy,\n        string contractStatus\n    );\n\n    event TransactionMade (\n        uint256 date,\n        uint contractID,\n        uint value,\n        bool successful\n    );\n\n    constructor(CPToken.CPToken _cpToken) {\n        name = \"Payment Fragmentation Service\";\n        cpToken = _cpToken;\n        owner = msg.sender;\n        contractCount = 0;\n\n        for (uint i=0; i<CONTRACT_STATUS_TYPES.length; i++) {\n            CONTRACT_STATUS[CONTRACT_STATUS_TYPES[i]] = CONTRACT_STATUS_TYPES[i];\n        }\n    }\n\n    // Request Tokens - for new accounts\n    function issueTokens(uint256 _value, address _receipient) public {\n        // Check for valid requests\n        require(msg.sender == owner, \"The caller must be ColPay, they control when new accounts are issued the tokens.\");\n        require(_value > 0, \"Amount Requested Must be more than 0 CPTokens\");\n        require(_value < cpToken.balanceOf(address(this))/100, \"Amount Requested cannot be larger than 1% of current supply\");\n        require(cpToken.balanceOf(msg.sender) == 0 && paymentContractsHeldPerAddress[msg.sender].length == 0, \"This function only issues CPTokens to new accounts\");\n\n        cpToken.transfer(_receipient, _value);\n    }\n\n    // Create Payment Contract\n    function createPaymentContract (string memory _name, uint _totalAmount, address _recipient, uint256 _startDate, uint256 _expiryDate, uint _daysToOpen, uint _speed, bool _createdBySeller) public {\n        // Check for valid requests\n        require(_startDate > _expiryDate, \"The Payment Contract cannot finish before starting\");\n        require(_totalAmount > 0, \"Amount to Pay must be more than 0 CPTokens\");\n        require(bytes(_name).length > 0, \"The name of the Payment Contract must be valid\");\n        require(DateTimeLibrary.DateTimeLibrary.diffDays(_startDate, _expiryDate) / 2 < _daysToOpen, \"The contract must allow transactions before half the time has passed\");\n        require(_speed > 0 && _speed < 100, \"The payment speed of the contract must be between 0 and 100\");\n        require(block.timestamp < _expiryDate, \"The Payment Contract Cannot be already expired\");\n        require(_recipient != msg.sender, \"The buyer cannot be the seller\");\n\n        // Create the Contract\n        address buyer;\n        address seller;\n        if (_createdBySeller){\n            seller = msg.sender;\n            buyer = _recipient;\n        } else {\n            seller = _recipient;\n            buyer = msg.sender;\n        }\n        require(isBlocked[buyer] == false, \"The buyer is currently blockd for having missed payments.\");\n\n        // Decided that this was a bad idea, since it would be possible to block someone with less funds by generating contracts at them faster that they can reject them.\n        // require(potentialDebt[buyer] + incurredDebt[buyer] + _totalAmount <= cpToken.balanceOf(buyer), \"The buyer must have enough cpTokens to pay this contract and others\");\n\n        // Update the buyers potential debt\n        potentialDebt[buyer] = potentialDebt[buyer] + _totalAmount;\n\n        paymentContracts[contractCount] = PaymentContract(contractCount, _name, _totalAmount, 0, buyer, seller, _startDate, _expiryDate, _daysToOpen, _speed, CONTRACT_STATUS['NOT_REVIEWED'], _createdBySeller);\n\n        // Trigger Event\n        emit PaymentContractCreated(contractCount, _name, _totalAmount, 0, buyer, seller, _startDate, _expiryDate, _daysToOpen, _speed, CONTRACT_STATUS['NOT_REVIEWED'], _createdBySeller);\n\n        // Increment contractCount\n        contractCount ++;\n    }\n\n    // Accept a Payment Contract\n    function acceptPaymentContract(uint _contractID) public {\n        // Check for valid requests\n        require(_contractID > 0 && _contractID <= contractCount, \"The contract ID must be valid\");\n\n        PaymentContract memory _contract = paymentContracts[_contractID];\n        if(_contract.createdBySeller){\n            require (msg.sender == _contract.buyer, \"Since the contract was created by the seller, only the buyer can accept it\");\n        } else {\n            require (msg.sender == _contract.seller, \"Since the contract was created by the buyer, only the seller can accept it\");\n        }\n\n        require(incurredDebt[_contract.buyer] + _contract.totalAmount <= cpToken.balanceOf(_contract.buyer), \"The Buyer must have enough funds for the contract to be accepted.\");\n\n        // Potential debt turns into incurred debt\n        potentialDebt[_contract.buyer] = potentialDebt[_contract.buyer] - _contract.totalAmount;\n        incurredDebt[_contract.buyer] = incurredDebt[_contract.buyer] + _contract.totalAmount;\n\n        updatePaymentContractStatus(_contractID, CONTRACT_STATUS['ACCEPTED']);\n    }\n\n    // Reject a Payment Contract\n    function rejectPaymentContract(uint _contractID) public {\n        // Check for valid requests\n        require(_contractID > 0 && _contractID <= contractCount, \"The contract ID must be valid\");\n\n        PaymentContract memory _contract = paymentContracts[_contractID];\n        require(keccak256(bytes(_contract.contractStatus)) == keccak256(bytes(CONTRACT_STATUS['NOT_REVIEWED'])), \"The Contract must be in not reviewed status to reject it\");\n\n        (msg.sender == _contract.buyer || msg.sender == _contract.seller, \"Only the buyer or seller can reject a contract (either participant can)\");\n\n        // Update the buyers potential debt\n        potentialDebt[_contract.buyer] = potentialDebt[_contract.buyer] - _contract.totalAmount;\n\n        updatePaymentContractStatus(_contractID, CONTRACT_STATUS['REJECTED']);\n    }\n\n    // Finalize a Payment Contract\n    function expirePaymentContract(uint _contractID) public {\n        // Check for valid requests\n        require(_contractID > 0 && _contractID <= contractCount, \"The contract ID must be valid\");\n\n        PaymentContract memory _contract = paymentContracts[_contractID];\n        require(block.timestamp > _contract.expiryDate, \"The contract expiry date must be in the past in order to expire the contract\");\n\n        uint remainingValue = _contract.totalAmount - _contract.amountPaid;\n\n        makeTransaction(_contractID, remainingValue);\n    }\n\n    function updatePaymentContractStatus(uint _contractID, string memory _newStatus) private {\n        // Check for valid requests\n        PaymentContract memory _contract = paymentContracts[_contractID];\n\n        require(bytes(CONTRACT_STATUS[_newStatus]).length > 0 , \"The new status must be valid\");\n\n        // Change contract agreement status\n        _contract.contractStatus = CONTRACT_STATUS[_newStatus];\n        paymentContracts[_contractID] = _contract;\n\n        // Trigger Event\n        emit PaymentContractStatusUpdate(_contractID, msg.sender, _newStatus);\n\n    }\n\n    // Script to be daily executed to check for contracts that have expired or have missed a payment\n    function checkForRequiredPayments() public {\n        // Only owner can call this function\n        require(msg.sender == owner, \"The caller must be ColPay, they control the script for detecting expired contracts and liquidating them.\");\n\n        // Check for expired contracts\n        for (uint i=0; i<contractCount; i++) {\n            PaymentContract memory _contract = paymentContracts[i];\n            if( block.timestamp > _contract.expiryDate \n                && (keccak256(bytes(_contract.contractStatus)) == keccak256(bytes(CONTRACT_STATUS['ACCEPTED'])))) {\n                expirePaymentContract(i);\n            } else if (keccak256(bytes(_contract.contractStatus)) == keccak256(bytes(CONTRACT_STATUS['MISSING_PAYMENT']))){\n                makeTransaction(i, transactionLists[i][transactionLists[i].length -1].value);\n            }\n        }\n    }\n\n    // Make a Transaction\n    // will move value from buyer to seller & update the remaining amount to contract \n    // this function should use from statement in metadata when called \n    function makeTransaction (uint _contractID, uint _value) public{ \n        // Check for valid requests\n        require(_contractID > 0 && _contractID <= contractCount, \"The contract ID must be valid\");\n        require(_value > 0, \"Amount to Pay must be more than 0 CPTokens\");\n\n        PaymentContract memory _contract = paymentContracts[_contractID];\n        uint totalPayment = _contract.amountPaid + _value;\n        require(totalPayment <= _contract.totalAmount, \"Total amount paid must not be more than the total value of PaymentContract\");\n        require(\n                keccak256(bytes(_contract.contractStatus)) == keccak256(bytes(CONTRACT_STATUS['ACCEPTED'])) \n                || keccak256(bytes(_contract.contractStatus)) == keccak256(bytes(CONTRACT_STATUS['MISSING_PAYMENT'])), \n                \"The contract status must allow for payment\");\n        require(_contract.seller == msg.sender || _contract.buyer == msg.sender || owner == msg.sender, \"Only Buyer, Seller or ColPay can make transactions in a contract\");\n        require(block.timestamp > DateTimeLibrary.DateTimeLibrary.addDays(_contract.startDate, _contract.daysToOpen), \"Enough days have to have past in order for the contract to allow for transactions\");\n\n        uint totalContractTime = DateTimeLibrary.DateTimeLibrary.diffSeconds(_contract.startDate, _contract.expiryDate);\n        uint elapsedContractTime = DateTimeLibrary.DateTimeLibrary.diffSeconds(_contract.startDate, block.timestamp);\n        uint percentageOfElapsedTime = (elapsedContractTime * 100) / totalContractTime;\n        uint percentagePayable = (percentageOfElapsedTime * _contract.speed)/ 100;\n        uint maxTotalCurrentTotalPayment = (percentagePayable * _contract.totalAmount) / 100;\n\n        require(maxTotalCurrentTotalPayment <= _contract.amountPaid + _value, \"The Contract cannot exceed the maximum amount allowed by the speed.\");\n\n        Transaction memory _transaction;\n        \n        if (cpToken.balanceOf(msg.sender) < _value){\n\n            _contract.contractStatus = CONTRACT_STATUS['MISSING_PAYMENT'];\n            isBlocked[_contract.buyer] = true;\n            _transaction = Transaction(block.timestamp, _value, false);\n\n        } else {\n\n            if(isBlocked[_contract.buyer]){\n\n                bool hasOtherMissingPayments = false;\n\n                for (uint i = 0; i < paymentContractsHeldPerAddress[_contract.buyer].length; i++){\n                    if(_contractID != i \n                      && transactionLists[i][transactionLists[i].length -1].successful == false\n                      && keccak256(bytes(paymentContracts[i].contractStatus)) == keccak256(bytes(CONTRACT_STATUS['MISSING_PAYMENT']))\n                      ){\n                          hasOtherMissingPayments = true;\n                      }\n                }\n                if (!hasOtherMissingPayments) {\n                    isBlocked[_contract.buyer] = false;\n                }       \n            }\n\n            _transaction = Transaction(block.timestamp, _value, true);\n\n            // Update the buyers total debt\n            incurredDebt[_contract.buyer] = incurredDebt[_contract.buyer] + _contract.totalAmount;\n\n            // Make transaction of cpTokens\n            cpToken.transfer(_contract.seller, _value);\n\n            // Update the amount of the contract paid\n            _contract.amountPaid = totalPayment;\n\n            // Update contract status\n            if(totalPayment == _contract.totalAmount){\n                updatePaymentContractStatus(_contractID, CONTRACT_STATUS['FULFILLED']);\n            } else {\n                updatePaymentContractStatus(_contractID, CONTRACT_STATUS['ACCEPTED']);\n            }\n        }\n\n        // Add Failed transaction to List of all transactions for that contract\n        transactionLists[_contractID].push(_transaction);\n\n        paymentContracts[_contractID] = _contract;\n\n        emit TransactionMade(block.timestamp, _contractID, _value, _transaction.successful);\n\n    }\n\n}",
  "sourcePath": "/Users/coverwallet/Documents/Personal/Blockchain/ColPay/src/contracts/ColPay.sol",
  "compiler": {
    "name": "solc",
    "version": "0.8.4+commit.c7e474f2.Emscripten.clang"
  },
  "schemaVersion": "3.4.1",
  "updatedAt": "2021-05-16T08:31:46.230Z",
  "networkType": "ethereum",
  "devdoc": {
    "kind": "dev",
    "methods": {},
    "version": 1
  },
  "userdoc": {
    "kind": "user",
    "methods": {},
    "version": 1
  }
}