{
  "contractName": "ColPay",
  "abi": [
    {
      "inputs": [
        {
          "internalType": "contract CPToken",
          "name": "_cpToken",
          "type": "address"
        }
      ],
      "stateMutability": "nonpayable",
      "type": "constructor"
    },
    {
      "anonymous": false,
      "inputs": [
        {
          "indexed": false,
          "internalType": "uint256",
          "name": "id",
          "type": "uint256"
        },
        {
          "indexed": false,
          "internalType": "string",
          "name": "name",
          "type": "string"
        },
        {
          "indexed": false,
          "internalType": "uint256",
          "name": "totalAmount",
          "type": "uint256"
        },
        {
          "indexed": false,
          "internalType": "uint256",
          "name": "amountPaid",
          "type": "uint256"
        },
        {
          "indexed": false,
          "internalType": "address",
          "name": "buyer",
          "type": "address"
        },
        {
          "indexed": false,
          "internalType": "address",
          "name": "seller",
          "type": "address"
        },
        {
          "indexed": false,
          "internalType": "uint256",
          "name": "startDate",
          "type": "uint256"
        },
        {
          "indexed": false,
          "internalType": "uint256",
          "name": "expiryDate",
          "type": "uint256"
        },
        {
          "indexed": false,
          "internalType": "uint256",
          "name": "daysToOpen",
          "type": "uint256"
        },
        {
          "indexed": false,
          "internalType": "uint256",
          "name": "speed",
          "type": "uint256"
        },
        {
          "indexed": false,
          "internalType": "string",
          "name": "contractStatus",
          "type": "string"
        },
        {
          "indexed": false,
          "internalType": "bool",
          "name": "createdBySeller",
          "type": "bool"
        }
      ],
      "name": "PaymentContractCreated",
      "type": "event"
    },
    {
      "anonymous": false,
      "inputs": [
        {
          "indexed": false,
          "internalType": "uint256",
          "name": "id",
          "type": "uint256"
        },
        {
          "indexed": false,
          "internalType": "address",
          "name": "statusUpdatedBy",
          "type": "address"
        },
        {
          "indexed": false,
          "internalType": "string",
          "name": "contractStatus",
          "type": "string"
        }
      ],
      "name": "PaymentContractStatusUpdate",
      "type": "event"
    },
    {
      "anonymous": false,
      "inputs": [
        {
          "indexed": false,
          "internalType": "uint256",
          "name": "date",
          "type": "uint256"
        },
        {
          "indexed": false,
          "internalType": "uint256",
          "name": "contractID",
          "type": "uint256"
        },
        {
          "indexed": false,
          "internalType": "uint256",
          "name": "value",
          "type": "uint256"
        },
        {
          "indexed": false,
          "internalType": "bool",
          "name": "successful",
          "type": "bool"
        }
      ],
      "name": "TransactionMade",
      "type": "event"
    },
    {
      "inputs": [],
      "name": "contractCount",
      "outputs": [
        {
          "internalType": "uint256",
          "name": "",
          "type": "uint256"
        }
      ],
      "stateMutability": "view",
      "type": "function",
      "constant": true
    },
    {
      "inputs": [],
      "name": "cpToken",
      "outputs": [
        {
          "internalType": "contract CPToken",
          "name": "",
          "type": "address"
        }
      ],
      "stateMutability": "view",
      "type": "function",
      "constant": true
    },
    {
      "inputs": [
        {
          "internalType": "address",
          "name": "",
          "type": "address"
        }
      ],
      "name": "incurredDebt",
      "outputs": [
        {
          "internalType": "uint256",
          "name": "",
          "type": "uint256"
        }
      ],
      "stateMutability": "view",
      "type": "function",
      "constant": true
    },
    {
      "inputs": [
        {
          "internalType": "address",
          "name": "",
          "type": "address"
        }
      ],
      "name": "isBlocked",
      "outputs": [
        {
          "internalType": "bool",
          "name": "",
          "type": "bool"
        }
      ],
      "stateMutability": "view",
      "type": "function",
      "constant": true
    },
    {
      "inputs": [],
      "name": "name",
      "outputs": [
        {
          "internalType": "string",
          "name": "",
          "type": "string"
        }
      ],
      "stateMutability": "view",
      "type": "function",
      "constant": true
    },
    {
      "inputs": [],
      "name": "owner",
      "outputs": [
        {
          "internalType": "address",
          "name": "",
          "type": "address"
        }
      ],
      "stateMutability": "view",
      "type": "function",
      "constant": true
    },
    {
      "inputs": [
        {
          "internalType": "uint256",
          "name": "",
          "type": "uint256"
        }
      ],
      "name": "paymentContracts",
      "outputs": [
        {
          "internalType": "uint256",
          "name": "id",
          "type": "uint256"
        },
        {
          "internalType": "string",
          "name": "name",
          "type": "string"
        },
        {
          "internalType": "uint256",
          "name": "totalAmount",
          "type": "uint256"
        },
        {
          "internalType": "uint256",
          "name": "amountPaid",
          "type": "uint256"
        },
        {
          "internalType": "address",
          "name": "buyer",
          "type": "address"
        },
        {
          "internalType": "address",
          "name": "seller",
          "type": "address"
        },
        {
          "internalType": "uint256",
          "name": "startDate",
          "type": "uint256"
        },
        {
          "internalType": "uint256",
          "name": "expiryDate",
          "type": "uint256"
        },
        {
          "internalType": "uint256",
          "name": "daysToOpen",
          "type": "uint256"
        },
        {
          "internalType": "uint256",
          "name": "speed",
          "type": "uint256"
        },
        {
          "internalType": "string",
          "name": "contractStatus",
          "type": "string"
        },
        {
          "internalType": "bool",
          "name": "createdBySeller",
          "type": "bool"
        }
      ],
      "stateMutability": "view",
      "type": "function",
      "constant": true
    },
    {
      "inputs": [
        {
          "internalType": "address",
          "name": "",
          "type": "address"
        },
        {
          "internalType": "uint256",
          "name": "",
          "type": "uint256"
        }
      ],
      "name": "paymentContractsHeldPerAddress",
      "outputs": [
        {
          "internalType": "uint256",
          "name": "",
          "type": "uint256"
        }
      ],
      "stateMutability": "view",
      "type": "function",
      "constant": true
    },
    {
      "inputs": [
        {
          "internalType": "address",
          "name": "",
          "type": "address"
        }
      ],
      "name": "potentialDebt",
      "outputs": [
        {
          "internalType": "uint256",
          "name": "",
          "type": "uint256"
        }
      ],
      "stateMutability": "view",
      "type": "function",
      "constant": true
    },
    {
      "inputs": [
        {
          "internalType": "uint256",
          "name": "",
          "type": "uint256"
        },
        {
          "internalType": "uint256",
          "name": "",
          "type": "uint256"
        }
      ],
      "name": "transactionLists",
      "outputs": [
        {
          "internalType": "uint256",
          "name": "date",
          "type": "uint256"
        },
        {
          "internalType": "uint256",
          "name": "value",
          "type": "uint256"
        },
        {
          "internalType": "bool",
          "name": "successful",
          "type": "bool"
        }
      ],
      "stateMutability": "view",
      "type": "function",
      "constant": true
    },
    {
      "inputs": [
        {
          "internalType": "uint256",
          "name": "_value",
          "type": "uint256"
        },
        {
          "internalType": "address",
          "name": "_receipient",
          "type": "address"
        }
      ],
      "name": "issueTokens",
      "outputs": [],
      "stateMutability": "nonpayable",
      "type": "function"
    },
    {
      "inputs": [
        {
          "internalType": "string",
          "name": "_name",
          "type": "string"
        },
        {
          "internalType": "uint256",
          "name": "_totalAmount",
          "type": "uint256"
        },
        {
          "internalType": "address",
          "name": "_recipient",
          "type": "address"
        },
        {
          "internalType": "uint256",
          "name": "_startDate",
          "type": "uint256"
        },
        {
          "internalType": "uint256",
          "name": "_expiryDate",
          "type": "uint256"
        },
        {
          "internalType": "uint256",
          "name": "_daysToOpen",
          "type": "uint256"
        },
        {
          "internalType": "uint256",
          "name": "_speed",
          "type": "uint256"
        },
        {
          "internalType": "bool",
          "name": "_createdBySeller",
          "type": "bool"
        }
      ],
      "name": "createPaymentContract",
      "outputs": [],
      "stateMutability": "nonpayable",
      "type": "function"
    },
    {
      "inputs": [
        {
          "internalType": "uint256",
          "name": "_contractID",
          "type": "uint256"
        }
      ],
      "name": "acceptPaymentContract",
      "outputs": [],
      "stateMutability": "nonpayable",
      "type": "function"
    },
    {
      "inputs": [
        {
          "internalType": "uint256",
          "name": "_contractID",
          "type": "uint256"
        }
      ],
      "name": "rejectPaymentContract",
      "outputs": [],
      "stateMutability": "nonpayable",
      "type": "function"
    },
    {
      "inputs": [
        {
          "internalType": "uint256",
          "name": "_contractID",
          "type": "uint256"
        }
      ],
      "name": "expirePaymentContract",
      "outputs": [],
      "stateMutability": "nonpayable",
      "type": "function"
    },
    {
      "inputs": [],
      "name": "checkForRequiredPayments",
      "outputs": [],
      "stateMutability": "nonpayable",
      "type": "function"
    },
    {
      "inputs": [
        {
          "internalType": "uint256",
          "name": "_contractID",
          "type": "uint256"
        },
        {
          "internalType": "uint256",
          "name": "_value",
          "type": "uint256"
        }
      ],
      "name": "makeTransaction",
      "outputs": [],
      "stateMutability": "nonpayable",
      "type": "function"
    }
  ],
  "bytecode": "0x60806040526040518060a001604052806040518060400160405280600c81526020017f4e4f545f5245564945574544000000000000000000000000000000000000000081525081526020016040518060400160405280600881526020017f52454a454354454400000000000000000000000000000000000000000000000081525081526020016040518060400160405280600881526020017f414343455054454400000000000000000000000000000000000000000000000081525081526020016040518060400160405280600981526020017f46554c46494c4c4544000000000000000000000000000000000000000000000081525081526020016040518060400160405280600f81526020017f4d495353494e475f5041594d454e540000000000000000000000000000000000815250815250600a9060056200014692919062000346565b503480156200015457600080fd5b506040516200613c3803806200613c83398181016040528101906200017a91906200057a565b6040518060400160405280601d81526020017f5061796d656e7420467261676d656e746174696f6e205365727669636500000081525060009080519060200190620001c7929190620003ad565b5080600360006101000a81548173ffffffffffffffffffffffffffffffffffffffff021916908373ffffffffffffffffffffffffffffffffffffffff16021790555033600160006101000a81548173ffffffffffffffffffffffffffffffffffffffff021916908373ffffffffffffffffffffffffffffffffffffffff160217905550600060028190555060005b600a805490508110156200033e57600a81815481106200029e577f4e487b7100000000000000000000000000000000000000000000000000000000600052603260045260246000fd5b90600052602060002001600b600a8381548110620002e5577f4e487b7100000000000000000000000000000000000000000000000000000000600052603260045260246000fd5b90600052602060002001604051620002fe919062000631565b90815260200160405180910390209080546200031a90620006bc565b620003279291906200043e565b5080806200033590620006f2565b91505062000255565b5050620007b8565b8280548282559060005260206000209081019282156200039a579160200282015b828111156200039957825182908051906020019062000388929190620003ad565b509160200191906001019062000367565b5b509050620003a99190620004d6565b5090565b828054620003bb90620006bc565b90600052602060002090601f016020900481019282620003df57600085556200042b565b82601f10620003fa57805160ff19168380011785556200042b565b828001600101855582156200042b579182015b828111156200042a5782518255916020019190600101906200040d565b5b5090506200043a9190620004fe565b5090565b8280546200044c90620006bc565b90600052602060002090601f016020900481019282620004705760008555620004c3565b82601f10620004835780548555620004c3565b82800160010185558215620004c357600052602060002091601f016020900482015b82811115620004c2578254825591600101919060010190620004a5565b5b509050620004d29190620004fe565b5090565b5b80821115620004fa5760008181620004f091906200051d565b50600101620004d7565b5090565b5b8082111562000519576000816000905550600101620004ff565b5090565b5080546200052b90620006bc565b6000825580601f106200053f575062000560565b601f0160209004906000526020600020908101906200055f9190620004fe565b5b50565b60008151905062000574816200079e565b92915050565b6000602082840312156200058d57600080fd5b60006200059d8482850162000563565b91505092915050565b60008154620005b581620006bc565b620005c181866200065f565b94506001821660008114620005df5760018114620005f15762000628565b60ff1983168652818601935062000628565b620005fc856200064a565b60005b838110156200062057815481890152600182019150602081019050620005ff565b838801955050505b50505092915050565b60006200063f8284620005a6565b915081905092915050565b60008190508160005260206000209050919050565b600081905092915050565b6000620006778262000692565b9050919050565b60006200068b826200066a565b9050919050565b600073ffffffffffffffffffffffffffffffffffffffff82169050919050565b6000819050919050565b60006002820490506001821680620006d557607f821691505b60208210811415620006ec57620006eb6200076f565b5b50919050565b6000620006ff82620006b2565b91507fffffffffffffffffffffffffffffffffffffffffffffffffffffffffffffffff82141562000735576200073462000740565b5b600182019050919050565b7f4e487b7100000000000000000000000000000000000000000000000000000000600052601160045260246000fd5b7f4e487b7100000000000000000000000000000000000000000000000000000000600052602260045260246000fd5b620007a9816200067e565b8114620007b557600080fd5b50565b61597480620007c86000396000f3fe608060405234801561001057600080fd5b506004361061010b5760003560e01c80637ad5be88116100a25780639baca1ce116100715780639baca1ce146102af578063aaf9bfae146102e1578063ab696d76146102eb578063d0f0fc781461031b578063fbac3951146103375761010b565b80637ad5be881461023b5780638736381a146102575780638da5cb5b14610275578063939626ea146102935761010b565b80632cd73dab116100de5780632cd73dab146101985780633b9054ba146101b457806342ff1f1b146101e457806369f00a36146102005761010b565b806306fdde0314610110578063125153f61461012e5780631b4a5cc81461015e5780632c999e551461017c575b600080fd5b610118610367565b6040516101259190614405565b60405180910390f35b61014860048036038101906101439190613a8d565b6103f5565b60405161015591906147a7565b60405180910390f35b610166610426565b60405161017391906143ea565b60405180910390f35b61019660048036038101906101919190613bbc565b61044c565b005b6101b260048036038101906101ad9190613bbc565b610967565b005b6101ce60048036038101906101c99190613a64565b6110ef565b6040516101db91906147a7565b60405180910390f35b6101fe60048036038101906101f99190613bbc565b611107565b005b61021a60048036038101906102159190613bbc565b6114dd565b6040516102329c9b9a999897969594939291906148c8565b60405180910390f35b61025560048036038101906102509190613c0e565b61169a565b005b61025f611919565b60405161026c91906147a7565b60405180910390f35b61027d61191f565b60405161028a9190614354565b60405180910390f35b6102ad60048036038101906102a89190613af2565b611945565b005b6102c960048036038101906102c49190613c4a565b611fa4565b6040516102d893929190614990565b60405180910390f35b6102e9611ff8565b005b61030560048036038101906103009190613a64565b61242f565b60405161031291906147a7565b60405180910390f35b61033560048036038101906103309190613c4a565b612447565b005b610351600480360381019061034c9190613a64565b613351565b60405161035e91906143cf565b60405180910390f35b6000805461037490614c93565b80601f01602080910402602001604051908101604052809291908181526020018280546103a090614c93565b80156103ed5780601f106103c2576101008083540402835291602001916103ed565b820191906000526020600020905b8154815290600101906020018083116103d057829003601f168201915b505050505081565b6009602052816000526040600020818154811061041157600080fd5b90600052602060002001600091509150505481565b600360009054906101000a900473ffffffffffffffffffffffffffffffffffffffff1681565b60008111801561045e57506002548111155b61049d576040517f08c379a000000000000000000000000000000000000000000000000000000000815260040161049490614667565b60405180910390fd5b60006004600083815260200190815260200160002060405180610180016040529081600082015481526020016001820180546104d890614c93565b80601f016020809104026020016040519081016040528092919081815260200182805461050490614c93565b80156105515780601f1061052657610100808354040283529160200191610551565b820191906000526020600020905b81548152906001019060200180831161053457829003601f168201915b5050505050815260200160028201548152602001600382015481526020016004820160009054906101000a900473ffffffffffffffffffffffffffffffffffffffff1673ffffffffffffffffffffffffffffffffffffffff1673ffffffffffffffffffffffffffffffffffffffff1681526020016005820160009054906101000a900473ffffffffffffffffffffffffffffffffffffffff1673ffffffffffffffffffffffffffffffffffffffff1673ffffffffffffffffffffffffffffffffffffffff16815260200160068201548152602001600782015481526020016008820154815260200160098201548152602001600a8201805461065290614c93565b80601f016020809104026020016040519081016040528092919081815260200182805461067e90614c93565b80156106cb5780601f106106a0576101008083540402835291602001916106cb565b820191906000526020600020905b8154815290600101906020018083116106ae57829003601f168201915b50505050508152602001600b820160009054906101000a900460ff1615151515815250509050600b6040516106ff90614315565b908152602001604051809103902060405161071a91906142bd565b6040518091039020816101400151805190602001201461076f576040517f08c379a000000000000000000000000000000000000000000000000000000000815260040161076690614727565b60405180910390fd5b806080015173ffffffffffffffffffffffffffffffffffffffff163373ffffffffffffffffffffffffffffffffffffffff1614806107dc57508060a0015173ffffffffffffffffffffffffffffffffffffffff163373ffffffffffffffffffffffffffffffffffffffff16145b61081b576040517f08c379a0000000000000000000000000000000000000000000000000000000008152600401610812906145c7565b60405180910390fd5b806040015160086000836080015173ffffffffffffffffffffffffffffffffffffffff1673ffffffffffffffffffffffffffffffffffffffff1681526020019081526020016000205461086e9190614b9f565b60086000836080015173ffffffffffffffffffffffffffffffffffffffff1673ffffffffffffffffffffffffffffffffffffffff1681526020019081526020016000208190555061096382600b6040516108c790614300565b908152602001604051809103902080546108e090614c93565b80601f016020809104026020016040519081016040528092919081815260200182805461090c90614c93565b80156109595780601f1061092e57610100808354040283529160200191610959565b820191906000526020600020905b81548152906001019060200180831161093c57829003601f168201915b5050505050613371565b5050565b6000811015801561097a57506002548111155b6109b9576040517f08c379a00000000000000000000000000000000000000000000000000000000081526004016109b090614667565b60405180910390fd5b60006004600083815260200190815260200160002060405180610180016040529081600082015481526020016001820180546109f490614c93565b80601f0160208091040260200160405190810160405280929190818152602001828054610a2090614c93565b8015610a6d5780601f10610a4257610100808354040283529160200191610a6d565b820191906000526020600020905b815481529060010190602001808311610a5057829003601f168201915b5050505050815260200160028201548152602001600382015481526020016004820160009054906101000a900473ffffffffffffffffffffffffffffffffffffffff1673ffffffffffffffffffffffffffffffffffffffff1673ffffffffffffffffffffffffffffffffffffffff1681526020016005820160009054906101000a900473ffffffffffffffffffffffffffffffffffffffff1673ffffffffffffffffffffffffffffffffffffffff1673ffffffffffffffffffffffffffffffffffffffff16815260200160068201548152602001600782015481526020016008820154815260200160098201548152602001600a82018054610b6e90614c93565b80601f0160208091040260200160405190810160405280929190818152602001828054610b9a90614c93565b8015610be75780601f10610bbc57610100808354040283529160200191610be7565b820191906000526020600020905b815481529060010190602001808311610bca57829003601f168201915b50505050508152602001600b820160009054906101000a900460ff1615151515815250509050600b604051610c1b90614315565b9081526020016040518091039020604051610c3691906142bd565b60405180910390208161014001518051906020012014610c8b576040517f08c379a0000000000000000000000000000000000000000000000000000000008152600401610c8290614747565b60405180910390fd5b428160e0015111610cd1576040517f08c379a0000000000000000000000000000000000000000000000000000000008152600401610cc890614687565b60405180910390fd5b80610160015115610d5357806080015173ffffffffffffffffffffffffffffffffffffffff163373ffffffffffffffffffffffffffffffffffffffff1614610d4e576040517f08c379a0000000000000000000000000000000000000000000000000000000008152600401610d45906144a7565b60405180910390fd5b610dc6565b8060a0015173ffffffffffffffffffffffffffffffffffffffff163373ffffffffffffffffffffffffffffffffffffffff1614610dc5576040517f08c379a0000000000000000000000000000000000000000000000000000000008152600401610dbc90614427565b60405180910390fd5b5b600360009054906101000a900473ffffffffffffffffffffffffffffffffffffffff1673ffffffffffffffffffffffffffffffffffffffff166370a0823182608001516040518263ffffffff1660e01b8152600401610e259190614354565b60206040518083038186803b158015610e3d57600080fd5b505afa158015610e51573d6000803e3d6000fd5b505050506040513d601f19601f82011682018060405250810190610e759190613be5565b816040015160076000846080015173ffffffffffffffffffffffffffffffffffffffff1673ffffffffffffffffffffffffffffffffffffffff16815260200190815260200160002054610ec89190614abe565b1115610f09576040517f08c379a0000000000000000000000000000000000000000000000000000000008152600401610f00906145a7565b60405180910390fd5b806040015160086000836080015173ffffffffffffffffffffffffffffffffffffffff1673ffffffffffffffffffffffffffffffffffffffff16815260200190815260200160002054610f5c9190614b9f565b60086000836080015173ffffffffffffffffffffffffffffffffffffffff1673ffffffffffffffffffffffffffffffffffffffff16815260200190815260200160002081905550806040015160076000836080015173ffffffffffffffffffffffffffffffffffffffff1673ffffffffffffffffffffffffffffffffffffffff16815260200190815260200160002054610ff69190614abe565b60076000836080015173ffffffffffffffffffffffffffffffffffffffff1673ffffffffffffffffffffffffffffffffffffffff168152602001908152602001600020819055506110eb82600b60405161104f906142eb565b9081526020016040518091039020805461106890614c93565b80601f016020809104026020016040519081016040528092919081815260200182805461109490614c93565b80156110e15780601f106110b6576101008083540402835291602001916110e1565b820191906000526020600020905b8154815290600101906020018083116110c457829003601f168201915b5050505050613371565b5050565b60086020528060005260406000206000915090505481565b60008111801561111957506002548111155b611158576040517f08c379a000000000000000000000000000000000000000000000000000000000815260040161114f90614667565b60405180910390fd5b600060046000838152602001908152602001600020604051806101800160405290816000820154815260200160018201805461119390614c93565b80601f01602080910402602001604051908101604052809291908181526020018280546111bf90614c93565b801561120c5780601f106111e15761010080835404028352916020019161120c565b820191906000526020600020905b8154815290600101906020018083116111ef57829003601f168201915b5050505050815260200160028201548152602001600382015481526020016004820160009054906101000a900473ffffffffffffffffffffffffffffffffffffffff1673ffffffffffffffffffffffffffffffffffffffff1673ffffffffffffffffffffffffffffffffffffffff1681526020016005820160009054906101000a900473ffffffffffffffffffffffffffffffffffffffff1673ffffffffffffffffffffffffffffffffffffffff1673ffffffffffffffffffffffffffffffffffffffff16815260200160068201548152602001600782015481526020016008820154815260200160098201548152602001600a8201805461130d90614c93565b80601f016020809104026020016040519081016040528092919081815260200182805461133990614c93565b80156113865780601f1061135b57610100808354040283529160200191611386565b820191906000526020600020905b81548152906001019060200180831161136957829003601f168201915b50505050508152602001600b820160009054906101000a900460ff16151515158152505090508060e0015142116113f2576040517f08c379a00000000000000000000000000000000000000000000000000000000081526004016113e990614787565b60405180910390fd5b600b604051611400906142eb565b908152602001604051809103902060405161141b91906142bd565b60405180910390208161014001518051906020012014806114775750600b6040516114459061433f565b908152602001604051809103902060405161146091906142bd565b604051809103902081610140015180519060200120145b6114b6576040517f08c379a00000000000000000000000000000000000000000000000000000000081526004016114ad90614707565b60405180910390fd5b6000816060015182604001516114cc9190614b9f565b90506114d88382612447565b505050565b600460205280600052604060002060009150905080600001549080600101805461150690614c93565b80601f016020809104026020016040519081016040528092919081815260200182805461153290614c93565b801561157f5780601f106115545761010080835404028352916020019161157f565b820191906000526020600020905b81548152906001019060200180831161156257829003601f168201915b5050505050908060020154908060030154908060040160009054906101000a900473ffffffffffffffffffffffffffffffffffffffff16908060050160009054906101000a900473ffffffffffffffffffffffffffffffffffffffff169080600601549080600701549080600801549080600901549080600a01805461160490614c93565b80601f016020809104026020016040519081016040528092919081815260200182805461163090614c93565b801561167d5780601f106116525761010080835404028352916020019161167d565b820191906000526020600020905b81548152906001019060200180831161166057829003601f168201915b50505050509080600b0160009054906101000a900460ff1690508c565b600160009054906101000a900473ffffffffffffffffffffffffffffffffffffffff1673ffffffffffffffffffffffffffffffffffffffff163373ffffffffffffffffffffffffffffffffffffffff161461172a576040517f08c379a0000000000000000000000000000000000000000000000000000000008152600401611721906146a7565b60405180910390fd5b6000821161176d576040517f08c379a000000000000000000000000000000000000000000000000000000000815260040161176490614627565b60405180910390fd5b6064600360009054906101000a900473ffffffffffffffffffffffffffffffffffffffff1673ffffffffffffffffffffffffffffffffffffffff166370a08231306040518263ffffffff1660e01b81526004016117ca9190614354565b60206040518083038186803b1580156117e257600080fd5b505afa1580156117f6573d6000803e3d6000fd5b505050506040513d601f19601f8201168201806040525081019061181a9190613be5565b6118249190614b14565b8210611865576040517f08c379a000000000000000000000000000000000000000000000000000000000815260040161185c90614527565b60405180910390fd5b600360009054906101000a900473ffffffffffffffffffffffffffffffffffffffff1673ffffffffffffffffffffffffffffffffffffffff1663a9059cbb82846040518363ffffffff1660e01b81526004016118c29291906143a6565b602060405180830381600087803b1580156118dc57600080fd5b505af11580156118f0573d6000803e3d6000fd5b505050506040513d601f19601f820116820180604052508101906119149190613ac9565b505050565b60025481565b600160009054906101000a900473ffffffffffffffffffffffffffffffffffffffff1681565b838510611987576040517f08c379a000000000000000000000000000000000000000000000000000000000815260040161197e90614487565b60405180910390fd5b600087116119ca576040517f08c379a00000000000000000000000000000000000000000000000000000000081526004016119c190614467565b60405180910390fd5b6000885111611a0e576040517f08c379a0000000000000000000000000000000000000000000000000000000008152600401611a0590614567565b60405180910390fd5b826002611a1b878761386b565b611a259190614b14565b1015611a66576040517f08c379a0000000000000000000000000000000000000000000000000000000008152600401611a5d90614447565b60405180910390fd5b60008210158015611a78575060648211155b611ab7576040517f08c379a0000000000000000000000000000000000000000000000000000000008152600401611aae906144c7565b60405180910390fd5b834210611af9576040517f08c379a0000000000000000000000000000000000000000000000000000000008152600401611af090614547565b60405180910390fd5b3373ffffffffffffffffffffffffffffffffffffffff168673ffffffffffffffffffffffffffffffffffffffff161415611b68576040517f08c379a0000000000000000000000000000000000000000000000000000000008152600401611b5f906145e7565b60405180910390fd5b6000808215611b7c57339050879150611b83565b8790503391505b60001515600660008473ffffffffffffffffffffffffffffffffffffffff1673ffffffffffffffffffffffffffffffffffffffff16815260200190815260200160002060009054906101000a900460ff16151514611c16576040517f08c379a0000000000000000000000000000000000000000000000000000000008152600401611c0d906144e7565b60405180910390fd5b88600860008473ffffffffffffffffffffffffffffffffffffffff1673ffffffffffffffffffffffffffffffffffffffff16815260200190815260200160002054611c619190614abe565b600860008473ffffffffffffffffffffffffffffffffffffffff1673ffffffffffffffffffffffffffffffffffffffff1681526020019081526020016000208190555060405180610180016040528060025481526020018b81526020018a8152602001600081526020018373ffffffffffffffffffffffffffffffffffffffff1681526020018273ffffffffffffffffffffffffffffffffffffffff168152602001888152602001878152602001868152602001858152602001600b604051611d2990614315565b90815260200160405180910390208054611d4290614c93565b80601f0160208091040260200160405190810160405280929190818152602001828054611d6e90614c93565b8015611dbb5780601f10611d9057610100808354040283529160200191611dbb565b820191906000526020600020905b815481529060010190602001808311611d9e57829003601f168201915b50505050508152602001841515815250600460006002548152602001908152602001600020600082015181600001556020820151816001019080519060200190611e069291906138cd565b50604082015181600201556060820151816003015560808201518160040160006101000a81548173ffffffffffffffffffffffffffffffffffffffff021916908373ffffffffffffffffffffffffffffffffffffffff16021790555060a08201518160050160006101000a81548173ffffffffffffffffffffffffffffffffffffffff021916908373ffffffffffffffffffffffffffffffffffffffff16021790555060c0820151816006015560e082015181600701556101008201518160080155610120820151816009015561014082015181600a019080519060200190611ef09291906138cd565b5061016082015181600b0160006101000a81548160ff0219169083151502179055509050507faf8d33bce3523f39faa27ad0dd8b9297951a7c816cd3d459ca294dc0aad3b2786002548b8b600086868d8d8d8d600b604051611f5190614315565b90815260200160405180910390208e604051611f789c9b9a99989796959493929190614800565b60405180910390a160026000815480929190611f9390614cf6565b919050555050505050505050505050565b60056020528160005260406000208181548110611fc057600080fd5b9060005260206000209060030201600091509150508060000154908060010154908060020160009054906101000a900460ff16905083565b600160009054906101000a900473ffffffffffffffffffffffffffffffffffffffff1673ffffffffffffffffffffffffffffffffffffffff163373ffffffffffffffffffffffffffffffffffffffff1614612088576040517f08c379a000000000000000000000000000000000000000000000000000000000815260040161207f906146c7565b60405180910390fd5b60005b60025481101561242c5760006004600083815260200190815260200160002060405180610180016040529081600082015481526020016001820180546120d090614c93565b80601f01602080910402602001604051908101604052809291908181526020018280546120fc90614c93565b80156121495780601f1061211e57610100808354040283529160200191612149565b820191906000526020600020905b81548152906001019060200180831161212c57829003601f168201915b5050505050815260200160028201548152602001600382015481526020016004820160009054906101000a900473ffffffffffffffffffffffffffffffffffffffff1673ffffffffffffffffffffffffffffffffffffffff1673ffffffffffffffffffffffffffffffffffffffff1681526020016005820160009054906101000a900473ffffffffffffffffffffffffffffffffffffffff1673ffffffffffffffffffffffffffffffffffffffff1673ffffffffffffffffffffffffffffffffffffffff16815260200160068201548152602001600782015481526020016008820154815260200160098201548152602001600a8201805461224a90614c93565b80601f016020809104026020016040519081016040528092919081815260200182805461227690614c93565b80156122c35780601f10612298576101008083540402835291602001916122c3565b820191906000526020600020905b8154815290600101906020018083116122a657829003601f168201915b50505050508152602001600b820160009054906101000a900460ff16151515158152505090508060e00151421180156123375750600b604051612305906142eb565b908152602001604051809103902060405161232091906142bd565b604051809103902081610140015180519060200120145b1561234a5761234582611107565b612418565b600b6040516123589061433f565b908152602001604051809103902060405161237391906142bd565b6040518091039020816101400151805190602001201415612417576124168260056000858152602001908152602001600020600160056000878152602001908152602001600020805490506123c89190614b9f565b815481106123ff577f4e487b7100000000000000000000000000000000000000000000000000000000600052603260045260246000fd5b906000526020600020906003020160010154612447565b5b5b50808061242490614cf6565b91505061208b565b50565b60076020528060005260406000206000915090505481565b60008211801561245957506002548211155b612498576040517f08c379a000000000000000000000000000000000000000000000000000000000815260040161248f90614667565b60405180910390fd5b600081116124db576040517f08c379a00000000000000000000000000000000000000000000000000000000081526004016124d290614467565b60405180910390fd5b600060046000848152602001908152602001600020604051806101800160405290816000820154815260200160018201805461251690614c93565b80601f016020809104026020016040519081016040528092919081815260200182805461254290614c93565b801561258f5780601f106125645761010080835404028352916020019161258f565b820191906000526020600020905b81548152906001019060200180831161257257829003601f168201915b5050505050815260200160028201548152602001600382015481526020016004820160009054906101000a900473ffffffffffffffffffffffffffffffffffffffff1673ffffffffffffffffffffffffffffffffffffffff1673ffffffffffffffffffffffffffffffffffffffff1681526020016005820160009054906101000a900473ffffffffffffffffffffffffffffffffffffffff1673ffffffffffffffffffffffffffffffffffffffff1673ffffffffffffffffffffffffffffffffffffffff16815260200160068201548152602001600782015481526020016008820154815260200160098201548152602001600a8201805461269090614c93565b80601f01602080910402602001604051908101604052809291908181526020018280546126bc90614c93565b80156127095780601f106126de57610100808354040283529160200191612709565b820191906000526020600020905b8154815290600101906020018083116126ec57829003601f168201915b50505050508152602001600b820160009054906101000a900460ff161515151581525050905060008282606001516127419190614abe565b9050816040015181111561278a576040517f08c379a000000000000000000000000000000000000000000000000000000000815260040161278190614767565b60405180910390fd5b600b604051612798906142eb565b90815260200160405180910390206040516127b391906142bd565b604051809103902082610140015180519060200120148061280f5750600b6040516127dd9061433f565b90815260200160405180910390206040516127f891906142bd565b604051809103902082610140015180519060200120145b61284e576040517f08c379a000000000000000000000000000000000000000000000000000000000815260040161284590614587565b60405180910390fd5b3373ffffffffffffffffffffffffffffffffffffffff168260a0015173ffffffffffffffffffffffffffffffffffffffff1614806128bb57503373ffffffffffffffffffffffffffffffffffffffff16826080015173ffffffffffffffffffffffffffffffffffffffff16145b8061291357503373ffffffffffffffffffffffffffffffffffffffff16600160009054906101000a900473ffffffffffffffffffffffffffffffffffffffff1673ffffffffffffffffffffffffffffffffffffffff16145b612952576040517f08c379a000000000000000000000000000000000000000000000000000000000815260040161294990614647565b60405180910390fd5b600042905061296a8360c0015184610100015161389c565b81116129ab576040517f08c379a00000000000000000000000000000000000000000000000000000000081526004016129a2906146e7565b60405180910390fd5b60008360a0015173ffffffffffffffffffffffffffffffffffffffff163373ffffffffffffffffffffffffffffffffffffffff161480156129ef57508360e0015182105b15612a845760008460c001518560e00151612a0a9190614b9f565b905060008560c0015184612a1e9190614b9f565b9050600082606483612a309190614b45565b612a3a9190614b14565b90506000606488610120015183612a519190614b45565b612a5b9190614b14565b90506064886040015182612a6f9190614b45565b612a799190614b14565b945050505050612a8c565b836040015190505b848460600151612a9c9190614abe565b811015612ade576040517f08c379a0000000000000000000000000000000000000000000000000000000008152600401612ad590614507565b60405180910390fd5b612ae6613953565b85600360009054906101000a900473ffffffffffffffffffffffffffffffffffffffff1673ffffffffffffffffffffffffffffffffffffffff166370a0823187608001516040518263ffffffff1660e01b8152600401612b469190614354565b60206040518083038186803b158015612b5e57600080fd5b505afa158015612b72573d6000803e3d6000fd5b505050506040513d601f19601f82011682018060405250810190612b969190613be5565b1015612ccb57600b604051612baa9061433f565b90815260200160405180910390208054612bc390614c93565b80601f0160208091040260200160405190810160405280929190818152602001828054612bef90614c93565b8015612c3c5780601f10612c1157610100808354040283529160200191612c3c565b820191906000526020600020905b815481529060010190602001808311612c1f57829003601f168201915b5050505050856101400181905250600160066000876080015173ffffffffffffffffffffffffffffffffffffffff1673ffffffffffffffffffffffffffffffffffffffff16815260200190815260200160002060006101000a81548160ff021916908315150217905550604051806060016040528084815260200187815260200160001515815250905061314b565b60066000866080015173ffffffffffffffffffffffffffffffffffffffff1673ffffffffffffffffffffffffffffffffffffffff16815260200190815260200160002060009054906101000a900460ff1615612e5e576000805b60096000886080015173ffffffffffffffffffffffffffffffffffffffff1673ffffffffffffffffffffffffffffffffffffffff16815260200190815260200160002080549050811015612df957808914158015612ddc5750600b604051612d8c9061433f565b9081526020016040518091039020604051612da791906142bd565b604051809103902060046000838152602001908152602001600020600a01604051612dd291906142bd565b6040518091039020145b15612de657600191505b8080612df190614cf6565b915050612d25565b5080612e5c57600060066000886080015173ffffffffffffffffffffffffffffffffffffffff1673ffffffffffffffffffffffffffffffffffffffff16815260200190815260200160002060006101000a81548160ff0219169083151502179055505b505b6040518060600160405280848152602001878152602001600115158152509050846040015160076000876080015173ffffffffffffffffffffffffffffffffffffffff1673ffffffffffffffffffffffffffffffffffffffff16815260200190815260200160002054612ed19190614abe565b60076000876080015173ffffffffffffffffffffffffffffffffffffffff1673ffffffffffffffffffffffffffffffffffffffff16815260200190815260200160002081905550600360009054906101000a900473ffffffffffffffffffffffffffffffffffffffff1673ffffffffffffffffffffffffffffffffffffffff166323b872dd86608001518760a00151896040518463ffffffff1660e01b8152600401612f7f9392919061436f565b602060405180830381600087803b158015612f9957600080fd5b505af1158015612fad573d6000803e3d6000fd5b505050506040513d601f19601f82011682018060405250810190612fd19190613ac9565b5083856060018181525050846040015184141561309b5761309687600b604051612ffa9061432a565b9081526020016040518091039020805461301390614c93565b80601f016020809104026020016040519081016040528092919081815260200182805461303f90614c93565b801561308c5780601f106130615761010080835404028352916020019161308c565b820191906000526020600020905b81548152906001019060200180831161306f57829003601f168201915b5050505050613371565b61314a565b61314987600b6040516130ad906142eb565b908152602001604051809103902080546130c690614c93565b80601f01602080910402602001604051908101604052809291908181526020018280546130f290614c93565b801561313f5780601f106131145761010080835404028352916020019161313f565b820191906000526020600020905b81548152906001019060200180831161312257829003601f168201915b5050505050613371565b5b5b60056000888152602001908152602001600020819080600181540180825580915050600190039060005260206000209060030201600090919091909150600082015181600001556020820151816001015560408201518160020160006101000a81548160ff021916908315150217905550505084600460008981526020019081526020016000206000820151816000015560208201518160010190805190602001906131f89291906138cd565b50604082015181600201556060820151816003015560808201518160040160006101000a81548173ffffffffffffffffffffffffffffffffffffffff021916908373ffffffffffffffffffffffffffffffffffffffff16021790555060a08201518160050160006101000a81548173ffffffffffffffffffffffffffffffffffffffff021916908373ffffffffffffffffffffffffffffffffffffffff16021790555060c0820151816006015560e082015181600701556101008201518160080155610120820151816009015561014082015181600a0190805190602001906132e29291906138cd565b5061016082015181600b0160006101000a81548160ff0219169083151502179055509050507f924340d7c102e2cee21286942e8c57f1aa00b6eed126d45563540731f3ee18b6838888846040015160405161334094939291906149c7565b60405180910390a150505050505050565b60066020528060005260406000206000915054906101000a900460ff1681565b60006004600084815260200190815260200160002060405180610180016040529081600082015481526020016001820180546133ac90614c93565b80601f01602080910402602001604051908101604052809291908181526020018280546133d890614c93565b80156134255780601f106133fa57610100808354040283529160200191613425565b820191906000526020600020905b81548152906001019060200180831161340857829003601f168201915b5050505050815260200160028201548152602001600382015481526020016004820160009054906101000a900473ffffffffffffffffffffffffffffffffffffffff1673ffffffffffffffffffffffffffffffffffffffff1673ffffffffffffffffffffffffffffffffffffffff1681526020016005820160009054906101000a900473ffffffffffffffffffffffffffffffffffffffff1673ffffffffffffffffffffffffffffffffffffffff1673ffffffffffffffffffffffffffffffffffffffff16815260200160068201548152602001600782015481526020016008820154815260200160098201548152602001600a8201805461352690614c93565b80601f016020809104026020016040519081016040528092919081815260200182805461355290614c93565b801561359f5780601f106135745761010080835404028352916020019161359f565b820191906000526020600020905b81548152906001019060200180831161358257829003601f168201915b50505050508152602001600b820160009054906101000a900460ff16151515158152505090506000600b836040516135d791906142d4565b908152602001604051809103902080546135f090614c93565b905011613632576040517f08c379a000000000000000000000000000000000000000000000000000000000815260040161362990614607565b60405180910390fd5b600b8260405161364291906142d4565b9081526020016040518091039020805461365b90614c93565b80601f016020809104026020016040519081016040528092919081815260200182805461368790614c93565b80156136d45780601f106136a9576101008083540402835291602001916136d4565b820191906000526020600020905b8154815290600101906020018083116136b757829003601f168201915b5050505050816101400181905250806004600085815260200190815260200160002060008201518160000155602082015181600101908051906020019061371c9291906138cd565b50604082015181600201556060820151816003015560808201518160040160006101000a81548173ffffffffffffffffffffffffffffffffffffffff021916908373ffffffffffffffffffffffffffffffffffffffff16021790555060a08201518160050160006101000a81548173ffffffffffffffffffffffffffffffffffffffff021916908373ffffffffffffffffffffffffffffffffffffffff16021790555060c0820151816006015560e082015181600701556101008201518160080155610120820151816009015561014082015181600a0190805190602001906138069291906138cd565b5061016082015181600b0160006101000a81548160ff0219169083151502179055509050507f11c14d31769b5bf1b6c53d008d48746e44cd58558ad11c2e075e2d1916aeb49b83338460405161385e939291906147c2565b60405180910390a1505050565b60008183111561387a57600080fd5b62015180838361388a9190614b9f565b6138949190614b14565b905092915050565b600062015180826138ad9190614b45565b836138b89190614abe565b9050828110156138c757600080fd5b92915050565b8280546138d990614c93565b90600052602060002090601f0160209004810192826138fb5760008555613942565b82601f1061391457805160ff1916838001178555613942565b82800160010185558215613942579182015b82811115613941578251825591602001919060010190613926565b5b50905061394f9190613976565b5090565b604051806060016040528060008152602001600081526020016000151581525090565b5b8082111561398f576000816000905550600101613977565b5090565b60006139a66139a184614a31565b614a0c565b9050828152602081018484840111156139be57600080fd5b6139c9848285614c51565b509392505050565b6000813590506139e0816158f9565b92915050565b6000813590506139f581615910565b92915050565b600081519050613a0a81615910565b92915050565b600082601f830112613a2157600080fd5b8135613a31848260208601613993565b91505092915050565b600081359050613a4981615927565b92915050565b600081519050613a5e81615927565b92915050565b600060208284031215613a7657600080fd5b6000613a84848285016139d1565b91505092915050565b60008060408385031215613aa057600080fd5b6000613aae858286016139d1565b9250506020613abf85828601613a3a565b9150509250929050565b600060208284031215613adb57600080fd5b6000613ae9848285016139fb565b91505092915050565b600080600080600080600080610100898b031215613b0f57600080fd5b600089013567ffffffffffffffff811115613b2957600080fd5b613b358b828c01613a10565b9850506020613b468b828c01613a3a565b9750506040613b578b828c016139d1565b9650506060613b688b828c01613a3a565b9550506080613b798b828c01613a3a565b94505060a0613b8a8b828c01613a3a565b93505060c0613b9b8b828c01613a3a565b92505060e0613bac8b828c016139e6565b9150509295985092959890939650565b600060208284031215613bce57600080fd5b6000613bdc84828501613a3a565b91505092915050565b600060208284031215613bf757600080fd5b6000613c0584828501613a4f565b91505092915050565b60008060408385031215613c2157600080fd5b6000613c2f85828601613a3a565b9250506020613c40858286016139d1565b9150509250929050565b60008060408385031215613c5d57600080fd5b6000613c6b85828601613a3a565b9250506020613c7c85828601613a3a565b9150509250929050565b613c8f81614bd3565b82525050565b613c9e81614be5565b82525050565b60008154613cb181614c93565b613cbb8186614a97565b94506001821660008114613cd65760018114613ce757613d1a565b60ff19831686528186019350613d1a565b613cf085614a62565b60005b83811015613d1257815481890152600182019150602081019050613cf3565b838801955050505b50505092915050565b613d2c81614c1b565b82525050565b613d3b81614c3f565b82525050565b6000613d4c82614a8c565b613d568185614aa2565b9350613d66818560208601614c60565b613d6f81614dfb565b840191505092915050565b6000613d8582614a8c565b613d8f8185614ab3565b9350613d9f818560208601614c60565b80840191505092915050565b60008154613db881614c93565b613dc28186614aa2565b94506001821660008114613ddd5760018114613def57613e22565b60ff1983168652602086019350613e22565b613df885614a77565b60005b83811015613e1a57815481890152600182019150602081019050613dfb565b808801955050505b50505092915050565b6000613e38604a83614aa2565b9150613e4382614e0c565b606082019050919050565b6000613e5b604483614aa2565b9150613e6682614e81565b606082019050919050565b6000613e7e602a83614aa2565b9150613e8982614ef6565b604082019050919050565b6000613ea1603283614aa2565b9150613eac82614f45565b604082019050919050565b6000613ec4604a83614aa2565b9150613ecf82614f94565b606082019050919050565b6000613ee7603b83614aa2565b9150613ef282615009565b604082019050919050565b6000613f0a603983614aa2565b9150613f1582615058565b604082019050919050565b6000613f2d604383614aa2565b9150613f38826150a7565b606082019050919050565b6000613f50603b83614aa2565b9150613f5b8261511c565b604082019050919050565b6000613f73602e83614aa2565b9150613f7e8261516b565b604082019050919050565b6000613f96600883614ab3565b9150613fa1826151ba565b600882019050919050565b6000613fb9602e83614aa2565b9150613fc4826151e3565b604082019050919050565b6000613fdc602a83614aa2565b9150613fe782615232565b604082019050919050565b6000613fff604183614aa2565b915061400a82615281565b606082019050919050565b6000614022604783614aa2565b915061402d826152f6565b606082019050919050565b6000614045601e83614aa2565b91506140508261536b565b602082019050919050565b6000614068600883614ab3565b915061407382615394565b600882019050919050565b600061408b601c83614aa2565b9150614096826153bd565b602082019050919050565b60006140ae602d83614aa2565b91506140b9826153e6565b604082019050919050565b60006140d1600c83614ab3565b91506140dc82615435565b600c82019050919050565b60006140f4604083614aa2565b91506140ff8261545e565b604082019050919050565b6000614117601d83614aa2565b9150614122826154ad565b602082019050919050565b600061413a602f83614aa2565b9150614145826154d6565b604082019050919050565b600061415d605083614aa2565b915061416882615525565b606082019050919050565b6000614180606883614aa2565b915061418b8261559a565b608082019050919050565b60006141a3605183614aa2565b91506141ae82615635565b606082019050919050565b60006141c6600983614ab3565b91506141d1826156aa565b600982019050919050565b60006141e9604483614aa2565b91506141f4826156d3565b606082019050919050565b600061420c603883614aa2565b915061421782615748565b604082019050919050565b600061422f603883614aa2565b915061423a82615797565b604082019050919050565b6000614252604a83614aa2565b915061425d826157e6565b606082019050919050565b6000614275604c83614aa2565b91506142808261585b565b606082019050919050565b6000614298600f83614ab3565b91506142a3826158d0565b600f82019050919050565b6142b781614c11565b82525050565b60006142c98284613ca4565b915081905092915050565b60006142e08284613d7a565b915081905092915050565b60006142f682613f89565b9150819050919050565b600061430b8261405b565b9150819050919050565b6000614320826140c4565b9150819050919050565b6000614335826141b9565b9150819050919050565b600061434a8261428b565b9150819050919050565b60006020820190506143696000830184613c86565b92915050565b60006060820190506143846000830186613c86565b6143916020830185613c86565b61439e60408301846142ae565b949350505050565b60006040820190506143bb6000830185613c86565b6143c860208301846142ae565b9392505050565b60006020820190506143e46000830184613c95565b92915050565b60006020820190506143ff6000830184613d23565b92915050565b6000602082019050818103600083015261441f8184613d41565b905092915050565b6000602082019050818103600083015261444081613e2b565b9050919050565b6000602082019050818103600083015261446081613e4e565b9050919050565b6000602082019050818103600083015261448081613e71565b9050919050565b600060208201905081810360008301526144a081613e94565b9050919050565b600060208201905081810360008301526144c081613eb7565b9050919050565b600060208201905081810360008301526144e081613eda565b9050919050565b6000602082019050818103600083015261450081613efd565b9050919050565b6000602082019050818103600083015261452081613f20565b9050919050565b6000602082019050818103600083015261454081613f43565b9050919050565b6000602082019050818103600083015261456081613f66565b9050919050565b6000602082019050818103600083015261458081613fac565b9050919050565b600060208201905081810360008301526145a081613fcf565b9050919050565b600060208201905081810360008301526145c081613ff2565b9050919050565b600060208201905081810360008301526145e081614015565b9050919050565b6000602082019050818103600083015261460081614038565b9050919050565b600060208201905081810360008301526146208161407e565b9050919050565b60006020820190508181036000830152614640816140a1565b9050919050565b60006020820190508181036000830152614660816140e7565b9050919050565b600060208201905081810360008301526146808161410a565b9050919050565b600060208201905081810360008301526146a08161412d565b9050919050565b600060208201905081810360008301526146c081614150565b9050919050565b600060208201905081810360008301526146e081614173565b9050919050565b6000602082019050818103600083015261470081614196565b9050919050565b60006020820190508181036000830152614720816141dc565b9050919050565b60006020820190508181036000830152614740816141ff565b9050919050565b6000602082019050818103600083015261476081614222565b9050919050565b6000602082019050818103600083015261478081614245565b9050919050565b600060208201905081810360008301526147a081614268565b9050919050565b60006020820190506147bc60008301846142ae565b92915050565b60006060820190506147d760008301866142ae565b6147e46020830185613c86565b81810360408301526147f68184613d41565b9050949350505050565b600061018082019050614816600083018f6142ae565b8181036020830152614828818e613d41565b9050614837604083018d6142ae565b614844606083018c613d32565b614851608083018b613c86565b61485e60a083018a613c86565b61486b60c08301896142ae565b61487860e08301886142ae565b6148866101008301876142ae565b6148946101208301866142ae565b8181036101408301526148a78185613dab565b90506148b7610160830184613c95565b9d9c50505050505050505050505050565b6000610180820190506148de600083018f6142ae565b81810360208301526148f0818e613d41565b90506148ff604083018d6142ae565b61490c606083018c6142ae565b614919608083018b613c86565b61492660a083018a613c86565b61493360c08301896142ae565b61494060e08301886142ae565b61494e6101008301876142ae565b61495c6101208301866142ae565b81810361014083015261496f8185613d41565b905061497f610160830184613c95565b9d9c50505050505050505050505050565b60006060820190506149a560008301866142ae565b6149b260208301856142ae565b6149bf6040830184613c95565b949350505050565b60006080820190506149dc60008301876142ae565b6149e960208301866142ae565b6149f660408301856142ae565b614a036060830184613c95565b95945050505050565b6000614a16614a27565b9050614a228282614cc5565b919050565b6000604051905090565b600067ffffffffffffffff821115614a4c57614a4b614dcc565b5b614a5582614dfb565b9050602081019050919050565b60008190508160005260206000209050919050565b60008190508160005260206000209050919050565b600081519050919050565b600081905092915050565b600082825260208201905092915050565b600081905092915050565b6000614ac982614c11565b9150614ad483614c11565b9250827fffffffffffffffffffffffffffffffffffffffffffffffffffffffffffffffff03821115614b0957614b08614d3f565b5b828201905092915050565b6000614b1f82614c11565b9150614b2a83614c11565b925082614b3a57614b39614d6e565b5b828204905092915050565b6000614b5082614c11565b9150614b5b83614c11565b9250817fffffffffffffffffffffffffffffffffffffffffffffffffffffffffffffffff0483118215151615614b9457614b93614d3f565b5b828202905092915050565b6000614baa82614c11565b9150614bb583614c11565b925082821015614bc857614bc7614d3f565b5b828203905092915050565b6000614bde82614bf1565b9050919050565b60008115159050919050565b600073ffffffffffffffffffffffffffffffffffffffff82169050919050565b6000819050919050565b6000614c2682614c2d565b9050919050565b6000614c3882614bf1565b9050919050565b6000614c4a82614c11565b9050919050565b82818337600083830152505050565b60005b83811015614c7e578082015181840152602081019050614c63565b83811115614c8d576000848401525b50505050565b60006002820490506001821680614cab57607f821691505b60208210811415614cbf57614cbe614d9d565b5b50919050565b614cce82614dfb565b810181811067ffffffffffffffff82111715614ced57614cec614dcc565b5b80604052505050565b6000614d0182614c11565b91507fffffffffffffffffffffffffffffffffffffffffffffffffffffffffffffffff821415614d3457614d33614d3f565b5b600182019050919050565b7f4e487b7100000000000000000000000000000000000000000000000000000000600052601160045260246000fd5b7f4e487b7100000000000000000000000000000000000000000000000000000000600052601260045260246000fd5b7f4e487b7100000000000000000000000000000000000000000000000000000000600052602260045260246000fd5b7f4e487b7100000000000000000000000000000000000000000000000000000000600052604160045260246000fd5b6000601f19601f8301169050919050565b7f53696e63652074686520636f6e7472616374207761732063726561746564206260008201527f79207468652062757965722c206f6e6c79207468652073656c6c65722063616e60208201527f2061636365707420697400000000000000000000000000000000000000000000604082015250565b7f54686520636f6e7472616374206d75737420616c6c6f77207472616e7361637460008201527f696f6e73206265666f72652068616c66207468652074696d652068617320706160208201527f7373656400000000000000000000000000000000000000000000000000000000604082015250565b7f416d6f756e7420746f20506179206d757374206265206d6f7265207468616e2060008201527f30204350546f6b656e7300000000000000000000000000000000000000000000602082015250565b7f546865205061796d656e7420436f6e74726163742063616e6e6f742066696e6960008201527f7368206265666f7265207374617274696e670000000000000000000000000000602082015250565b7f53696e63652074686520636f6e7472616374207761732063726561746564206260008201527f79207468652073656c6c65722c206f6e6c79207468652062757965722063616e60208201527f2061636365707420697400000000000000000000000000000000000000000000604082015250565b7f546865207061796d656e74207370656564206f662074686520636f6e7472616360008201527f74206d757374206265206265747765656e203020616e64203130300000000000602082015250565b7f5468652062757965722069732063757272656e746c7920626c6f636b6420666f60008201527f7220686176696e67206d6973736564207061796d656e74732e00000000000000602082015250565b7f54686520436f6e74726163742063616e6e6f742065786365656420746865206d60008201527f6178696d756d20616d6f756e7420616c6c6f776564206279207468652073706560208201527f65642e0000000000000000000000000000000000000000000000000000000000604082015250565b7f416d6f756e74205265717565737465642063616e6e6f74206265206c6172676560008201527f72207468616e203125206f662063757272656e7420737570706c790000000000602082015250565b7f546865205061796d656e7420436f6e74726163742043616e6e6f74206265206160008201527f6c72656164792065787069726564000000000000000000000000000000000000602082015250565b7f4143434550544544000000000000000000000000000000000000000000000000600082015250565b7f546865206e616d65206f6620746865205061796d656e7420436f6e747261637460008201527f206d7573742062652076616c6964000000000000000000000000000000000000602082015250565b7f54686520636f6e747261637420737461747573206d75737420616c6c6f77206660008201527f6f72207061796d656e7400000000000000000000000000000000000000000000602082015250565b7f546865204275796572206d757374206861766520656e6f7567682066756e647360008201527f20666f722074686520636f6e747261637420746f20626520616363657074656460208201527f2e00000000000000000000000000000000000000000000000000000000000000604082015250565b7f4f6e6c7920746865206275796572206f722073656c6c65722063616e2072656a60008201527f656374206120636f6e747261637420286569746865722070617274696369706160208201527f6e742063616e2900000000000000000000000000000000000000000000000000604082015250565b7f5468652062757965722063616e6e6f74206265207468652073656c6c65720000600082015250565b7f52454a4543544544000000000000000000000000000000000000000000000000600082015250565b7f546865206e657720737461747573206d7573742062652076616c696400000000600082015250565b7f416d6f756e7420526571756573746564204d757374206265206d6f726520746860008201527f616e2030204350546f6b656e7300000000000000000000000000000000000000602082015250565b7f4e4f545f52455649455745440000000000000000000000000000000000000000600082015250565b7f4f6e6c792042757965722c2053656c6c6572206f7220436f6c5061792063616e60008201527f206d616b65207472616e73616374696f6e7320696e206120636f6e7472616374602082015250565b7f54686520636f6e7472616374204944206d7573742062652076616c6964000000600082015250565b7f4120636f6e74726163742063616e6e6f7420626520616363657074656420616660008201527f7465722065787069727920646174650000000000000000000000000000000000602082015250565b7f5468652063616c6c6572206d75737420626520436f6c5061792c20746865792060008201527f636f6e74726f6c207768656e206e6577206163636f756e74732061726520697360208201527f737565642074686520746f6b656e732e00000000000000000000000000000000604082015250565b7f5468652063616c6c6572206d75737420626520436f6c5061792c20746865792060008201527f636f6e74726f6c207468652073637269707420666f7220646574656374696e6760208201527f206578706972656420636f6e74726163747320616e64206c697175696461746960408201527f6e67207468656d2e000000000000000000000000000000000000000000000000606082015250565b7f456e6f7567682064617973206861766520746f2068617665207061737420696e60008201527f206f7264657220666f722074686520636f6e747261637420746f20616c6c6f7760208201527f20666f72207472616e73616374696f6e73000000000000000000000000000000604082015250565b7f46554c46494c4c45440000000000000000000000000000000000000000000000600082015250565b7f54686520436f6e7472616374206d75737420626520696e20616363657074656460008201527f206f72206d697373696e67207061796d656e742073746174757320746f20657860208201527f7069726500000000000000000000000000000000000000000000000000000000604082015250565b7f54686520436f6e7472616374206d75737420626520696e206e6f74207265766960008201527f657765642073746174757320746f2072656a6563742069740000000000000000602082015250565b7f54686520436f6e7472616374206d75737420626520696e206e6f74207265766960008201527f657765642073746174757320746f206163636570742069740000000000000000602082015250565b7f546f74616c20616d6f756e742070616964206d757374206e6f74206265206d6f60008201527f7265207468616e2074686520746f74616c2076616c7565206f66205061796d6560208201527f6e74436f6e747261637400000000000000000000000000000000000000000000604082015250565b7f54686520636f6e7472616374206578706972792064617465206d75737420626560008201527f20696e20746865207061737420696e206f7264657220746f206578706972652060208201527f74686520636f6e74726163740000000000000000000000000000000000000000604082015250565b7f4d495353494e475f5041594d454e540000000000000000000000000000000000600082015250565b61590281614bd3565b811461590d57600080fd5b50565b61591981614be5565b811461592457600080fd5b50565b61593081614c11565b811461593b57600080fd5b5056fea2646970667358221220614bc294ce663ae6500085cec01ebf83c46f3c36564448b90c1b4ed355d30a5764736f6c63430008040033",
  "immutableReferences": {},
  "source": "// SPDX-License-Identifier: MIT\npragma solidity 0.8.4;\n\nimport \"./CPToken.sol\" as CPToken;\nimport \"./DateTimeLibrary.sol\" as DateTimeLibrary;\n\ncontract ColPay {\n    string public name;\n    address public owner;\n    uint public contractCount;\n    CPToken.CPToken public cpToken;\n\n    //address[] private participants;\n    mapping(uint => PaymentContract) public paymentContracts;\n    mapping(uint => Transaction[]) public transactionLists;\n    mapping(address => bool) public isBlocked;\n\n    mapping(address => uint) public incurredDebt;\n    mapping(address => uint) public potentialDebt;\n    mapping(address => uint[]) public paymentContractsHeldPerAddress;\n\n    string[] private CONTRACT_STATUS_TYPES = ['NOT_REVIEWED', 'REJECTED', 'ACCEPTED', 'FULFILLED', 'MISSING_PAYMENT'];\n    mapping(string => string) private CONTRACT_STATUS;\n\n    struct Transaction {\n        uint256 date;\n        uint value;\n        bool successful;\n    }\n\n    struct PaymentContract {\n        uint id;\n        string name;\n        uint totalAmount;\n        uint amountPaid;\n        address buyer;\n        address seller;\n        uint256 startDate;\n        uint256 expiryDate;\n        uint daysToOpen;\n        uint speed;\n        string contractStatus;\n        bool createdBySeller;\n    }\n\n    event PaymentContractCreated (\n        uint id,\n        string name,\n        uint totalAmount,\n        uint amountPaid,\n        address buyer,\n        address seller,\n        uint256 startDate,\n        uint256 expiryDate,\n        uint daysToOpen,\n        uint speed,\n        string contractStatus,\n        bool createdBySeller\n    );\n\n    event PaymentContractStatusUpdate (\n        uint id,\n        address statusUpdatedBy,\n        string contractStatus\n    );\n\n    event TransactionMade (\n        uint256 date,\n        uint contractID,\n        uint value,\n        bool successful\n    );\n\n    constructor(CPToken.CPToken _cpToken) {\n        name = \"Payment Fragmentation Service\";\n        cpToken = _cpToken;\n        owner = msg.sender;\n        contractCount = 0;\n\n        for (uint i=0; i<CONTRACT_STATUS_TYPES.length; i++) {\n            CONTRACT_STATUS[CONTRACT_STATUS_TYPES[i]] = CONTRACT_STATUS_TYPES[i];\n        }\n    }\n\n    // Issuing Tokens\n    // This function allows the prototype to work, it issues new accounts 100 cpTokens to use in contracts.\n    // In actual product, ColPay will require users to prove their ability to pay for contracts with banking information.\n    function issueTokens(uint256 _value, address _receipient) public {\n        // Check for valid requests\n        require(msg.sender == owner, \"The caller must be ColPay, they control when new accounts are issued the tokens.\");\n        require(_value > 0, \"Amount Requested Must be more than 0 CPTokens\");\n        require(_value < cpToken.balanceOf(address(this))/100, \"Amount Requested cannot be larger than 1% of current supply\");\n        //require(cpToken.balanceOf(msg.sender) == 0 && paymentContractsHeldPerAddress[msg.sender].length == 0, \"This function only issues CPTokens to new accounts\");\n\n        cpToken.transfer(_receipient, _value);\n    }\n/*\n    function addParticipant (address _newParticipant) public {\n        bool exists = false;\n        for (uint i = 0; i < participants.length; i++){\n            if (participants[i] == _newParticipant){\n                exists = true;\n            } \n        }\n        if (!exists){\n            participants.push(_newParticipant);\n        }\n    }\n\n    function getParticipants () public view returns (address[] memory addresses){\n        return participants;\n    }\n\n    function issueTokens() public {\n        // Only owner can call this function\n        require(msg.sender == owner, \"The caller must be ColPay, they control when new accounts are issued the tokens.\");\n\n        // Issue tokens to all empty Accounts\n        for (uint i=0; i<participants.length; i++) {\n            address recipient = participants[i];\n            uint balance = cpToken.balanceOf(recipient);\n            if(balance == 0) {\n                cpToken.transfer(recipient, 100000000000000000000);\n            }\n        }\n    }\n*/\n    // Create Payment Contract\n    function createPaymentContract (string memory _name, uint _totalAmount, address _recipient, uint256 _startDate, uint256 _expiryDate, uint _daysToOpen, uint _speed, bool _createdBySeller) public {\n        // Check for valid requests\n        require(_startDate < _expiryDate, \"The Payment Contract cannot finish before starting\");\n        require(_totalAmount > 0, \"Amount to Pay must be more than 0 CPTokens\");\n        require(bytes(_name).length > 0, \"The name of the Payment Contract must be valid\");\n        require(DateTimeLibrary.DateTimeLibrary.diffDays(_startDate, _expiryDate) / 2 >= _daysToOpen, \"The contract must allow transactions before half the time has passed\");\n        require(_speed >= 0 && _speed <= 100, \"The payment speed of the contract must be between 0 and 100\");\n        require(block.timestamp < _expiryDate, \"The Payment Contract Cannot be already expired\");\n        require(_recipient != msg.sender, \"The buyer cannot be the seller\");\n\n        // Create the Contract\n        address buyer;\n        address seller;\n        if (_createdBySeller){\n            seller = msg.sender;\n            buyer = _recipient;\n        } else {\n            seller = _recipient;\n            buyer = msg.sender;\n        }\n        require(isBlocked[buyer] == false, \"The buyer is currently blockd for having missed payments.\");\n\n        // Decided that this was a bad idea, since it would be possible to block someone with less funds by generating contracts at them faster that they can reject them.\n        // require(potentialDebt[buyer] + incurredDebt[buyer] + _totalAmount <= cpToken.balanceOf(buyer), \"The buyer must have enough cpTokens to pay this contract and others\");\n\n        // Update the buyers potential debt\n        potentialDebt[buyer] = potentialDebt[buyer] + _totalAmount;\n\n        paymentContracts[contractCount] = PaymentContract(contractCount, _name, _totalAmount, 0, buyer, seller, _startDate, _expiryDate, _daysToOpen, _speed, CONTRACT_STATUS['NOT_REVIEWED'], _createdBySeller);\n\n        // Trigger Event\n        emit PaymentContractCreated(contractCount, _name, _totalAmount, 0, buyer, seller, _startDate, _expiryDate, _daysToOpen, _speed, CONTRACT_STATUS['NOT_REVIEWED'], _createdBySeller);\n\n        // Increment contractCount\n        contractCount ++;\n    }\n\n    // Accept a Payment Contract\n    function acceptPaymentContract(uint _contractID) public {\n        // Check for valid requests\n        require(_contractID >= 0 && _contractID <= contractCount, \"The contract ID must be valid\");\n\n        PaymentContract memory _contract = paymentContracts[_contractID];\n        require(keccak256(bytes(_contract.contractStatus)) == keccak256(bytes(CONTRACT_STATUS['NOT_REVIEWED'])), \"The Contract must be in not reviewed status to accept it\");\n        require(_contract.expiryDate > block.timestamp, \"A contract cannot be accepted after expiry date\");\n        if(_contract.createdBySeller){\n            require (msg.sender == _contract.buyer, \"Since the contract was created by the seller, only the buyer can accept it\");\n        } else {\n            require (msg.sender == _contract.seller, \"Since the contract was created by the buyer, only the seller can accept it\");\n        }\n\n        require(incurredDebt[_contract.buyer] + _contract.totalAmount <= cpToken.balanceOf(_contract.buyer), \"The Buyer must have enough funds for the contract to be accepted.\");\n\n        // Potential debt turns into incurred debt\n        potentialDebt[_contract.buyer] = potentialDebt[_contract.buyer] - _contract.totalAmount;\n        incurredDebt[_contract.buyer] = incurredDebt[_contract.buyer] + _contract.totalAmount;\n\n        updatePaymentContractStatus(_contractID, CONTRACT_STATUS['ACCEPTED']);\n    }\n\n    // Reject a Payment Contract\n    function rejectPaymentContract(uint _contractID) public {\n        // Check for valid requests\n        require(_contractID > 0 && _contractID <= contractCount, \"The contract ID must be valid\");\n\n        PaymentContract memory _contract = paymentContracts[_contractID];\n        require(keccak256(bytes(_contract.contractStatus)) == keccak256(bytes(CONTRACT_STATUS['NOT_REVIEWED'])), \"The Contract must be in not reviewed status to reject it\");\n\n        require(msg.sender == _contract.buyer || msg.sender == _contract.seller, \"Only the buyer or seller can reject a contract (either participant can)\");\n\n        // Update the buyers potential debt\n        potentialDebt[_contract.buyer] = potentialDebt[_contract.buyer] - _contract.totalAmount;\n\n        updatePaymentContractStatus(_contractID, CONTRACT_STATUS['REJECTED']);\n    }\n\n    // Finalize a Payment Contract\n    function expirePaymentContract(uint _contractID) public {\n        // Check for valid requests\n        require(_contractID > 0 && _contractID <= contractCount, \"The contract ID must be valid\");\n\n        PaymentContract memory _contract = paymentContracts[_contractID];\n        require(block.timestamp > _contract.expiryDate, \"The contract expiry date must be in the past in order to expire the contract\");\n        require(\n            keccak256(bytes(_contract.contractStatus)) == keccak256(bytes(CONTRACT_STATUS['ACCEPTED']))\n            || keccak256(bytes(_contract.contractStatus)) == keccak256(bytes(CONTRACT_STATUS['MISSING_PAYMENT'])), \"The Contract must be in accepted or missing payment status to expire\");\n        uint remainingValue = _contract.totalAmount - _contract.amountPaid;\n\n        makeTransaction(_contractID, remainingValue);\n    }\n\n    function updatePaymentContractStatus(uint _contractID, string memory _newStatus) private {\n        // Check for valid requests\n        PaymentContract memory _contract = paymentContracts[_contractID];\n\n        require(bytes(CONTRACT_STATUS[_newStatus]).length > 0 , \"The new status must be valid\");\n\n        // Change contract agreement status\n        _contract.contractStatus = CONTRACT_STATUS[_newStatus];\n        paymentContracts[_contractID] = _contract;\n\n        // Trigger Event\n        emit PaymentContractStatusUpdate(_contractID, msg.sender, _newStatus);\n\n    }\n\n    // Script to be daily executed to check for contracts that have expired or have missed a payment\n    function checkForRequiredPayments() public {\n        // Only owner can call this function\n        require(msg.sender == owner, \"The caller must be ColPay, they control the script for detecting expired contracts and liquidating them.\");\n\n        // Check for expired contracts\n        for (uint i=0; i<contractCount; i++) {\n            PaymentContract memory _contract = paymentContracts[i];\n            if( block.timestamp > _contract.expiryDate \n                && (keccak256(bytes(_contract.contractStatus)) == keccak256(bytes(CONTRACT_STATUS['ACCEPTED'])))) {\n                expirePaymentContract(i);\n            } else if (keccak256(bytes(_contract.contractStatus)) == keccak256(bytes(CONTRACT_STATUS['MISSING_PAYMENT']))){\n                makeTransaction(i, transactionLists[i][transactionLists[i].length -1].value);\n            }\n        }\n    }\n\n    // Make a Transaction\n    // will move value from buyer to seller & update the remaining amount to contract \n    // this function should use from statement in metadata when called\n    function makeTransaction (uint _contractID, uint _value) public{ \n        // Check for valid requests\n        require(_contractID > 0 && _contractID <= contractCount, \"The contract ID must be valid\");\n        require(_value > 0, \"Amount to Pay must be more than 0 CPTokens\");\n\n        PaymentContract memory _contract = paymentContracts[_contractID];\n        uint totalPayment = _contract.amountPaid + _value;\n        require(totalPayment <= _contract.totalAmount, \"Total amount paid must not be more than the total value of PaymentContract\");\n        require(\n                keccak256(bytes(_contract.contractStatus)) == keccak256(bytes(CONTRACT_STATUS['ACCEPTED'])) \n                || keccak256(bytes(_contract.contractStatus)) == keccak256(bytes(CONTRACT_STATUS['MISSING_PAYMENT'])), \n                \"The contract status must allow for payment\");\n        require(_contract.seller == msg.sender || _contract.buyer == msg.sender || owner == msg.sender, \"Only Buyer, Seller or ColPay can make transactions in a contract\");\n        uint currentTime = block.timestamp;\n        require(currentTime > DateTimeLibrary.DateTimeLibrary.addDays(_contract.startDate, _contract.daysToOpen), \"Enough days have to have past in order for the contract to allow for transactions\");\n\n        uint maxTotalCurrentTotalPayment;\n\n        if(msg.sender == _contract.seller && currentTime < _contract.expiryDate){\n           \n            uint totalContractTime = _contract.expiryDate - _contract.startDate;\n            uint elapsedContractTime = currentTime - _contract.startDate;\n            uint percentageOfElapsedTime = (elapsedContractTime * 100) / totalContractTime;\n            uint percentagePayable = (percentageOfElapsedTime * _contract.speed)/ 100;\n            maxTotalCurrentTotalPayment = (percentagePayable * _contract.totalAmount) / 100;\n            \n        } else {\n            maxTotalCurrentTotalPayment = _contract.totalAmount;\n        }\n\n        require(maxTotalCurrentTotalPayment >= _contract.amountPaid + _value, \"The Contract cannot exceed the maximum amount allowed by the speed.\");\n\n        Transaction memory _transaction;\n        \n        if (cpToken.balanceOf(_contract.buyer) < _value){\n\n            _contract.contractStatus = CONTRACT_STATUS['MISSING_PAYMENT'];\n            isBlocked[_contract.buyer] = true;\n            _transaction = Transaction(currentTime, _value, false);\n\n        } else {\n\n            if(isBlocked[_contract.buyer]){\n\n                bool hasOtherMissingPayments = false;\n\n                for (uint i = 0; i < paymentContractsHeldPerAddress[_contract.buyer].length; i++){\n                    if(_contractID != i \n                      && keccak256(bytes(paymentContracts[i].contractStatus)) == keccak256(bytes(CONTRACT_STATUS['MISSING_PAYMENT']))\n                      ){\n                          hasOtherMissingPayments = true;\n                      }\n                }\n                if (!hasOtherMissingPayments) {\n                    isBlocked[_contract.buyer] = false;\n                }       \n            }\n\n            _transaction = Transaction(currentTime, _value, true);\n\n            // Update the buyers total debt\n            incurredDebt[_contract.buyer] = incurredDebt[_contract.buyer] + _contract.totalAmount;\n\n            // Make transaction of cpTokens\n            cpToken.transferFrom(_contract.buyer, _contract.seller, _value);\n\n            // Update the amount of the contract paid\n            _contract.amountPaid = totalPayment;\n\n            // Update contract status\n            if(totalPayment == _contract.totalAmount){\n                updatePaymentContractStatus(_contractID, CONTRACT_STATUS['FULFILLED']);\n            } else {\n                updatePaymentContractStatus(_contractID, CONTRACT_STATUS['ACCEPTED']);\n            }\n        }\n\n        // Add Failed transaction to List of all transactions for that contract\n        transactionLists[_contractID].push(_transaction);\n\n        paymentContracts[_contractID] = _contract;\n         \n        emit TransactionMade(currentTime, _contractID, _value, _transaction.successful);\n\n    }\n\n}",
  "sourcePath": "/Users/coverwallet/Documents/Personal/Blockchain/ColPay/src/contracts/ColPay.sol",
  "compiler": {
    "name": "solc",
    "version": "0.8.4+commit.c7e474f2.Emscripten.clang"
  },
  "schemaVersion": "3.4.1",
  "updatedAt": "2021-05-16T19:29:02.930Z",
  "networkType": "ethereum",
  "devdoc": {
    "kind": "dev",
    "methods": {},
    "version": 1
  },
  "userdoc": {
    "kind": "user",
    "methods": {},
    "version": 1
  }
}