{
  "contractName": "ColPay",
  "abi": [
    {
      "inputs": [
        {
          "internalType": "contract CPToken",
          "name": "_cpToken",
          "type": "address"
        }
      ],
      "stateMutability": "nonpayable",
      "type": "constructor"
    },
    {
      "anonymous": false,
      "inputs": [
        {
          "indexed": false,
          "internalType": "uint256",
          "name": "id",
          "type": "uint256"
        },
        {
          "indexed": false,
          "internalType": "string",
          "name": "name",
          "type": "string"
        },
        {
          "indexed": false,
          "internalType": "uint256",
          "name": "totalAmount",
          "type": "uint256"
        },
        {
          "indexed": false,
          "internalType": "uint256",
          "name": "amountPaid",
          "type": "uint256"
        },
        {
          "indexed": false,
          "internalType": "address",
          "name": "buyer",
          "type": "address"
        },
        {
          "indexed": false,
          "internalType": "address payable",
          "name": "seller",
          "type": "address"
        },
        {
          "indexed": false,
          "internalType": "uint256",
          "name": "startDate",
          "type": "uint256"
        },
        {
          "indexed": false,
          "internalType": "uint256",
          "name": "expiryDate",
          "type": "uint256"
        },
        {
          "indexed": false,
          "internalType": "uint256",
          "name": "daysToOpen",
          "type": "uint256"
        },
        {
          "indexed": false,
          "internalType": "uint256",
          "name": "speed",
          "type": "uint256"
        },
        {
          "indexed": false,
          "internalType": "bool",
          "name": "completed",
          "type": "bool"
        },
        {
          "indexed": false,
          "internalType": "bool",
          "name": "agreementStatus",
          "type": "bool"
        }
      ],
      "name": "PaymentContractCreated",
      "type": "event"
    },
    {
      "inputs": [],
      "name": "contractCount",
      "outputs": [
        {
          "internalType": "uint256",
          "name": "",
          "type": "uint256"
        }
      ],
      "stateMutability": "view",
      "type": "function",
      "constant": true
    },
    {
      "inputs": [],
      "name": "cpToken",
      "outputs": [
        {
          "internalType": "contract CPToken",
          "name": "",
          "type": "address"
        }
      ],
      "stateMutability": "view",
      "type": "function",
      "constant": true
    },
    {
      "inputs": [],
      "name": "name",
      "outputs": [
        {
          "internalType": "string",
          "name": "",
          "type": "string"
        }
      ],
      "stateMutability": "view",
      "type": "function",
      "constant": true
    },
    {
      "inputs": [],
      "name": "owner",
      "outputs": [
        {
          "internalType": "address",
          "name": "",
          "type": "address"
        }
      ],
      "stateMutability": "view",
      "type": "function",
      "constant": true
    },
    {
      "inputs": [
        {
          "internalType": "uint256",
          "name": "",
          "type": "uint256"
        }
      ],
      "name": "paymentContracts",
      "outputs": [
        {
          "internalType": "uint256",
          "name": "id",
          "type": "uint256"
        },
        {
          "internalType": "string",
          "name": "name",
          "type": "string"
        },
        {
          "internalType": "uint256",
          "name": "totalAmount",
          "type": "uint256"
        },
        {
          "internalType": "uint256",
          "name": "amountPaid",
          "type": "uint256"
        },
        {
          "internalType": "address",
          "name": "buyer",
          "type": "address"
        },
        {
          "internalType": "address payable",
          "name": "seller",
          "type": "address"
        },
        {
          "internalType": "uint256",
          "name": "startDate",
          "type": "uint256"
        },
        {
          "internalType": "uint256",
          "name": "expiryDate",
          "type": "uint256"
        },
        {
          "internalType": "uint256",
          "name": "daysToOpen",
          "type": "uint256"
        },
        {
          "internalType": "uint256",
          "name": "speed",
          "type": "uint256"
        },
        {
          "internalType": "bool",
          "name": "completed",
          "type": "bool"
        },
        {
          "internalType": "bool",
          "name": "agreementStatus",
          "type": "bool"
        }
      ],
      "stateMutability": "view",
      "type": "function",
      "constant": true
    },
    {
      "inputs": [
        {
          "internalType": "address",
          "name": "",
          "type": "address"
        },
        {
          "internalType": "uint256",
          "name": "",
          "type": "uint256"
        }
      ],
      "name": "paymentContractsHeldPerAddress",
      "outputs": [
        {
          "internalType": "uint256",
          "name": "",
          "type": "uint256"
        }
      ],
      "stateMutability": "view",
      "type": "function",
      "constant": true
    },
    {
      "inputs": [
        {
          "internalType": "uint256",
          "name": "",
          "type": "uint256"
        },
        {
          "internalType": "uint256",
          "name": "",
          "type": "uint256"
        }
      ],
      "name": "transactionLists",
      "outputs": [
        {
          "internalType": "uint256",
          "name": "date",
          "type": "uint256"
        },
        {
          "internalType": "uint256",
          "name": "value",
          "type": "uint256"
        }
      ],
      "stateMutability": "view",
      "type": "function",
      "constant": true
    },
    {
      "inputs": [
        {
          "internalType": "uint256",
          "name": "_value",
          "type": "uint256"
        }
      ],
      "name": "issueTokens",
      "outputs": [],
      "stateMutability": "nonpayable",
      "type": "function"
    },
    {
      "inputs": [
        {
          "internalType": "string",
          "name": "_name",
          "type": "string"
        },
        {
          "internalType": "uint256",
          "name": "_totalAmount",
          "type": "uint256"
        },
        {
          "internalType": "uint256",
          "name": "_startDate",
          "type": "uint256"
        },
        {
          "internalType": "uint256",
          "name": "_expiryDate",
          "type": "uint256"
        },
        {
          "internalType": "uint256",
          "name": "_daysToOpen",
          "type": "uint256"
        },
        {
          "internalType": "uint256",
          "name": "_speed",
          "type": "uint256"
        },
        {
          "internalType": "bool",
          "name": "_isSeller",
          "type": "bool"
        }
      ],
      "name": "createPaymentContract",
      "outputs": [],
      "stateMutability": "nonpayable",
      "type": "function"
    }
  ],
  "bytecode": "0x60806040523480156200001157600080fd5b5060405162001cc838038062001cc88339818101604052810190620000379190620001dd565b6040518060400160405280601d81526020017f5061796d656e7420467261676d656e746174696f6e2053657276696365000000815250600090805190602001906200008492919062000116565b5080600360006101000a81548173ffffffffffffffffffffffffffffffffffffffff021916908373ffffffffffffffffffffffffffffffffffffffff16021790555033600160006101000a81548173ffffffffffffffffffffffffffffffffffffffff021916908373ffffffffffffffffffffffffffffffffffffffff160217905550600060028190555050620002d0565b828054620001249062000251565b90600052602060002090601f01602090048101928262000148576000855562000194565b82601f106200016357805160ff191683800117855562000194565b8280016001018555821562000194579182015b828111156200019357825182559160200191906001019062000176565b5b509050620001a39190620001a7565b5090565b5b80821115620001c2576000816000905550600101620001a8565b5090565b600081519050620001d781620002b6565b92915050565b600060208284031215620001f057600080fd5b60006200020084828501620001c6565b91505092915050565b6000620002168262000231565b9050919050565b60006200022a8262000209565b9050919050565b600073ffffffffffffffffffffffffffffffffffffffff82169050919050565b600060028204905060018216806200026a57607f821691505b6020821081141562000281576200028062000287565b5b50919050565b7f4e487b7100000000000000000000000000000000000000000000000000000000600052602260045260246000fd5b620002c1816200021d565b8114620002cd57600080fd5b50565b6119e880620002e06000396000f3fe608060405234801561001057600080fd5b50600436106100935760003560e01c80638736381a116100665780638736381a1461013f5780638da5cb5b1461015d5780639baca1ce1461017b5780639dcf07f5146101ac578063a5820daa146101c857610093565b806306fdde0314610098578063125153f6146100b65780631b4a5cc8146100e657806369f00a3614610104575b600080fd5b6100a06101e4565b6040516100ad91906110c5565b60405180910390f35b6100d060048036038101906100cb9190610d12565b610272565b6040516100dd91906111e7565b60405180910390f35b6100ee6102a3565b6040516100fb91906110aa565b60405180910390f35b61011e60048036038101906101199190610e2d565b6102c9565b6040516101369c9b9a999897969594939291906112c3565b60405180910390f35b61014761040b565b60405161015491906111e7565b60405180910390f35b610165610411565b6040516101729190611066565b60405180910390f35b61019560048036038101906101909190610e7f565b610437565b6040516101a3929190611384565b60405180910390f35b6101c660048036038101906101c19190610d77565b610478565b005b6101e260048036038101906101dd9190610e2d565b610844565b005b600080546101f190611556565b80601f016020809104026020016040519081016040528092919081815260200182805461021d90611556565b801561026a5780601f1061023f5761010080835404028352916020019161026a565b820191906000526020600020905b81548152906001019060200180831161024d57829003601f168201915b505050505081565b6006602052816000526040600020818154811061028e57600080fd5b90600052602060002001600091509150505481565b600360009054906101000a900473ffffffffffffffffffffffffffffffffffffffff1681565b60046020528060005260406000206000915090508060000154908060010180546102f290611556565b80601f016020809104026020016040519081016040528092919081815260200182805461031e90611556565b801561036b5780601f106103405761010080835404028352916020019161036b565b820191906000526020600020905b81548152906001019060200180831161034e57829003601f168201915b5050505050908060020154908060030154908060040160009054906101000a900473ffffffffffffffffffffffffffffffffffffffff16908060050160009054906101000a900473ffffffffffffffffffffffffffffffffffffffff169080600601549080600701549080600801549080600901549080600a0160009054906101000a900460ff169080600a0160019054906101000a900460ff1690508c565b60025481565b600160009054906101000a900473ffffffffffffffffffffffffffffffffffffffff1681565b6005602052816000526040600020818154811061045357600080fd5b9060005260206000209060020201600091509150508060000154908060010154905082565b8385116104ba576040517f08c379a00000000000000000000000000000000000000000000000000000000081526004016104b190611127565b60405180910390fd5b600086116104fd576040517f08c379a00000000000000000000000000000000000000000000000000000000081526004016104f490611107565b60405180910390fd5b6000875111610541576040517f08c379a000000000000000000000000000000000000000000000000000000000815260040161053890611187565b60405180910390fd5b82600261054e8787610b6d565b610558919061141f565b10610598576040517f08c379a000000000000000000000000000000000000000000000000000000000815260040161058f906110e7565b60405180910390fd5b6000821180156105a85750606482105b6105e7576040517f08c379a00000000000000000000000000000000000000000000000000000000081526004016105de90611147565b60405180910390fd5b600260008154809291906105fa906115b9565b9190505550600080821561061057339050610614565b3391505b60405180610180016040528060025481526020018a8152602001898152602001600081526020018373ffffffffffffffffffffffffffffffffffffffff1681526020018273ffffffffffffffffffffffffffffffffffffffff168152602001888152602001878152602001868152602001858152602001600015158152602001600015158152506004600060025481526020019081526020016000206000820151816000015560208201518160010190805190602001906106d6929190610b9e565b50604082015181600201556060820151816003015560808201518160040160006101000a81548173ffffffffffffffffffffffffffffffffffffffff021916908373ffffffffffffffffffffffffffffffffffffffff16021790555060a08201518160050160006101000a81548173ffffffffffffffffffffffffffffffffffffffff021916908373ffffffffffffffffffffffffffffffffffffffff16021790555060c0820151816006015560e082015181600701556101008201518160080155610120820151816009015561014082015181600a0160006101000a81548160ff02191690831515021790555061016082015181600a0160016101000a81548160ff0219169083151502179055509050507f7a66b7a379f6fee483b1f5ffafcf5cccdd10fccaf21458450ffb26d0c21283786002548a8a600086868d8d8d8d6000806040516108319c9b9a99989796959493929190611202565b60405180910390a1505050505050505050565b60008111610887576040517f08c379a000000000000000000000000000000000000000000000000000000000815260040161087e906111a7565b60405180910390fd5b6064600360009054906101000a900473ffffffffffffffffffffffffffffffffffffffff1673ffffffffffffffffffffffffffffffffffffffff166370a08231306040518263ffffffff1660e01b81526004016108e49190611066565b60206040518083038186803b1580156108fc57600080fd5b505afa158015610910573d6000803e3d6000fd5b505050506040513d601f19601f820116820180604052508101906109349190610e56565b61093e919061141f565b811061097f576040517f08c379a000000000000000000000000000000000000000000000000000000000815260040161097690611167565b60405180910390fd5b6000600360009054906101000a900473ffffffffffffffffffffffffffffffffffffffff1673ffffffffffffffffffffffffffffffffffffffff166370a08231336040518263ffffffff1660e01b81526004016109dc9190611066565b60206040518083038186803b1580156109f457600080fd5b505afa158015610a08573d6000803e3d6000fd5b505050506040513d601f19601f82011682018060405250810190610a2c9190610e56565b148015610a7b57506000600660003373ffffffffffffffffffffffffffffffffffffffff1673ffffffffffffffffffffffffffffffffffffffff16815260200190815260200160002080549050145b610aba576040517f08c379a0000000000000000000000000000000000000000000000000000000008152600401610ab1906111c7565b60405180910390fd5b600360009054906101000a900473ffffffffffffffffffffffffffffffffffffffff1673ffffffffffffffffffffffffffffffffffffffff1663a9059cbb33836040518363ffffffff1660e01b8152600401610b17929190611081565b602060405180830381600087803b158015610b3157600080fd5b505af1158015610b45573d6000803e3d6000fd5b505050506040513d601f19601f82011682018060405250810190610b699190610d4e565b5050565b600081831115610b7c57600080fd5b620151808383610b8c9190611450565b610b96919061141f565b905092915050565b828054610baa90611556565b90600052602060002090601f016020900481019282610bcc5760008555610c13565b82601f10610be557805160ff1916838001178555610c13565b82800160010185558215610c13579182015b82811115610c12578251825591602001919060010190610bf7565b5b509050610c209190610c24565b5090565b5b80821115610c3d576000816000905550600101610c25565b5090565b6000610c54610c4f846113d2565b6113ad565b905082815260208101848484011115610c6c57600080fd5b610c77848285611514565b509392505050565b600081359050610c8e8161196d565b92915050565b600081359050610ca381611984565b92915050565b600081519050610cb881611984565b92915050565b600082601f830112610ccf57600080fd5b8135610cdf848260208601610c41565b91505092915050565b600081359050610cf78161199b565b92915050565b600081519050610d0c8161199b565b92915050565b60008060408385031215610d2557600080fd5b6000610d3385828601610c7f565b9250506020610d4485828601610ce8565b9150509250929050565b600060208284031215610d6057600080fd5b6000610d6e84828501610ca9565b91505092915050565b600080600080600080600060e0888a031215610d9257600080fd5b600088013567ffffffffffffffff811115610dac57600080fd5b610db88a828b01610cbe565b9750506020610dc98a828b01610ce8565b9650506040610dda8a828b01610ce8565b9550506060610deb8a828b01610ce8565b9450506080610dfc8a828b01610ce8565b93505060a0610e0d8a828b01610ce8565b92505060c0610e1e8a828b01610c94565b91505092959891949750929550565b600060208284031215610e3f57600080fd5b6000610e4d84828501610ce8565b91505092915050565b600060208284031215610e6857600080fd5b6000610e7684828501610cfd565b91505092915050565b60008060408385031215610e9257600080fd5b6000610ea085828601610ce8565b9250506020610eb185828601610ce8565b9150509250929050565b610ec481611496565b82525050565b610ed381611484565b82525050565b610ee2816114a8565b82525050565b610ef1816114de565b82525050565b610f0081611502565b82525050565b6000610f1182611403565b610f1b818561140e565b9350610f2b818560208601611523565b610f34816116be565b840191505092915050565b6000610f4c60448361140e565b9150610f57826116cf565b606082019050919050565b6000610f6f602a8361140e565b9150610f7a82611744565b604082019050919050565b6000610f9260328361140e565b9150610f9d82611793565b604082019050919050565b6000610fb5603b8361140e565b9150610fc0826117e2565b604082019050919050565b6000610fd8603b8361140e565b9150610fe382611831565b604082019050919050565b6000610ffb602e8361140e565b915061100682611880565b604082019050919050565b600061101e602d8361140e565b9150611029826118cf565b604082019050919050565b600061104160328361140e565b915061104c8261191e565b604082019050919050565b611060816114d4565b82525050565b600060208201905061107b6000830184610eca565b92915050565b60006040820190506110966000830185610eca565b6110a36020830184611057565b9392505050565b60006020820190506110bf6000830184610ee8565b92915050565b600060208201905081810360008301526110df8184610f06565b905092915050565b6000602082019050818103600083015261110081610f3f565b9050919050565b6000602082019050818103600083015261112081610f62565b9050919050565b6000602082019050818103600083015261114081610f85565b9050919050565b6000602082019050818103600083015261116081610fa8565b9050919050565b6000602082019050818103600083015261118081610fcb565b9050919050565b600060208201905081810360008301526111a081610fee565b9050919050565b600060208201905081810360008301526111c081611011565b9050919050565b600060208201905081810360008301526111e081611034565b9050919050565b60006020820190506111fc6000830184611057565b92915050565b600061018082019050611218600083018f611057565b818103602083015261122a818e610f06565b9050611239604083018d611057565b611246606083018c610ef7565b611253608083018b610eca565b61126060a083018a610ebb565b61126d60c0830189611057565b61127a60e0830188611057565b611288610100830187611057565b611296610120830186611057565b6112a4610140830185610ed9565b6112b2610160830184610ed9565b9d9c50505050505050505050505050565b6000610180820190506112d9600083018f611057565b81810360208301526112eb818e610f06565b90506112fa604083018d611057565b611307606083018c611057565b611314608083018b610eca565b61132160a083018a610ebb565b61132e60c0830189611057565b61133b60e0830188611057565b611349610100830187611057565b611357610120830186611057565b611365610140830185610ed9565b611373610160830184610ed9565b9d9c50505050505050505050505050565b60006040820190506113996000830185611057565b6113a66020830184611057565b9392505050565b60006113b76113c8565b90506113c38282611588565b919050565b6000604051905090565b600067ffffffffffffffff8211156113ed576113ec61168f565b5b6113f6826116be565b9050602081019050919050565b600081519050919050565b600082825260208201905092915050565b600061142a826114d4565b9150611435836114d4565b92508261144557611444611631565b5b828204905092915050565b600061145b826114d4565b9150611466836114d4565b92508282101561147957611478611602565b5b828203905092915050565b600061148f826114b4565b9050919050565b60006114a1826114b4565b9050919050565b60008115159050919050565b600073ffffffffffffffffffffffffffffffffffffffff82169050919050565b6000819050919050565b60006114e9826114f0565b9050919050565b60006114fb826114b4565b9050919050565b600061150d826114d4565b9050919050565b82818337600083830152505050565b60005b83811015611541578082015181840152602081019050611526565b83811115611550576000848401525b50505050565b6000600282049050600182168061156e57607f821691505b6020821081141561158257611581611660565b5b50919050565b611591826116be565b810181811067ffffffffffffffff821117156115b0576115af61168f565b5b80604052505050565b60006115c4826114d4565b91507fffffffffffffffffffffffffffffffffffffffffffffffffffffffffffffffff8214156115f7576115f6611602565b5b600182019050919050565b7f4e487b7100000000000000000000000000000000000000000000000000000000600052601160045260246000fd5b7f4e487b7100000000000000000000000000000000000000000000000000000000600052601260045260246000fd5b7f4e487b7100000000000000000000000000000000000000000000000000000000600052602260045260246000fd5b7f4e487b7100000000000000000000000000000000000000000000000000000000600052604160045260246000fd5b6000601f19601f8301169050919050565b7f54686520636f6e7472616374206d75737420616c6c6f77207472616e7361637460008201527f696f6e73206265666f72652068616c66207468652074696d652068617320706160208201527f7373656400000000000000000000000000000000000000000000000000000000604082015250565b7f416d6f756e7420746f20506179206d757374206265206d6f7265207468616e2060008201527f30204350546f6b656e7300000000000000000000000000000000000000000000602082015250565b7f546865205061796d656e7420436f6e74726163742063616e6e6f742066696e6960008201527f7368206265666f7265207374617274696e670000000000000000000000000000602082015250565b7f546865207061796d656e74207370656564206f662074686520636f6e7472616360008201527f74206d757374206265206265747765656e203020616e64203130300000000000602082015250565b7f416d6f756e74205265717565737465642063616e6e6f74206265206c6172676560008201527f72207468616e203125206f662063757272656e7420737570706c790000000000602082015250565b7f546865206e616d65206f6620746865205061796d656e7420436f6e747261637460008201527f206d7573742062652076616c6964000000000000000000000000000000000000602082015250565b7f416d6f756e7420526571756573746564204d757374206265206d6f726520746860008201527f616e2030204350546f6b656e7300000000000000000000000000000000000000602082015250565b7f546869732066756e6374696f6e206f6e6c7920697373756573204350546f6b6560008201527f6e7320746f206e6577206163636f756e74730000000000000000000000000000602082015250565b61197681611484565b811461198157600080fd5b50565b61198d816114a8565b811461199857600080fd5b50565b6119a4816114d4565b81146119af57600080fd5b5056fea2646970667358221220fba2161195a1dc6e6651e2ea2d719c4f8f4439579c351291436502ff892a7d1064736f6c63430008040033",
  "immutableReferences": {},
  "source": "// SPDX-License-Identifier: MIT\npragma solidity 0.8.4;\n\nimport \"./CPToken.sol\" as CPToken;\nimport \"./DateTimeLibrary.sol\" as DateTimeLibrary;\n\ncontract ColPay {\n    string public name;\n    address public owner;\n    uint public contractCount;\n    CPToken.CPToken public cpToken;\n\n    mapping(uint => PaymentContract) public paymentContracts;\n    mapping(uint => Transaction[]) public transactionLists;\n    mapping(address => uint[]) public paymentContractsHeldPerAddress;\n\n    struct Transaction {\n        uint256 date;\n        uint value;\n    }\n\n    struct PaymentContract {\n        uint id;\n        string name;\n        uint totalAmount;\n        uint amountPaid;\n        address buyer;\n        address payable seller;\n        uint256 startDate;\n        uint256 expiryDate;\n        uint daysToOpen;\n        uint speed;\n        bool completed;\n        bool agreementStatus;\n    }\n\n    event PaymentContractCreated (\n        uint id,\n        string name,\n        uint totalAmount,\n        uint amountPaid,\n        address buyer,\n        address payable seller,\n        uint256 startDate,\n        uint256 expiryDate,\n        uint daysToOpen,\n        uint speed,\n        bool completed,\n        bool agreementStatus\n    );\n\n    constructor(CPToken.CPToken _cpToken) {\n        name = \"Payment Fragmentation Service\";\n        cpToken = _cpToken;\n        owner = msg.sender;\n        contractCount = 0;\n    }\n\n    // Request Tokens - for new accounts\n    function issueTokens(uint256 _value) public {\n        // Check for valid requests\n        require(_value > 0, \"Amount Requested Must be more than 0 CPTokens\");\n        require(_value < cpToken.balanceOf(address(this))/100, \"Amount Requested cannot be larger than 1% of current supply\");\n        require(cpToken.balanceOf(msg.sender) == 0 && paymentContractsHeldPerAddress[msg.sender].length == 0, \"This function only issues CPTokens to new accounts\");\n\n        cpToken.transfer(msg.sender, _value);\n    }\n\n    // Create Payment Contract\n    function createPaymentContract (string memory _name, uint _totalAmount, uint256 _startDate, uint256 _expiryDate, uint _daysToOpen, uint _speed, bool _isSeller) public {\n        // Check for valid requests\n        require(_startDate > _expiryDate, \"The Payment Contract cannot finish before starting\");\n        require(_totalAmount > 0, \"Amount to Pay must be more than 0 CPTokens\");\n        require(bytes(_name).length > 0, \"The name of the Payment Contract must be valid\");\n        require(DateTimeLibrary.DateTimeLibrary.diffDays(_startDate, _expiryDate) / 2 < _daysToOpen, \"The contract must allow transactions before half the time has passed\");\n        require(_speed > 0 && _speed < 100, \"The payment speed of the contract must be between 0 and 100\");\n\n        // Increment contractCount\n        contractCount ++;\n\n        // Create the Contract\n        address buyer;\n        address payable seller;\n        if (_isSeller){\n            seller = payable(msg.sender);\n        } else {\n            buyer = msg.sender;\n        }\n        paymentContracts[contractCount] = PaymentContract(contractCount, _name, _totalAmount, 0, buyer, seller, _startDate, _expiryDate, _daysToOpen, _speed, false, false);\n\n        // Trigger Event\n        emit PaymentContractCreated(contractCount, _name, _totalAmount, 0, buyer, seller, _startDate, _expiryDate, _daysToOpen, _speed, false, false);\n    }\n\n    // Request a Payment\n\n    // Make a Payment\n\n    // Liquidate contract?\n\n    // Purchase a contract?\n\n}",
  "sourcePath": "/Users/coverwallet/Documents/Personal/Blockchain/ColPay/src/contracts/ColPay.sol",
  "compiler": {
    "name": "solc",
    "version": "0.8.4+commit.c7e474f2.Emscripten.clang"
  },
  "schemaVersion": "3.4.1",
  "updatedAt": "2021-05-15T18:48:01.928Z",
  "networkType": "ethereum",
  "devdoc": {
    "kind": "dev",
    "methods": {},
    "version": 1
  },
  "userdoc": {
    "kind": "user",
    "methods": {},
    "version": 1
  }
}