{
  "contractName": "ColPay",
  "abi": [
    {
      "inputs": [
        {
          "internalType": "contract CPToken",
          "name": "_cpToken",
          "type": "address"
        }
      ],
      "stateMutability": "nonpayable",
      "type": "constructor"
    },
    {
      "anonymous": false,
      "inputs": [
        {
          "indexed": false,
          "internalType": "uint256",
          "name": "id",
          "type": "uint256"
        },
        {
          "indexed": false,
          "internalType": "string",
          "name": "name",
          "type": "string"
        },
        {
          "indexed": false,
          "internalType": "uint256",
          "name": "totalAmount",
          "type": "uint256"
        },
        {
          "indexed": false,
          "internalType": "uint256",
          "name": "amountPaid",
          "type": "uint256"
        },
        {
          "indexed": false,
          "internalType": "address",
          "name": "buyer",
          "type": "address"
        },
        {
          "indexed": false,
          "internalType": "address",
          "name": "seller",
          "type": "address"
        },
        {
          "indexed": false,
          "internalType": "uint256",
          "name": "startDate",
          "type": "uint256"
        },
        {
          "indexed": false,
          "internalType": "uint256",
          "name": "expiryDate",
          "type": "uint256"
        },
        {
          "indexed": false,
          "internalType": "uint256",
          "name": "daysToOpen",
          "type": "uint256"
        },
        {
          "indexed": false,
          "internalType": "uint256",
          "name": "speed",
          "type": "uint256"
        },
        {
          "indexed": false,
          "internalType": "uint256",
          "name": "contractStatus",
          "type": "uint256"
        },
        {
          "indexed": false,
          "internalType": "bool",
          "name": "createdBySeller",
          "type": "bool"
        }
      ],
      "name": "PaymentContractCreated",
      "type": "event"
    },
    {
      "anonymous": false,
      "inputs": [
        {
          "indexed": false,
          "internalType": "uint256",
          "name": "id",
          "type": "uint256"
        },
        {
          "indexed": false,
          "internalType": "address",
          "name": "statusUpdatedBy",
          "type": "address"
        },
        {
          "indexed": false,
          "internalType": "uint256",
          "name": "contractStatus",
          "type": "uint256"
        }
      ],
      "name": "PaymentContractStatusUpdate",
      "type": "event"
    },
    {
      "anonymous": false,
      "inputs": [
        {
          "indexed": false,
          "internalType": "uint256",
          "name": "date",
          "type": "uint256"
        },
        {
          "indexed": false,
          "internalType": "uint256",
          "name": "contractID",
          "type": "uint256"
        },
        {
          "indexed": false,
          "internalType": "uint256",
          "name": "value",
          "type": "uint256"
        }
      ],
      "name": "TransactionMade",
      "type": "event"
    },
    {
      "inputs": [],
      "name": "contractCount",
      "outputs": [
        {
          "internalType": "uint256",
          "name": "",
          "type": "uint256"
        }
      ],
      "stateMutability": "view",
      "type": "function",
      "constant": true
    },
    {
      "inputs": [],
      "name": "cpToken",
      "outputs": [
        {
          "internalType": "contract CPToken",
          "name": "",
          "type": "address"
        }
      ],
      "stateMutability": "view",
      "type": "function",
      "constant": true
    },
    {
      "inputs": [],
      "name": "name",
      "outputs": [
        {
          "internalType": "string",
          "name": "",
          "type": "string"
        }
      ],
      "stateMutability": "view",
      "type": "function",
      "constant": true
    },
    {
      "inputs": [],
      "name": "owner",
      "outputs": [
        {
          "internalType": "address",
          "name": "",
          "type": "address"
        }
      ],
      "stateMutability": "view",
      "type": "function",
      "constant": true
    },
    {
      "inputs": [
        {
          "internalType": "uint256",
          "name": "",
          "type": "uint256"
        }
      ],
      "name": "paymentContracts",
      "outputs": [
        {
          "internalType": "uint256",
          "name": "id",
          "type": "uint256"
        },
        {
          "internalType": "string",
          "name": "name",
          "type": "string"
        },
        {
          "internalType": "uint256",
          "name": "totalAmount",
          "type": "uint256"
        },
        {
          "internalType": "uint256",
          "name": "amountPaid",
          "type": "uint256"
        },
        {
          "internalType": "address",
          "name": "buyer",
          "type": "address"
        },
        {
          "internalType": "address",
          "name": "seller",
          "type": "address"
        },
        {
          "internalType": "uint256",
          "name": "startDate",
          "type": "uint256"
        },
        {
          "internalType": "uint256",
          "name": "expiryDate",
          "type": "uint256"
        },
        {
          "internalType": "uint256",
          "name": "daysToOpen",
          "type": "uint256"
        },
        {
          "internalType": "uint256",
          "name": "speed",
          "type": "uint256"
        },
        {
          "internalType": "uint256",
          "name": "contractStatus",
          "type": "uint256"
        },
        {
          "internalType": "bool",
          "name": "createdBySeller",
          "type": "bool"
        }
      ],
      "stateMutability": "view",
      "type": "function",
      "constant": true
    },
    {
      "inputs": [
        {
          "internalType": "address",
          "name": "",
          "type": "address"
        },
        {
          "internalType": "uint256",
          "name": "",
          "type": "uint256"
        }
      ],
      "name": "paymentContractsHeldPerAddress",
      "outputs": [
        {
          "internalType": "uint256",
          "name": "",
          "type": "uint256"
        }
      ],
      "stateMutability": "view",
      "type": "function",
      "constant": true
    },
    {
      "inputs": [
        {
          "internalType": "address",
          "name": "",
          "type": "address"
        }
      ],
      "name": "totalDebt",
      "outputs": [
        {
          "internalType": "uint256",
          "name": "",
          "type": "uint256"
        }
      ],
      "stateMutability": "view",
      "type": "function",
      "constant": true
    },
    {
      "inputs": [
        {
          "internalType": "uint256",
          "name": "",
          "type": "uint256"
        },
        {
          "internalType": "uint256",
          "name": "",
          "type": "uint256"
        }
      ],
      "name": "transactionLists",
      "outputs": [
        {
          "internalType": "uint256",
          "name": "date",
          "type": "uint256"
        },
        {
          "internalType": "uint256",
          "name": "value",
          "type": "uint256"
        }
      ],
      "stateMutability": "view",
      "type": "function",
      "constant": true
    },
    {
      "inputs": [
        {
          "internalType": "uint256",
          "name": "_value",
          "type": "uint256"
        },
        {
          "internalType": "address",
          "name": "_receipient",
          "type": "address"
        }
      ],
      "name": "issueTokens",
      "outputs": [],
      "stateMutability": "nonpayable",
      "type": "function"
    },
    {
      "inputs": [
        {
          "internalType": "string",
          "name": "_name",
          "type": "string"
        },
        {
          "internalType": "uint256",
          "name": "_totalAmount",
          "type": "uint256"
        },
        {
          "internalType": "address",
          "name": "_recipient",
          "type": "address"
        },
        {
          "internalType": "uint256",
          "name": "_startDate",
          "type": "uint256"
        },
        {
          "internalType": "uint256",
          "name": "_expiryDate",
          "type": "uint256"
        },
        {
          "internalType": "uint256",
          "name": "_daysToOpen",
          "type": "uint256"
        },
        {
          "internalType": "uint256",
          "name": "_speed",
          "type": "uint256"
        },
        {
          "internalType": "bool",
          "name": "_createdBySeller",
          "type": "bool"
        }
      ],
      "name": "createPaymentContract",
      "outputs": [],
      "stateMutability": "nonpayable",
      "type": "function"
    },
    {
      "inputs": [
        {
          "internalType": "uint256",
          "name": "_contractID",
          "type": "uint256"
        }
      ],
      "name": "acceptPaymentContract",
      "outputs": [],
      "stateMutability": "nonpayable",
      "type": "function"
    },
    {
      "inputs": [
        {
          "internalType": "uint256",
          "name": "_contractID",
          "type": "uint256"
        }
      ],
      "name": "rejectPaymentContract",
      "outputs": [],
      "stateMutability": "nonpayable",
      "type": "function"
    },
    {
      "inputs": [
        {
          "internalType": "uint256",
          "name": "_contractID",
          "type": "uint256"
        }
      ],
      "name": "expirePaymentContract",
      "outputs": [],
      "stateMutability": "nonpayable",
      "type": "function"
    },
    {
      "inputs": [],
      "name": "checkForExpiredContracts",
      "outputs": [],
      "stateMutability": "nonpayable",
      "type": "function"
    },
    {
      "inputs": [
        {
          "internalType": "uint256",
          "name": "_contractID",
          "type": "uint256"
        },
        {
          "internalType": "uint256",
          "name": "_value",
          "type": "uint256"
        }
      ],
      "name": "makeTransaction",
      "outputs": [],
      "stateMutability": "nonpayable",
      "type": "function"
    }
  ],
  "bytecode": "0x60806040523480156200001157600080fd5b50604051620045f4380380620045f48339818101604052810190620000379190620001dd565b6040518060400160405280601d81526020017f5061796d656e7420467261676d656e746174696f6e2053657276696365000000815250600090805190602001906200008492919062000116565b5080600360006101000a81548173ffffffffffffffffffffffffffffffffffffffff021916908373ffffffffffffffffffffffffffffffffffffffff16021790555033600160006101000a81548173ffffffffffffffffffffffffffffffffffffffff021916908373ffffffffffffffffffffffffffffffffffffffff160217905550600060028190555050620002d0565b828054620001249062000251565b90600052602060002090601f01602090048101928262000148576000855562000194565b82601f106200016357805160ff191683800117855562000194565b8280016001018555821562000194579182015b828111156200019357825182559160200191906001019062000176565b5b509050620001a39190620001a7565b5090565b5b80821115620001c2576000816000905550600101620001a8565b5090565b600081519050620001d781620002b6565b92915050565b600060208284031215620001f057600080fd5b60006200020084828501620001c6565b91505092915050565b6000620002168262000231565b9050919050565b60006200022a8262000209565b9050919050565b600073ffffffffffffffffffffffffffffffffffffffff82169050919050565b600060028204905060018216806200026a57607f821691505b6020821081141562000281576200028062000287565b5b50919050565b7f4e487b7100000000000000000000000000000000000000000000000000000000600052602260045260246000fd5b620002c1816200021d565b8114620002cd57600080fd5b50565b61431480620002e06000396000f3fe608060405234801561001057600080fd5b50600436106100f55760003560e01c806369f00a3611610097578063939626ea11610066578063939626ea1461027d5780639baca1ce14610299578063d0f0fc78146102ca578063dabd94f5146102e6576100f5565b806369f00a36146101ea5780637ad5be88146102255780638736381a146102415780638da5cb5b1461025f576100f5565b80631ff517ff116100d35780631ff517ff146101665780632c999e55146101965780632cd73dab146101b257806342ff1f1b146101ce576100f5565b806306fdde03146100fa578063125153f6146101185780631b4a5cc814610148575b600080fd5b6101026102f0565b60405161010f9190612fc1565b60405180910390f35b610132600480360381019061012d9190612957565b61037e565b60405161013f9190613323565b60405180910390f35b6101506103af565b60405161015d9190612fa6565b60405180910390f35b610180600480360381019061017b919061292e565b6103d5565b60405161018d9190613323565b60405180910390f35b6101b060048036038101906101ab9190612a86565b6103ed565b005b6101cc60048036038101906101c79190612a86565b61070e565b005b6101e860048036038101906101e39190612a86565b610a2f565b005b61020460048036038101906101ff9190612a86565b610cc4565b60405161021c9c9b9a99989796959493929190613436565b60405180910390f35b61023f600480360381019061023a9190612ad8565b610df9565b005b6102496111b3565b6040516102569190613323565b60405180910390f35b6102676111b9565b6040516102749190612f62565b60405180910390f35b610297600480360381019061029291906129bc565b6111df565b005b6102b360048036038101906102ae9190612b14565b61180f565b6040516102c19291906134f7565b60405180910390f35b6102e460048036038101906102df9190612b14565b611850565b005b6102ee6120ee565b005b600080546102fd9061379e565b80601f01602080910402602001604051908101604052809291908181526020018280546103299061379e565b80156103765780601f1061034b57610100808354040283529160200191610376565b820191906000526020600020905b81548152906001019060200180831161035957829003601f168201915b505050505081565b6007602052816000526040600020818154811061039a57600080fd5b90600052602060002001600091509150505481565b600360009054906101000a900473ffffffffffffffffffffffffffffffffffffffff1681565b60066020528060005260406000206000915090505481565b6000811180156103ff57506002548111155b61043e576040517f08c379a0000000000000000000000000000000000000000000000000000000008152600401610435906131e3565b60405180910390fd5b60006004600083815260200190815260200160002060405180610180016040529081600082015481526020016001820180546104799061379e565b80601f01602080910402602001604051908101604052809291908181526020018280546104a59061379e565b80156104f25780601f106104c7576101008083540402835291602001916104f2565b820191906000526020600020905b8154815290600101906020018083116104d557829003601f168201915b5050505050815260200160028201548152602001600382015481526020016004820160009054906101000a900473ffffffffffffffffffffffffffffffffffffffff1673ffffffffffffffffffffffffffffffffffffffff1673ffffffffffffffffffffffffffffffffffffffff1681526020016005820160009054906101000a900473ffffffffffffffffffffffffffffffffffffffff1673ffffffffffffffffffffffffffffffffffffffff1673ffffffffffffffffffffffffffffffffffffffff16815260200160068201548152602001600782015481526020016008820154815260200160098201548152602001600a8201548152602001600b820160009054906101000a900460ff16151515158152505090508061016001511561068c57806080015173ffffffffffffffffffffffffffffffffffffffff163373ffffffffffffffffffffffffffffffffffffffff1614610687576040517f08c379a000000000000000000000000000000000000000000000000000000000815260040161067e90613003565b60405180910390fd5b6106ff565b8060a0015173ffffffffffffffffffffffffffffffffffffffff163373ffffffffffffffffffffffffffffffffffffffff16146106fe576040517f08c379a00000000000000000000000000000000000000000000000000000000081526004016106f590613303565b60405180910390fd5b5b61070a826002612384565b5050565b60008111801561072057506002548111155b61075f576040517f08c379a0000000000000000000000000000000000000000000000000000000008152600401610756906131e3565b60405180910390fd5b600060046000838152602001908152602001600020604051806101800160405290816000820154815260200160018201805461079a9061379e565b80601f01602080910402602001604051908101604052809291908181526020018280546107c69061379e565b80156108135780601f106107e857610100808354040283529160200191610813565b820191906000526020600020905b8154815290600101906020018083116107f657829003601f168201915b5050505050815260200160028201548152602001600382015481526020016004820160009054906101000a900473ffffffffffffffffffffffffffffffffffffffff1673ffffffffffffffffffffffffffffffffffffffff1673ffffffffffffffffffffffffffffffffffffffff1681526020016005820160009054906101000a900473ffffffffffffffffffffffffffffffffffffffff1673ffffffffffffffffffffffffffffffffffffffff1673ffffffffffffffffffffffffffffffffffffffff16815260200160068201548152602001600782015481526020016008820154815260200160098201548152602001600a8201548152602001600b820160009054906101000a900460ff1615151515815250509050806101600151156109ad57806080015173ffffffffffffffffffffffffffffffffffffffff163373ffffffffffffffffffffffffffffffffffffffff16146109a8576040517f08c379a000000000000000000000000000000000000000000000000000000000815260040161099f90613083565b60405180910390fd5b610a20565b8060a0015173ffffffffffffffffffffffffffffffffffffffff163373ffffffffffffffffffffffffffffffffffffffff1614610a1f576040517f08c379a0000000000000000000000000000000000000000000000000000000008152600401610a1690612fe3565b60405180910390fd5b5b610a2b826003612384565b5050565b600081118015610a4157506002548111155b610a80576040517f08c379a0000000000000000000000000000000000000000000000000000000008152600401610a77906131e3565b60405180910390fd5b6000600460008381526020019081526020016000206040518061018001604052908160008201548152602001600182018054610abb9061379e565b80601f0160208091040260200160405190810160405280929190818152602001828054610ae79061379e565b8015610b345780601f10610b0957610100808354040283529160200191610b34565b820191906000526020600020905b815481529060010190602001808311610b1757829003601f168201915b5050505050815260200160028201548152602001600382015481526020016004820160009054906101000a900473ffffffffffffffffffffffffffffffffffffffff1673ffffffffffffffffffffffffffffffffffffffff1673ffffffffffffffffffffffffffffffffffffffff1681526020016005820160009054906101000a900473ffffffffffffffffffffffffffffffffffffffff1673ffffffffffffffffffffffffffffffffffffffff1673ffffffffffffffffffffffffffffffffffffffff16815260200160068201548152602001600782015481526020016008820154815260200160098201548152602001600a8201548152602001600b820160009054906101000a900460ff16151515158152505090508060e001514211610c92576040517f08c379a0000000000000000000000000000000000000000000000000000000008152600401610c89906132e3565b60405180910390fd5b600081606001518260400151610ca891906136aa565b9050610cb48382611850565b610cbf836004612384565b505050565b6004602052806000526040600020600091509050806000015490806001018054610ced9061379e565b80601f0160208091040260200160405190810160405280929190818152602001828054610d199061379e565b8015610d665780601f10610d3b57610100808354040283529160200191610d66565b820191906000526020600020905b815481529060010190602001808311610d4957829003601f168201915b5050505050908060020154908060030154908060040160009054906101000a900473ffffffffffffffffffffffffffffffffffffffff16908060050160009054906101000a900473ffffffffffffffffffffffffffffffffffffffff169080600601549080600701549080600801549080600901549080600a01549080600b0160009054906101000a900460ff1690508c565b600160009054906101000a900473ffffffffffffffffffffffffffffffffffffffff1673ffffffffffffffffffffffffffffffffffffffff163373ffffffffffffffffffffffffffffffffffffffff1614610e89576040517f08c379a0000000000000000000000000000000000000000000000000000000008152600401610e8090613203565b60405180910390fd5b60008211610ecc576040517f08c379a0000000000000000000000000000000000000000000000000000000008152600401610ec3906131a3565b60405180910390fd5b6064600360009054906101000a900473ffffffffffffffffffffffffffffffffffffffff1673ffffffffffffffffffffffffffffffffffffffff166370a08231306040518263ffffffff1660e01b8152600401610f299190612f62565b60206040518083038186803b158015610f4157600080fd5b505afa158015610f55573d6000803e3d6000fd5b505050506040513d601f19601f82011682018060405250810190610f799190612aaf565b610f83919061361f565b8210610fc4576040517f08c379a0000000000000000000000000000000000000000000000000000000008152600401610fbb906130e3565b60405180910390fd5b6000600360009054906101000a900473ffffffffffffffffffffffffffffffffffffffff1673ffffffffffffffffffffffffffffffffffffffff166370a08231336040518263ffffffff1660e01b81526004016110219190612f62565b60206040518083038186803b15801561103957600080fd5b505afa15801561104d573d6000803e3d6000fd5b505050506040513d601f19601f820116820180604052508101906110719190612aaf565b1480156110c057506000600760003373ffffffffffffffffffffffffffffffffffffffff1673ffffffffffffffffffffffffffffffffffffffff16815260200190815260200160002080549050145b6110ff576040517f08c379a00000000000000000000000000000000000000000000000000000000081526004016110f690613243565b60405180910390fd5b600360009054906101000a900473ffffffffffffffffffffffffffffffffffffffff1673ffffffffffffffffffffffffffffffffffffffff1663a9059cbb82846040518363ffffffff1660e01b815260040161115c929190612f7d565b602060405180830381600087803b15801561117657600080fd5b505af115801561118a573d6000803e3d6000fd5b505050506040513d601f19601f820116820180604052508101906111ae9190612993565b505050565b60025481565b600160009054906101000a900473ffffffffffffffffffffffffffffffffffffffff1681565b838511611221576040517f08c379a000000000000000000000000000000000000000000000000000000000815260040161121890613063565b60405180910390fd5b60008711611264576040517f08c379a000000000000000000000000000000000000000000000000000000000815260040161125b90613043565b60405180910390fd5b60008851116112a8576040517f08c379a000000000000000000000000000000000000000000000000000000000815260040161129f90613123565b60405180910390fd5b8260026112b58787612735565b6112bf919061361f565b106112ff576040517f08c379a00000000000000000000000000000000000000000000000000000000081526004016112f690613023565b60405180910390fd5b60008211801561130f5750606482105b61134e576040517f08c379a0000000000000000000000000000000000000000000000000000000008152600401611345906130a3565b60405180910390fd5b834210611390576040517f08c379a000000000000000000000000000000000000000000000000000000000815260040161138790613103565b60405180910390fd5b3373ffffffffffffffffffffffffffffffffffffffff168673ffffffffffffffffffffffffffffffffffffffff1614156113ff576040517f08c379a00000000000000000000000000000000000000000000000000000000081526004016113f690613163565b60405180910390fd5b60008082156114135733905087915061141a565b8790503391505b600360009054906101000a900473ffffffffffffffffffffffffffffffffffffffff1673ffffffffffffffffffffffffffffffffffffffff166370a08231836040518263ffffffff1660e01b81526004016114759190612f62565b60206040518083038186803b15801561148d57600080fd5b505afa1580156114a1573d6000803e3d6000fd5b505050506040513d601f19601f820116820180604052508101906114c59190612aaf565b89600660008573ffffffffffffffffffffffffffffffffffffffff1673ffffffffffffffffffffffffffffffffffffffff1681526020019081526020016000205461151091906135c9565b1115611551576040517f08c379a0000000000000000000000000000000000000000000000000000000008152600401611548906131c3565b60405180910390fd5b88600660008473ffffffffffffffffffffffffffffffffffffffff1673ffffffffffffffffffffffffffffffffffffffff1681526020019081526020016000205461159c91906135c9565b600660008473ffffffffffffffffffffffffffffffffffffffff1673ffffffffffffffffffffffffffffffffffffffff1681526020019081526020016000208190555060405180610180016040528060025481526020018b81526020018a8152602001600081526020018373ffffffffffffffffffffffffffffffffffffffff1681526020018273ffffffffffffffffffffffffffffffffffffffff1681526020018881526020018781526020018681526020018581526020016001815260200184151581525060046000600254815260200190815260200160002060008201518160000155602082015181600101908051906020019061169e9291906127ba565b50604082015181600201556060820151816003015560808201518160040160006101000a81548173ffffffffffffffffffffffffffffffffffffffff021916908373ffffffffffffffffffffffffffffffffffffffff16021790555060a08201518160050160006101000a81548173ffffffffffffffffffffffffffffffffffffffff021916908373ffffffffffffffffffffffffffffffffffffffff16021790555060c0820151816006015560e082015181600701556101008201518160080155610120820151816009015561014082015181600a015561016082015181600b0160006101000a81548160ff0219169083151502179055509050507f79bfcb54b3bcb25901d31a541e63fd14023cf570d0633be12d45d9dfe2d237e26002548b8b600086868d8d8d8d60018e6040516117e39c9b9a99989796959493929190613375565b60405180910390a1600260008154809291906117fe90613801565b919050555050505050505050505050565b6005602052816000526040600020818154811061182b57600080fd5b9060005260206000209060020201600091509150508060000154908060010154905082565b60008211801561186257506002548211155b6118a1576040517f08c379a0000000000000000000000000000000000000000000000000000000008152600401611898906131e3565b60405180910390fd5b600081116118e4576040517f08c379a00000000000000000000000000000000000000000000000000000000081526004016118db90613043565b60405180910390fd5b600060046000848152602001908152602001600020604051806101800160405290816000820154815260200160018201805461191f9061379e565b80601f016020809104026020016040519081016040528092919081815260200182805461194b9061379e565b80156119985780601f1061196d57610100808354040283529160200191611998565b820191906000526020600020905b81548152906001019060200180831161197b57829003601f168201915b5050505050815260200160028201548152602001600382015481526020016004820160009054906101000a900473ffffffffffffffffffffffffffffffffffffffff1673ffffffffffffffffffffffffffffffffffffffff1673ffffffffffffffffffffffffffffffffffffffff1681526020016005820160009054906101000a900473ffffffffffffffffffffffffffffffffffffffff1673ffffffffffffffffffffffffffffffffffffffff1673ffffffffffffffffffffffffffffffffffffffff16815260200160068201548152602001600782015481526020016008820154815260200160098201548152602001600a8201548152602001600b820160009054906101000a900460ff16151515158152505090506000828260600151611ac291906135c9565b90508160400151811115611b0b576040517f08c379a0000000000000000000000000000000000000000000000000000000008152600401611b02906132c3565b60405180910390fd5b600382610140015114611b53576040517f08c379a0000000000000000000000000000000000000000000000000000000008152600401611b4a90613283565b60405180910390fd5b82600360009054906101000a900473ffffffffffffffffffffffffffffffffffffffff1673ffffffffffffffffffffffffffffffffffffffff166370a08231336040518263ffffffff1660e01b8152600401611baf9190612f62565b60206040518083038186803b158015611bc757600080fd5b505afa158015611bdb573d6000803e3d6000fd5b505050506040513d601f19601f82011682018060405250810190611bff9190612aaf565b1015611c40576040517f08c379a0000000000000000000000000000000000000000000000000000000008152600401611c3790613143565b60405180910390fd5b3373ffffffffffffffffffffffffffffffffffffffff16826080015173ffffffffffffffffffffffffffffffffffffffff161480611ccb57503373ffffffffffffffffffffffffffffffffffffffff16600160009054906101000a900473ffffffffffffffffffffffffffffffffffffffff1673ffffffffffffffffffffffffffffffffffffffff16145b611d0a576040517f08c379a0000000000000000000000000000000000000000000000000000000008152600401611d01906132a3565b60405180910390fd5b611d1d8260c00151836101000151612766565b4211611d5e576040517f08c379a0000000000000000000000000000000000000000000000000000000008152600401611d5590613263565b60405180910390fd5b6000611d728360c001518460e00151612797565b90506000611d848460c0015142612797565b9050600082606483611d969190613650565b611da0919061361f565b90506000606486610120015183611db79190613650565b611dc1919061361f565b905060006064876040015183611dd79190613650565b611de1919061361f565b9050878760600151611df391906135c9565b811115611e35576040517f08c379a0000000000000000000000000000000000000000000000000000000008152600401611e2c906130c3565b60405180910390fd5b600560008a815260200190815260200160002060405180604001604052804281526020018a815250908060018154018082558091505060019003906000526020600020906002020160009091909190915060008201518160000155602082015181600101555050600360009054906101000a900473ffffffffffffffffffffffffffffffffffffffff1673ffffffffffffffffffffffffffffffffffffffff1663a9059cbb8860a001518a6040518363ffffffff1660e01b8152600401611efd929190612f7d565b602060405180830381600087803b158015611f1757600080fd5b505af1158015611f2b573d6000803e3d6000fd5b505050506040513d601f19601f82011682018060405250810190611f4f9190612993565b50858760600181815250508660400151861415611f7257611f71896005612384565b5b86600460008b8152602001908152602001600020600082015181600001556020820151816001019080519060200190611fac9291906127ba565b50604082015181600201556060820151816003015560808201518160040160006101000a81548173ffffffffffffffffffffffffffffffffffffffff021916908373ffffffffffffffffffffffffffffffffffffffff16021790555060a08201518160050160006101000a81548173ffffffffffffffffffffffffffffffffffffffff021916908373ffffffffffffffffffffffffffffffffffffffff16021790555060c0820151816006015560e082015181600701556101008201518160080155610120820151816009015561014082015181600a015561016082015181600b0160006101000a81548160ff0219169083151502179055509050507fb7aacbdd952e7ec816d79437b4df8ead05f10564eb9e9b35c725afb793f44c54428a8a6040516120db93929190613520565b60405180910390a1505050505050505050565b600160009054906101000a900473ffffffffffffffffffffffffffffffffffffffff1673ffffffffffffffffffffffffffffffffffffffff163373ffffffffffffffffffffffffffffffffffffffff161461217e576040517f08c379a000000000000000000000000000000000000000000000000000000000815260040161217590613223565b60405180910390fd5b60005b6002548110156123815760006004600083815260200190815260200160002060405180610180016040529081600082015481526020016001820180546121c69061379e565b80601f01602080910402602001604051908101604052809291908181526020018280546121f29061379e565b801561223f5780601f106122145761010080835404028352916020019161223f565b820191906000526020600020905b81548152906001019060200180831161222257829003601f168201915b5050505050815260200160028201548152602001600382015481526020016004820160009054906101000a900473ffffffffffffffffffffffffffffffffffffffff1673ffffffffffffffffffffffffffffffffffffffff1673ffffffffffffffffffffffffffffffffffffffff1681526020016005820160009054906101000a900473ffffffffffffffffffffffffffffffffffffffff1673ffffffffffffffffffffffffffffffffffffffff1673ffffffffffffffffffffffffffffffffffffffff16815260200160068201548152602001600782015481526020016008820154815260200160098201548152602001600a8201548152602001600b820160009054906101000a900460ff16151515158152505090508060e0015142111561236d5761236c82610a2f565b5b50808061237990613801565b915050612181565b50565b60006004600084815260200190815260200160002060405180610180016040529081600082015481526020016001820180546123bf9061379e565b80601f01602080910402602001604051908101604052809291908181526020018280546123eb9061379e565b80156124385780601f1061240d57610100808354040283529160200191612438565b820191906000526020600020905b81548152906001019060200180831161241b57829003601f168201915b5050505050815260200160028201548152602001600382015481526020016004820160009054906101000a900473ffffffffffffffffffffffffffffffffffffffff1673ffffffffffffffffffffffffffffffffffffffff1673ffffffffffffffffffffffffffffffffffffffff1681526020016005820160009054906101000a900473ffffffffffffffffffffffffffffffffffffffff1673ffffffffffffffffffffffffffffffffffffffff1673ffffffffffffffffffffffffffffffffffffffff16815260200160068201548152602001600782015481526020016008820154815260200160098201548152602001600a8201548152602001600b820160009054906101000a900460ff1615151515815250509050600182148061255f5750600282145b8061256a5750600382145b806125755750600482145b6125b4576040517f08c379a00000000000000000000000000000000000000000000000000000000081526004016125ab90613183565b60405180910390fd5b818161014001818152505080600460008581526020019081526020016000206000820151816000015560208201518160010190805190602001906125f99291906127ba565b50604082015181600201556060820151816003015560808201518160040160006101000a81548173ffffffffffffffffffffffffffffffffffffffff021916908373ffffffffffffffffffffffffffffffffffffffff16021790555060a08201518160050160006101000a81548173ffffffffffffffffffffffffffffffffffffffff021916908373ffffffffffffffffffffffffffffffffffffffff16021790555060c0820151816006015560e082015181600701556101008201518160080155610120820151816009015561014082015181600a015561016082015181600b0160006101000a81548160ff0219169083151502179055509050507f41d7871512f1ea70eeb217a259d1ca01e83ae67c6c0e263f9061a8a750f7eda48333846040516127289392919061333e565b60405180910390a1505050565b60008183111561274457600080fd5b62015180838361275491906136aa565b61275e919061361f565b905092915050565b600062015180826127779190613650565b8361278291906135c9565b90508281101561279157600080fd5b92915050565b6000818311156127a657600080fd5b82826127b291906136aa565b905092915050565b8280546127c69061379e565b90600052602060002090601f0160209004810192826127e8576000855561282f565b82601f1061280157805160ff191683800117855561282f565b8280016001018555821561282f579182015b8281111561282e578251825591602001919060010190612813565b5b50905061283c9190612840565b5090565b5b80821115612859576000816000905550600101612841565b5090565b600061287061286b8461357c565b613557565b90508281526020810184848401111561288857600080fd5b61289384828561375c565b509392505050565b6000813590506128aa81614299565b92915050565b6000813590506128bf816142b0565b92915050565b6000815190506128d4816142b0565b92915050565b600082601f8301126128eb57600080fd5b81356128fb84826020860161285d565b91505092915050565b600081359050612913816142c7565b92915050565b600081519050612928816142c7565b92915050565b60006020828403121561294057600080fd5b600061294e8482850161289b565b91505092915050565b6000806040838503121561296a57600080fd5b60006129788582860161289b565b925050602061298985828601612904565b9150509250929050565b6000602082840312156129a557600080fd5b60006129b3848285016128c5565b91505092915050565b600080600080600080600080610100898b0312156129d957600080fd5b600089013567ffffffffffffffff8111156129f357600080fd5b6129ff8b828c016128da565b9850506020612a108b828c01612904565b9750506040612a218b828c0161289b565b9650506060612a328b828c01612904565b9550506080612a438b828c01612904565b94505060a0612a548b828c01612904565b93505060c0612a658b828c01612904565b92505060e0612a768b828c016128b0565b9150509295985092959890939650565b600060208284031215612a9857600080fd5b6000612aa684828501612904565b91505092915050565b600060208284031215612ac157600080fd5b6000612acf84828501612919565b91505092915050565b60008060408385031215612aeb57600080fd5b6000612af985828601612904565b9250506020612b0a8582860161289b565b9150509250929050565b60008060408385031215612b2757600080fd5b6000612b3585828601612904565b9250506020612b4685828601612904565b9150509250929050565b612b59816136de565b82525050565b612b68816136f0565b82525050565b612b7781613726565b82525050565b612b868161374a565b82525050565b6000612b97826135ad565b612ba181856135b8565b9350612bb181856020860161376b565b612bba81613906565b840191505092915050565b6000612bd2604a836135b8565b9150612bdd82613917565b606082019050919050565b6000612bf5604a836135b8565b9150612c008261398c565b606082019050919050565b6000612c186044836135b8565b9150612c2382613a01565b606082019050919050565b6000612c3b602a836135b8565b9150612c4682613a76565b604082019050919050565b6000612c5e6032836135b8565b9150612c6982613ac5565b604082019050919050565b6000612c81604a836135b8565b9150612c8c82613b14565b606082019050919050565b6000612ca4603b836135b8565b9150612caf82613b89565b604082019050919050565b6000612cc76043836135b8565b9150612cd282613bd8565b606082019050919050565b6000612cea603b836135b8565b9150612cf582613c4d565b604082019050919050565b6000612d0d602e836135b8565b9150612d1882613c9c565b604082019050919050565b6000612d30602e836135b8565b9150612d3b82613ceb565b604082019050919050565b6000612d536040836135b8565b9150612d5e82613d3a565b604082019050919050565b6000612d76601e836135b8565b9150612d8182613d89565b602082019050919050565b6000612d99601c836135b8565b9150612da482613db2565b602082019050919050565b6000612dbc602d836135b8565b9150612dc782613ddb565b604082019050919050565b6000612ddf6043836135b8565b9150612dea82613e2a565b606082019050919050565b6000612e02601d836135b8565b9150612e0d82613e9f565b602082019050919050565b6000612e256050836135b8565b9150612e3082613ec8565b606082019050919050565b6000612e486068836135b8565b9150612e5382613f3d565b608082019050919050565b6000612e6b6032836135b8565b9150612e7682613fd8565b604082019050919050565b6000612e8e6051836135b8565b9150612e9982614027565b606082019050919050565b6000612eb16025836135b8565b9150612ebc8261409c565b604082019050919050565b6000612ed46038836135b8565b9150612edf826140eb565b604082019050919050565b6000612ef7604a836135b8565b9150612f028261413a565b606082019050919050565b6000612f1a604c836135b8565b9150612f25826141af565b606082019050919050565b6000612f3d604a836135b8565b9150612f4882614224565b606082019050919050565b612f5c8161371c565b82525050565b6000602082019050612f776000830184612b50565b92915050565b6000604082019050612f926000830185612b50565b612f9f6020830184612f53565b9392505050565b6000602082019050612fbb6000830184612b6e565b92915050565b60006020820190508181036000830152612fdb8184612b8c565b905092915050565b60006020820190508181036000830152612ffc81612bc5565b9050919050565b6000602082019050818103600083015261301c81612be8565b9050919050565b6000602082019050818103600083015261303c81612c0b565b9050919050565b6000602082019050818103600083015261305c81612c2e565b9050919050565b6000602082019050818103600083015261307c81612c51565b9050919050565b6000602082019050818103600083015261309c81612c74565b9050919050565b600060208201905081810360008301526130bc81612c97565b9050919050565b600060208201905081810360008301526130dc81612cba565b9050919050565b600060208201905081810360008301526130fc81612cdd565b9050919050565b6000602082019050818103600083015261311c81612d00565b9050919050565b6000602082019050818103600083015261313c81612d23565b9050919050565b6000602082019050818103600083015261315c81612d46565b9050919050565b6000602082019050818103600083015261317c81612d69565b9050919050565b6000602082019050818103600083015261319c81612d8c565b9050919050565b600060208201905081810360008301526131bc81612daf565b9050919050565b600060208201905081810360008301526131dc81612dd2565b9050919050565b600060208201905081810360008301526131fc81612df5565b9050919050565b6000602082019050818103600083015261321c81612e18565b9050919050565b6000602082019050818103600083015261323c81612e3b565b9050919050565b6000602082019050818103600083015261325c81612e5e565b9050919050565b6000602082019050818103600083015261327c81612e81565b9050919050565b6000602082019050818103600083015261329c81612ea4565b9050919050565b600060208201905081810360008301526132bc81612ec7565b9050919050565b600060208201905081810360008301526132dc81612eea565b9050919050565b600060208201905081810360008301526132fc81612f0d565b9050919050565b6000602082019050818103600083015261331c81612f30565b9050919050565b60006020820190506133386000830184612f53565b92915050565b60006060820190506133536000830186612f53565b6133606020830185612b50565b61336d6040830184612f53565b949350505050565b60006101808201905061338b600083018f612f53565b818103602083015261339d818e612b8c565b90506133ac604083018d612f53565b6133b9606083018c612b7d565b6133c6608083018b612b50565b6133d360a083018a612b50565b6133e060c0830189612f53565b6133ed60e0830188612f53565b6133fb610100830187612f53565b613409610120830186612f53565b613417610140830185612f53565b613425610160830184612b5f565b9d9c50505050505050505050505050565b60006101808201905061344c600083018f612f53565b818103602083015261345e818e612b8c565b905061346d604083018d612f53565b61347a606083018c612f53565b613487608083018b612b50565b61349460a083018a612b50565b6134a160c0830189612f53565b6134ae60e0830188612f53565b6134bc610100830187612f53565b6134ca610120830186612f53565b6134d8610140830185612f53565b6134e6610160830184612b5f565b9d9c50505050505050505050505050565b600060408201905061350c6000830185612f53565b6135196020830184612f53565b9392505050565b60006060820190506135356000830186612f53565b6135426020830185612f53565b61354f6040830184612f53565b949350505050565b6000613561613572565b905061356d82826137d0565b919050565b6000604051905090565b600067ffffffffffffffff821115613597576135966138d7565b5b6135a082613906565b9050602081019050919050565b600081519050919050565b600082825260208201905092915050565b60006135d48261371c565b91506135df8361371c565b9250827fffffffffffffffffffffffffffffffffffffffffffffffffffffffffffffffff038211156136145761361361384a565b5b828201905092915050565b600061362a8261371c565b91506136358361371c565b92508261364557613644613879565b5b828204905092915050565b600061365b8261371c565b91506136668361371c565b9250817fffffffffffffffffffffffffffffffffffffffffffffffffffffffffffffffff048311821515161561369f5761369e61384a565b5b828202905092915050565b60006136b58261371c565b91506136c08361371c565b9250828210156136d3576136d261384a565b5b828203905092915050565b60006136e9826136fc565b9050919050565b60008115159050919050565b600073ffffffffffffffffffffffffffffffffffffffff82169050919050565b6000819050919050565b600061373182613738565b9050919050565b6000613743826136fc565b9050919050565b60006137558261371c565b9050919050565b82818337600083830152505050565b60005b8381101561378957808201518184015260208101905061376e565b83811115613798576000848401525b50505050565b600060028204905060018216806137b657607f821691505b602082108114156137ca576137c96138a8565b5b50919050565b6137d982613906565b810181811067ffffffffffffffff821117156137f8576137f76138d7565b5b80604052505050565b600061380c8261371c565b91507fffffffffffffffffffffffffffffffffffffffffffffffffffffffffffffffff82141561383f5761383e61384a565b5b600182019050919050565b7f4e487b7100000000000000000000000000000000000000000000000000000000600052601160045260246000fd5b7f4e487b7100000000000000000000000000000000000000000000000000000000600052601260045260246000fd5b7f4e487b7100000000000000000000000000000000000000000000000000000000600052602260045260246000fd5b7f4e487b7100000000000000000000000000000000000000000000000000000000600052604160045260246000fd5b6000601f19601f8301169050919050565b7f53696e63652074686520636f6e7472616374207761732063726561746564206260008201527f79207468652062757965722c206f6e6c79207468652073656c6c65722063616e60208201527f2061636365707420697400000000000000000000000000000000000000000000604082015250565b7f53696e63652074686520636f6e7472616374207761732063726561746564206260008201527f79207468652073656c6c65722c206f6e6c79207468652062757965722063616e60208201527f2072656a65637420697400000000000000000000000000000000000000000000604082015250565b7f54686520636f6e7472616374206d75737420616c6c6f77207472616e7361637460008201527f696f6e73206265666f72652068616c66207468652074696d652068617320706160208201527f7373656400000000000000000000000000000000000000000000000000000000604082015250565b7f416d6f756e7420746f20506179206d757374206265206d6f7265207468616e2060008201527f30204350546f6b656e7300000000000000000000000000000000000000000000602082015250565b7f546865205061796d656e7420436f6e74726163742063616e6e6f742066696e6960008201527f7368206265666f7265207374617274696e670000000000000000000000000000602082015250565b7f53696e63652074686520636f6e7472616374207761732063726561746564206260008201527f79207468652073656c6c65722c206f6e6c79207468652062757965722063616e60208201527f2061636365707420697400000000000000000000000000000000000000000000604082015250565b7f546865207061796d656e74207370656564206f662074686520636f6e7472616360008201527f74206d757374206265206265747765656e203020616e64203130300000000000602082015250565b7f54686520436f6e74726163742063616e6e6f742065786365656420746865206d60008201527f6178696d756d20616d6f756e7420616c6c6f776564206279207468652073706560208201527f65642e0000000000000000000000000000000000000000000000000000000000604082015250565b7f416d6f756e74205265717565737465642063616e6e6f74206265206c6172676560008201527f72207468616e203125206f662063757272656e7420737570706c790000000000602082015250565b7f546865205061796d656e7420436f6e74726163742043616e6e6f74206265206160008201527f6c72656164792065787069726564000000000000000000000000000000000000602082015250565b7f546865206e616d65206f6620746865205061796d656e7420436f6e747261637460008201527f206d7573742062652076616c6964000000000000000000000000000000000000602082015250565b7f546865206275796572206d757374206861766520656e6f756768204350546f6b60008201527f656e7320746f20636f6d706c65746520746865207472616e73616374696f6e2e602082015250565b7f5468652062757965722063616e6e6f74206265207468652073656c6c65720000600082015250565b7f546865206e657720737461747573206d7573742062652076616c696400000000600082015250565b7f416d6f756e7420526571756573746564204d757374206265206d6f726520746860008201527f616e2030204350546f6b656e7300000000000000000000000000000000000000602082015250565b7f546865206275796572206d757374206861766520656e6f756768206370546f6b60008201527f656e7320746f20706179207468697320636f6e747261637420616e64206f746860208201527f6572730000000000000000000000000000000000000000000000000000000000604082015250565b7f54686520636f6e7472616374204944206d7573742062652076616c6964000000600082015250565b7f5468652063616c6c6572206d75737420626520436f6c5061792c20746865792060008201527f636f6e74726f6c207768656e206e6577206163636f756e74732061726520697360208201527f737565642074686520746f6b656e732e00000000000000000000000000000000604082015250565b7f5468652063616c6c6572206d75737420626520436f6c5061792c20746865792060008201527f636f6e74726f6c207468652073637269707420666f7220646574656374696e6760208201527f206578706972656420636f6e74726163747320616e64206c697175696461746960408201527f6e67207468656d2e000000000000000000000000000000000000000000000000606082015250565b7f546869732066756e6374696f6e206f6e6c7920697373756573204350546f6b6560008201527f6e7320746f206e6577206163636f756e74730000000000000000000000000000602082015250565b7f456e6f7567682064617973206861766520746f2068617665207061737420696e60008201527f206f7264657220666f722074686520636f6e747261637420746f20616c6c6f7760208201527f20666f72207472616e73616374696f6e73000000000000000000000000000000604082015250565b7f546865206e657720737461747573206d75737420616c6c6f7720666f7220706160008201527f796d656e74000000000000000000000000000000000000000000000000000000602082015250565b7f4f6e6c79204275796572206f7220436f6c5061792063616e206d616b6520747260008201527f616e73616374696f6e7320696e206120636f6e74726163740000000000000000602082015250565b7f546f74616c20616d6f756e742070616964206d757374206e6f74206265206d6f60008201527f7265207468616e2074686520746f74616c2076616c7565206f66205061796d6560208201527f6e74436f6e747261637400000000000000000000000000000000000000000000604082015250565b7f54686520636f6e7472616374206578706972792064617465206d75737420626560008201527f20696e20746865207061737420696e206f7264657220746f206578706972652060208201527f74686520636f6e74726163740000000000000000000000000000000000000000604082015250565b7f53696e63652074686520636f6e7472616374207761732063726561746564206260008201527f79207468652062757965722c206f6e6c79207468652073656c6c65722063616e60208201527f2072656a65637420697400000000000000000000000000000000000000000000604082015250565b6142a2816136de565b81146142ad57600080fd5b50565b6142b9816136f0565b81146142c457600080fd5b50565b6142d08161371c565b81146142db57600080fd5b5056fea26469706673582212206505aa1b52e752bfbbdc44ddb9be05a1d1e38b22a85767da4a7a9ef4e11f68e664736f6c63430008040033",
  "immutableReferences": {},
  "source": "// SPDX-License-Identifier: MIT\npragma solidity 0.8.4;\n\nimport \"./CPToken.sol\" as CPToken;\nimport \"./DateTimeLibrary.sol\" as DateTimeLibrary;\n\ncontract ColPay {\n    string public name;\n    address public owner;\n    uint public contractCount;\n    CPToken.CPToken public cpToken;\n\n    mapping(uint => PaymentContract) public paymentContracts;\n    mapping(uint => Transaction[]) public transactionLists;\n    mapping(address => uint) public totalDebt;\n    mapping(address => uint[]) public paymentContractsHeldPerAddress;\n\n    uint constant NOT_REVIEWED_STATUS = 1;\n    uint constant REJECTED_STATUS = 2;\n    uint constant ACCEPTED_STATUS = 3;\n    uint constant EXPIRED_STATUS = 4;\n    uint constant FULFILLED_STATUS = 5;\n\n    struct Transaction {\n        uint256 date;\n        uint value;\n    }\n\n    struct PaymentContract {\n        uint id;\n        string name;\n        uint totalAmount;\n        uint amountPaid;\n        address buyer;\n        address seller;\n        uint256 startDate;\n        uint256 expiryDate;\n        uint daysToOpen;\n        uint speed;\n        uint contractStatus;\n        bool createdBySeller;\n    }\n\n    event PaymentContractCreated (\n        uint id,\n        string name,\n        uint totalAmount,\n        uint amountPaid,\n        address buyer,\n        address seller,\n        uint256 startDate,\n        uint256 expiryDate,\n        uint daysToOpen,\n        uint speed,\n        uint contractStatus,\n        bool createdBySeller\n    );\n\n    event PaymentContractStatusUpdate (\n        uint id,\n        address statusUpdatedBy,\n        uint contractStatus\n    );\n\n    event TransactionMade (\n        uint256 date,\n        uint contractID,\n        uint value\n    );\n\n    constructor(CPToken.CPToken _cpToken) {\n        name = \"Payment Fragmentation Service\";\n        cpToken = _cpToken;\n        owner = msg.sender;\n        contractCount = 0;\n    }\n\n    // Request Tokens - for new accounts\n    function issueTokens(uint256 _value, address _receipient) public {\n        // Check for valid requests\n        require(msg.sender == owner, \"The caller must be ColPay, they control when new accounts are issued the tokens.\");\n        require(_value > 0, \"Amount Requested Must be more than 0 CPTokens\");\n        require(_value < cpToken.balanceOf(address(this))/100, \"Amount Requested cannot be larger than 1% of current supply\");\n        require(cpToken.balanceOf(msg.sender) == 0 && paymentContractsHeldPerAddress[msg.sender].length == 0, \"This function only issues CPTokens to new accounts\");\n\n        cpToken.transfer(_receipient, _value);\n    }\n\n    // Create Payment Contract\n    function createPaymentContract (string memory _name, uint _totalAmount, address _recipient, uint256 _startDate, uint256 _expiryDate, uint _daysToOpen, uint _speed, bool _createdBySeller) public {\n        // Check for valid requests\n        require(_startDate > _expiryDate, \"The Payment Contract cannot finish before starting\");\n        require(_totalAmount > 0, \"Amount to Pay must be more than 0 CPTokens\");\n        require(bytes(_name).length > 0, \"The name of the Payment Contract must be valid\");\n        require(DateTimeLibrary.DateTimeLibrary.diffDays(_startDate, _expiryDate) / 2 < _daysToOpen, \"The contract must allow transactions before half the time has passed\");\n        require(_speed > 0 && _speed < 100, \"The payment speed of the contract must be between 0 and 100\");\n        require(block.timestamp < _expiryDate, \"The Payment Contract Cannot be already expired\");\n        require(_recipient != msg.sender, \"The buyer cannot be the seller\");\n\n        // Create the Contract\n        address buyer;\n        address seller;\n        if (_createdBySeller){\n            seller = msg.sender;\n            buyer = _recipient;\n        } else {\n            seller = _recipient;\n            buyer = msg.sender;\n        }\n\n        // Check that the buyer will have enough cpTokens to pay this contract and all others.\n        require(totalDebt[buyer] + _totalAmount <= cpToken.balanceOf(buyer), \"The buyer must have enough cpTokens to pay this contract and others\");\n\n        // Update the buyers total debt\n        totalDebt[buyer] = totalDebt[buyer] + _totalAmount;\n\n        paymentContracts[contractCount] = PaymentContract(contractCount, _name, _totalAmount, 0, buyer, seller, _startDate, _expiryDate, _daysToOpen, _speed, NOT_REVIEWED_STATUS, _createdBySeller);\n\n        // Trigger Event\n        emit PaymentContractCreated(contractCount, _name, _totalAmount, 0, buyer, seller, _startDate, _expiryDate, _daysToOpen, _speed, NOT_REVIEWED_STATUS, _createdBySeller);\n\n        // Increment contractCount\n        contractCount ++;\n    }\n\n    // Accept a Payment Contract\n    function acceptPaymentContract(uint _contractID) public {\n        // Check for valid requests\n        require(_contractID > 0 && _contractID <= contractCount, \"The contract ID must be valid\");\n\n        PaymentContract memory _contract = paymentContracts[_contractID];\n        if(_contract.createdBySeller){\n            require (msg.sender == _contract.buyer, \"Since the contract was created by the seller, only the buyer can accept it\");\n        } else {\n            require (msg.sender == _contract.seller, \"Since the contract was created by the buyer, only the seller can accept it\");\n        }\n\n        updatePaymentContractStatus(_contractID, ACCEPTED_STATUS);\n    }\n\n    // Reject a Payment Contract\n    function rejectPaymentContract(uint _contractID) public {\n        // Check for valid requests\n        require(_contractID > 0 && _contractID <= contractCount, \"The contract ID must be valid\");\n\n        PaymentContract memory _contract = paymentContracts[_contractID];\n        if(_contract.createdBySeller){\n            require (msg.sender == _contract.buyer, \"Since the contract was created by the seller, only the buyer can reject it\");\n        } else {\n            require (msg.sender == _contract.seller, \"Since the contract was created by the buyer, only the seller can reject it\");\n        }\n\n        updatePaymentContractStatus(_contractID, REJECTED_STATUS);\n    }\n\n    // Finalize a Payment Contract\n    function expirePaymentContract(uint _contractID) public {\n        // Check for valid requests\n        require(_contractID > 0 && _contractID <= contractCount, \"The contract ID must be valid\");\n\n        PaymentContract memory _contract = paymentContracts[_contractID];\n        require(block.timestamp > _contract.expiryDate, \"The contract expiry date must be in the past in order to expire the contract\");\n\n        uint remainingValue = _contract.totalAmount - _contract.amountPaid;\n\n        makeTransaction(_contractID, remainingValue);\n\n        updatePaymentContractStatus(_contractID, EXPIRED_STATUS);\n    }\n\n    function updatePaymentContractStatus(uint _contractID, uint _newStatusID) private {\n        // Check for valid requests\n        PaymentContract memory _contract = paymentContracts[_contractID];\n\n        require(_newStatusID == NOT_REVIEWED_STATUS || _newStatusID == REJECTED_STATUS || _newStatusID == ACCEPTED_STATUS || _newStatusID == EXPIRED_STATUS, \"The new status must be valid\");\n\n        // Change contract agreement status\n        _contract.contractStatus = _newStatusID;\n        paymentContracts[_contractID] = _contract;\n\n        // Trigger Event\n        emit PaymentContractStatusUpdate(_contractID, msg.sender, _newStatusID);\n\n    }\n\n    // Script to be daily to check for contracts that have expired\n    function checkForExpiredContracts() public {\n        // Only owner can call this function\n        require(msg.sender == owner, \"The caller must be ColPay, they control the script for detecting expired contracts and liquidating them.\");\n\n        // Check for expired contracts\n        for (uint i=0; i<contractCount; i++) {\n            PaymentContract memory _contract = paymentContracts[i];\n            if(block.timestamp > _contract.expiryDate) {\n                expirePaymentContract(i);\n            }\n        }\n    }\n\n    // Make a Transaction\n    // will move value from buyer to seller & update the remaining amount to contract \n    // this function should use from statement in metadata when called \n    function makeTransaction (uint _contractID, uint _value) public { \n        // Check for valid requests\n        require(_contractID > 0 && _contractID <= contractCount, \"The contract ID must be valid\");\n        require(_value > 0, \"Amount to Pay must be more than 0 CPTokens\");\n\n        PaymentContract memory _contract = paymentContracts[_contractID];\n        uint totalPayment = _contract.amountPaid + _value;\n        require(totalPayment <= _contract.totalAmount, \"Total amount paid must not be more than the total value of PaymentContract\");\n        require(_contract.contractStatus == ACCEPTED_STATUS, \"The new status must allow for payment\");\n        require(cpToken.balanceOf(msg.sender) >= _value, \"The buyer must have enough CPTokens to complete the transaction.\" );\n        require(_contract.buyer == msg.sender || owner == msg.sender, \"Only Buyer or ColPay can make transactions in a contract\");\n        require(block.timestamp > DateTimeLibrary.DateTimeLibrary.addDays(_contract.startDate, _contract.daysToOpen), \"Enough days have to have past in order for the contract to allow for transactions\");\n\n        uint totalContractTime = DateTimeLibrary.DateTimeLibrary.diffSeconds(_contract.startDate, _contract.expiryDate);\n        uint elapsedContractTime = DateTimeLibrary.DateTimeLibrary.diffSeconds(_contract.startDate, block.timestamp);\n        uint percentageOfElapsedTime = (elapsedContractTime * 100) / totalContractTime;\n        uint percentagePayable = (percentageOfElapsedTime * _contract.speed)/ 100;\n        uint maxTotalCurrentTotalPayment = (percentagePayable * _contract.totalAmount) / 100;\n\n        require(maxTotalCurrentTotalPayment <= _contract.amountPaid + _value, \"The Contract cannot exceed the maximum amount allowed by the speed.\");\n\n        // Add transaction to List of all transactions for that contract\n        transactionLists[_contractID].push(Transaction(block.timestamp, _value));\n\n        // Make transaction of cpTokens\n        cpToken.transfer(_contract.seller, _value);\n\n        // Update the amount of the contract paid\n        _contract.amountPaid = totalPayment;\n\n        // Update contract status if necessary\n        if(totalPayment == _contract.totalAmount){\n            updatePaymentContractStatus(_contractID, FULFILLED_STATUS);\n        }\n\n        paymentContracts[_contractID] = _contract;\n\n        emit TransactionMade(block.timestamp, _contractID, _value);\n\n    }\n\n}",
  "sourcePath": "/Users/coverwallet/Documents/Personal/Blockchain/ColPay/src/contracts/ColPay.sol",
  "compiler": {
    "name": "solc",
    "version": "0.8.4+commit.c7e474f2.Emscripten.clang"
  },
  "schemaVersion": "3.4.1",
  "updatedAt": "2021-05-15T21:58:14.301Z",
  "networkType": "ethereum",
  "devdoc": {
    "kind": "dev",
    "methods": {},
    "version": 1
  },
  "userdoc": {
    "kind": "user",
    "methods": {},
    "version": 1
  }
}