{
  "contractName": "ColPay",
  "abi": [
    {
      "inputs": [
        {
          "internalType": "contract CPToken",
          "name": "_cpToken",
          "type": "address"
        }
      ],
      "stateMutability": "nonpayable",
      "type": "constructor"
    },
    {
      "inputs": [],
      "name": "cpToken",
      "outputs": [
        {
          "internalType": "contract CPToken",
          "name": "",
          "type": "address"
        }
      ],
      "stateMutability": "view",
      "type": "function",
      "constant": true
    },
    {
      "inputs": [],
      "name": "name",
      "outputs": [
        {
          "internalType": "string",
          "name": "",
          "type": "string"
        }
      ],
      "stateMutability": "view",
      "type": "function",
      "constant": true
    },
    {
      "inputs": [],
      "name": "owner",
      "outputs": [
        {
          "internalType": "address",
          "name": "",
          "type": "address"
        }
      ],
      "stateMutability": "view",
      "type": "function",
      "constant": true
    },
    {
      "inputs": [
        {
          "internalType": "uint256",
          "name": "",
          "type": "uint256"
        }
      ],
      "name": "paymentContracts",
      "outputs": [
        {
          "internalType": "uint256",
          "name": "id",
          "type": "uint256"
        },
        {
          "internalType": "string",
          "name": "name",
          "type": "string"
        },
        {
          "internalType": "uint256",
          "name": "totalAmount",
          "type": "uint256"
        },
        {
          "internalType": "uint256",
          "name": "amountPayed",
          "type": "uint256"
        },
        {
          "internalType": "address",
          "name": "buyer",
          "type": "address"
        },
        {
          "internalType": "address payable",
          "name": "seller",
          "type": "address"
        },
        {
          "internalType": "uint256",
          "name": "startDate",
          "type": "uint256"
        },
        {
          "internalType": "uint256",
          "name": "expiryDate",
          "type": "uint256"
        },
        {
          "internalType": "bool",
          "name": "completed",
          "type": "bool"
        }
      ],
      "stateMutability": "view",
      "type": "function",
      "constant": true
    },
    {
      "inputs": [
        {
          "internalType": "address",
          "name": "",
          "type": "address"
        },
        {
          "internalType": "uint256",
          "name": "",
          "type": "uint256"
        }
      ],
      "name": "paymentContractsHeldPerAddress",
      "outputs": [
        {
          "internalType": "uint256",
          "name": "",
          "type": "uint256"
        }
      ],
      "stateMutability": "view",
      "type": "function",
      "constant": true
    },
    {
      "inputs": [
        {
          "internalType": "uint256",
          "name": "_value",
          "type": "uint256"
        }
      ],
      "name": "requestTokens",
      "outputs": [],
      "stateMutability": "nonpayable",
      "type": "function"
    }
  ],
  "bytecode": "0x60806040523480156200001157600080fd5b5060405162000fdd38038062000fdd8339818101604052810190620000379190620001d5565b6040518060400160405280601d81526020017f5061796d656e7420467261676d656e746174696f6e205365727669636500000081525060009080519060200190620000849291906200010e565b5080600260006101000a81548173ffffffffffffffffffffffffffffffffffffffff021916908373ffffffffffffffffffffffffffffffffffffffff16021790555033600160006101000a81548173ffffffffffffffffffffffffffffffffffffffff021916908373ffffffffffffffffffffffffffffffffffffffff16021790555050620002c8565b8280546200011c9062000249565b90600052602060002090601f0160209004810192826200014057600085556200018c565b82601f106200015b57805160ff19168380011785556200018c565b828001600101855582156200018c579182015b828111156200018b5782518255916020019190600101906200016e565b5b5090506200019b91906200019f565b5090565b5b80821115620001ba576000816000905550600101620001a0565b5090565b600081519050620001cf81620002ae565b92915050565b600060208284031215620001e857600080fd5b6000620001f884828501620001be565b91505092915050565b60006200020e8262000229565b9050919050565b6000620002228262000201565b9050919050565b600073ffffffffffffffffffffffffffffffffffffffff82169050919050565b600060028204905060018216806200026257607f821691505b602082108114156200027957620002786200027f565b5b50919050565b7f4e487b7100000000000000000000000000000000000000000000000000000000600052602260045260246000fd5b620002b98162000215565b8114620002c557600080fd5b50565b610d0580620002d86000396000f3fe608060405234801561001057600080fd5b50600436106100625760003560e01c806306fdde0314610067578063125153f6146100855780631b4a5cc8146100b557806369f00a36146100d35780638da5cb5b1461010b578063eef9c27c14610129575b600080fd5b61006f610145565b60405161007c91906108f3565b60405180910390f35b61009f600480360381019061009a91906106f0565b6101d3565b6040516100ac9190610975565b60405180910390f35b6100bd610204565b6040516100ca91906108d8565b60405180910390f35b6100ed60048036038101906100e89190610755565b61022a565b60405161010299989796959493929190610990565b60405180910390f35b61011361034d565b6040516101209190610894565b60405180910390f35b610143600480360381019061013e9190610755565b610373565b005b6000805461015290610b22565b80601f016020809104026020016040519081016040528092919081815260200182805461017e90610b22565b80156101cb5780601f106101a0576101008083540402835291602001916101cb565b820191906000526020600020905b8154815290600101906020018083116101ae57829003601f168201915b505050505081565b600460205281600052604060002081815481106101ef57600080fd5b90600052602060002001600091509150505481565b600260009054906101000a900473ffffffffffffffffffffffffffffffffffffffff1681565b600360205280600052604060002060009150905080600001549080600101805461025390610b22565b80601f016020809104026020016040519081016040528092919081815260200182805461027f90610b22565b80156102cc5780601f106102a1576101008083540402835291602001916102cc565b820191906000526020600020905b8154815290600101906020018083116102af57829003601f168201915b5050505050908060020154908060030154908060040160009054906101000a900473ffffffffffffffffffffffffffffffffffffffff16908060050160009054906101000a900473ffffffffffffffffffffffffffffffffffffffff16908060070154908060080154908060090160009054906101000a900460ff16905089565b600160009054906101000a900473ffffffffffffffffffffffffffffffffffffffff1681565b600081116103b6576040517f08c379a00000000000000000000000000000000000000000000000000000000081526004016103ad90610955565b60405180910390fd5b600a600260009054906101000a900473ffffffffffffffffffffffffffffffffffffffff1673ffffffffffffffffffffffffffffffffffffffff166370a08231306040518263ffffffff1660e01b81526004016104139190610894565b60206040518083038186803b15801561042b57600080fd5b505afa15801561043f573d6000803e3d6000fd5b505050506040513d601f19601f82011682018060405250810190610463919061077e565b61046d9190610a40565b81106104ae576040517f08c379a00000000000000000000000000000000000000000000000000000000081526004016104a590610935565b60405180910390fd5b6000600260009054906101000a900473ffffffffffffffffffffffffffffffffffffffff1673ffffffffffffffffffffffffffffffffffffffff166370a08231336040518263ffffffff1660e01b815260040161050b9190610894565b60206040518083038186803b15801561052357600080fd5b505afa158015610537573d6000803e3d6000fd5b505050506040513d601f19601f8201168201806040525081019061055b919061077e565b1480156105aa57506000600460003373ffffffffffffffffffffffffffffffffffffffff1673ffffffffffffffffffffffffffffffffffffffff16815260200190815260200160002080549050145b6105e9576040517f08c379a00000000000000000000000000000000000000000000000000000000081526004016105e090610915565b60405180910390fd5b600260009054906101000a900473ffffffffffffffffffffffffffffffffffffffff1673ffffffffffffffffffffffffffffffffffffffff1663a9059cbb33836040518363ffffffff1660e01b81526004016106469291906108af565b602060405180830381600087803b15801561066057600080fd5b505af1158015610674573d6000803e3d6000fd5b505050506040513d601f19601f82011682018060405250810190610698919061072c565b5050565b6000813590506106ab81610c8a565b92915050565b6000815190506106c081610ca1565b92915050565b6000813590506106d581610cb8565b92915050565b6000815190506106ea81610cb8565b92915050565b6000806040838503121561070357600080fd5b60006107118582860161069c565b9250506020610722858286016106c6565b9150509250929050565b60006020828403121561073e57600080fd5b600061074c848285016106b1565b91505092915050565b60006020828403121561076757600080fd5b6000610775848285016106c6565b91505092915050565b60006020828403121561079057600080fd5b600061079e848285016106db565b91505092915050565b6107b081610a83565b82525050565b6107bf81610a71565b82525050565b6107ce81610a95565b82525050565b6107dd81610acb565b82525050565b60006107ee82610a24565b6107f88185610a2f565b9350610808818560208601610aef565b61081181610bb2565b840191505092915050565b6000610829602183610a2f565b915061083482610bc3565b604082019050919050565b600061084c603283610a2f565b915061085782610c12565b604082019050919050565b600061086f601c83610a2f565b915061087a82610c61565b602082019050919050565b61088e81610ac1565b82525050565b60006020820190506108a960008301846107b6565b92915050565b60006040820190506108c460008301856107b6565b6108d16020830184610885565b9392505050565b60006020820190506108ed60008301846107d4565b92915050565b6000602082019050818103600083015261090d81846107e3565b905092915050565b6000602082019050818103600083015261092e8161081c565b9050919050565b6000602082019050818103600083015261094e8161083f565b9050919050565b6000602082019050818103600083015261096e81610862565b9050919050565b600060208201905061098a6000830184610885565b92915050565b6000610120820190506109a6600083018c610885565b81810360208301526109b8818b6107e3565b90506109c7604083018a610885565b6109d46060830189610885565b6109e160808301886107b6565b6109ee60a08301876107a7565b6109fb60c0830186610885565b610a0860e0830185610885565b610a166101008301846107c5565b9a9950505050505050505050565b600081519050919050565b600082825260208201905092915050565b6000610a4b82610ac1565b9150610a5683610ac1565b925082610a6657610a65610b54565b5b828204905092915050565b6000610a7c82610aa1565b9050919050565b6000610a8e82610aa1565b9050919050565b60008115159050919050565b600073ffffffffffffffffffffffffffffffffffffffff82169050919050565b6000819050919050565b6000610ad682610add565b9050919050565b6000610ae882610aa1565b9050919050565b60005b83811015610b0d578082015181840152602081019050610af2565b83811115610b1c576000848401525b50505050565b60006002820490506001821680610b3a57607f821691505b60208210811415610b4e57610b4d610b83565b5b50919050565b7f4e487b7100000000000000000000000000000000000000000000000000000000600052601260045260246000fd5b7f4e487b7100000000000000000000000000000000000000000000000000000000600052602260045260246000fd5b6000601f19601f8301169050919050565b7f6f6e6c7920697373756520746f6b656e7320746f206e6577206163636f756e7460008201527f7300000000000000000000000000000000000000000000000000000000000000602082015250565b7f616d6f756e742063616e6e6f74206265206c6172676572207468616e2031302560008201527f206f662063757272656e7420737570706c790000000000000000000000000000602082015250565b7f416d6f756e74205265717565737465642043616e6e6f74206265203000000000600082015250565b610c9381610a71565b8114610c9e57600080fd5b50565b610caa81610a95565b8114610cb557600080fd5b50565b610cc181610ac1565b8114610ccc57600080fd5b5056fea26469706673582212207483b65d68839f0457a5dca8ce0aa079ac0fa03b3f0c70ac9508baa9a475668f64736f6c63430008040033",
  "immutableReferences": {},
  "source": "// SPDX-License-Identifier: MIT\npragma solidity 0.8.4;\n\nimport \"./CPToken.sol\" as CPToken;\n\ncontract ColPay {\n    string public name;\n    address public owner;\n    CPToken.CPToken public cpToken;\n\n    mapping(uint => PaymentContract) public paymentContracts;\n    mapping(address => uint[]) public paymentContractsHeldPerAddress;\n\n    struct Transaction {\n        uint256 date;\n        uint value;\n    }\n\n    struct PaymentContract {\n        uint id;\n        string name;\n        uint totalAmount;\n        uint amountPayed;\n        address buyer;\n        address payable seller;\n        Transaction[] transactions;\n        uint256 startDate;\n        uint256 expiryDate;\n        bool completed;\n    }\n\n    constructor(CPToken.CPToken _cpToken) {\n        name = \"Payment Fragmentation Service\";\n        cpToken = _cpToken;\n        owner = msg.sender;\n    }\n\n    // Request Tokens - for new accounts\n    function requestTokens(uint256 _value) public {\n        // check for valid requests\n        require(_value > 0, \"Amount Requested Cannot be 0\");\n        require(_value < cpToken.balanceOf(address(this))/10, \"amount cannot be larger than 10% of current supply\");\n        require(cpToken.balanceOf(msg.sender) == 0 && paymentContractsHeldPerAddress[msg.sender].length == 0, \"only issue tokens to new accounts\");\n\n        cpToken.transfer(msg.sender, _value);\n    }\n\n    // Create Transactions\n\n    // Request a Payment\n\n    // Make a Payment\n\n    // Liquidate contract?\n\n    // Purchase a contract?\n}",
  "sourcePath": "/Users/coverwallet/Documents/Personal/Blockchain/ColPay/src/contracts/ColPay.sol",
  "compiler": {
    "name": "solc",
    "version": "0.8.4+commit.c7e474f2.Emscripten.clang"
  },
  "schemaVersion": "3.4.1",
  "updatedAt": "2021-05-15T17:08:30.755Z",
  "networkType": "ethereum",
  "devdoc": {
    "kind": "dev",
    "methods": {},
    "version": 1
  },
  "userdoc": {
    "kind": "user",
    "methods": {},
    "version": 1
  }
}