{
  "contractName": "ColPay",
  "abi": [
    {
      "inputs": [
        {
          "internalType": "contract CPToken",
          "name": "_cpToken",
          "type": "address"
        }
      ],
      "stateMutability": "nonpayable",
      "type": "constructor"
    },
    {
      "anonymous": false,
      "inputs": [
        {
          "indexed": false,
          "internalType": "uint256",
          "name": "id",
          "type": "uint256"
        },
        {
          "indexed": false,
          "internalType": "string",
          "name": "name",
          "type": "string"
        },
        {
          "indexed": false,
          "internalType": "uint256",
          "name": "totalAmount",
          "type": "uint256"
        },
        {
          "indexed": false,
          "internalType": "uint256",
          "name": "amountPaid",
          "type": "uint256"
        },
        {
          "indexed": false,
          "internalType": "address",
          "name": "buyer",
          "type": "address"
        },
        {
          "indexed": false,
          "internalType": "address",
          "name": "seller",
          "type": "address"
        },
        {
          "indexed": false,
          "internalType": "uint256",
          "name": "startDate",
          "type": "uint256"
        },
        {
          "indexed": false,
          "internalType": "uint256",
          "name": "expiryDate",
          "type": "uint256"
        },
        {
          "indexed": false,
          "internalType": "uint256",
          "name": "daysToOpen",
          "type": "uint256"
        },
        {
          "indexed": false,
          "internalType": "uint256",
          "name": "speed",
          "type": "uint256"
        },
        {
          "indexed": false,
          "internalType": "uint256",
          "name": "contractStatus",
          "type": "uint256"
        },
        {
          "indexed": false,
          "internalType": "bool",
          "name": "createdBySeller",
          "type": "bool"
        }
      ],
      "name": "PaymentContractCreated",
      "type": "event"
    },
    {
      "anonymous": false,
      "inputs": [
        {
          "indexed": false,
          "internalType": "uint256",
          "name": "id",
          "type": "uint256"
        },
        {
          "indexed": false,
          "internalType": "address",
          "name": "statusUpdatedBy",
          "type": "address"
        },
        {
          "indexed": false,
          "internalType": "uint256",
          "name": "contractStatus",
          "type": "uint256"
        }
      ],
      "name": "PaymentContractStatusUpdate",
      "type": "event"
    },
    {
      "inputs": [],
      "name": "contractCount",
      "outputs": [
        {
          "internalType": "uint256",
          "name": "",
          "type": "uint256"
        }
      ],
      "stateMutability": "view",
      "type": "function",
      "constant": true
    },
    {
      "inputs": [],
      "name": "cpToken",
      "outputs": [
        {
          "internalType": "contract CPToken",
          "name": "",
          "type": "address"
        }
      ],
      "stateMutability": "view",
      "type": "function",
      "constant": true
    },
    {
      "inputs": [],
      "name": "name",
      "outputs": [
        {
          "internalType": "string",
          "name": "",
          "type": "string"
        }
      ],
      "stateMutability": "view",
      "type": "function",
      "constant": true
    },
    {
      "inputs": [],
      "name": "owner",
      "outputs": [
        {
          "internalType": "address",
          "name": "",
          "type": "address"
        }
      ],
      "stateMutability": "view",
      "type": "function",
      "constant": true
    },
    {
      "inputs": [
        {
          "internalType": "uint256",
          "name": "",
          "type": "uint256"
        }
      ],
      "name": "paymentContracts",
      "outputs": [
        {
          "internalType": "uint256",
          "name": "id",
          "type": "uint256"
        },
        {
          "internalType": "string",
          "name": "name",
          "type": "string"
        },
        {
          "internalType": "uint256",
          "name": "totalAmount",
          "type": "uint256"
        },
        {
          "internalType": "uint256",
          "name": "amountPaid",
          "type": "uint256"
        },
        {
          "internalType": "address",
          "name": "buyer",
          "type": "address"
        },
        {
          "internalType": "address",
          "name": "seller",
          "type": "address"
        },
        {
          "internalType": "uint256",
          "name": "startDate",
          "type": "uint256"
        },
        {
          "internalType": "uint256",
          "name": "expiryDate",
          "type": "uint256"
        },
        {
          "internalType": "uint256",
          "name": "daysToOpen",
          "type": "uint256"
        },
        {
          "internalType": "uint256",
          "name": "speed",
          "type": "uint256"
        },
        {
          "internalType": "uint256",
          "name": "contractStatus",
          "type": "uint256"
        },
        {
          "internalType": "bool",
          "name": "createdBySeller",
          "type": "bool"
        }
      ],
      "stateMutability": "view",
      "type": "function",
      "constant": true
    },
    {
      "inputs": [
        {
          "internalType": "address",
          "name": "",
          "type": "address"
        },
        {
          "internalType": "uint256",
          "name": "",
          "type": "uint256"
        }
      ],
      "name": "paymentContractsHeldPerAddress",
      "outputs": [
        {
          "internalType": "uint256",
          "name": "",
          "type": "uint256"
        }
      ],
      "stateMutability": "view",
      "type": "function",
      "constant": true
    },
    {
      "inputs": [
        {
          "internalType": "uint256",
          "name": "",
          "type": "uint256"
        },
        {
          "internalType": "uint256",
          "name": "",
          "type": "uint256"
        }
      ],
      "name": "transactionLists",
      "outputs": [
        {
          "internalType": "uint256",
          "name": "date",
          "type": "uint256"
        },
        {
          "internalType": "uint256",
          "name": "value",
          "type": "uint256"
        }
      ],
      "stateMutability": "view",
      "type": "function",
      "constant": true
    },
    {
      "inputs": [
        {
          "internalType": "uint256",
          "name": "_value",
          "type": "uint256"
        },
        {
          "internalType": "address",
          "name": "_receipient",
          "type": "address"
        }
      ],
      "name": "issueTokens",
      "outputs": [],
      "stateMutability": "nonpayable",
      "type": "function"
    },
    {
      "inputs": [
        {
          "internalType": "string",
          "name": "_name",
          "type": "string"
        },
        {
          "internalType": "uint256",
          "name": "_totalAmount",
          "type": "uint256"
        },
        {
          "internalType": "address",
          "name": "_recipient",
          "type": "address"
        },
        {
          "internalType": "uint256",
          "name": "_startDate",
          "type": "uint256"
        },
        {
          "internalType": "uint256",
          "name": "_expiryDate",
          "type": "uint256"
        },
        {
          "internalType": "uint256",
          "name": "_daysToOpen",
          "type": "uint256"
        },
        {
          "internalType": "uint256",
          "name": "_speed",
          "type": "uint256"
        },
        {
          "internalType": "bool",
          "name": "_createdBySeller",
          "type": "bool"
        }
      ],
      "name": "createPaymentContract",
      "outputs": [],
      "stateMutability": "nonpayable",
      "type": "function"
    },
    {
      "inputs": [
        {
          "internalType": "uint256",
          "name": "_contractID",
          "type": "uint256"
        }
      ],
      "name": "acceptPaymentContract",
      "outputs": [],
      "stateMutability": "nonpayable",
      "type": "function"
    },
    {
      "inputs": [
        {
          "internalType": "uint256",
          "name": "_contractID",
          "type": "uint256"
        }
      ],
      "name": "rejectPaymentContract",
      "outputs": [],
      "stateMutability": "nonpayable",
      "type": "function"
    },
    {
      "inputs": [
        {
          "internalType": "uint256",
          "name": "_contractID",
          "type": "uint256"
        }
      ],
      "name": "expirePaymentContract",
      "outputs": [],
      "stateMutability": "nonpayable",
      "type": "function"
    },
    {
      "inputs": [],
      "name": "checkForExpiredContracts",
      "outputs": [],
      "stateMutability": "nonpayable",
      "type": "function"
    },
    {
      "inputs": [
        {
          "internalType": "uint256",
          "name": "_contractID",
          "type": "uint256"
        },
        {
          "internalType": "uint256",
          "name": "_value",
          "type": "uint256"
        }
      ],
      "name": "makeTransaction",
      "outputs": [],
      "stateMutability": "nonpayable",
      "type": "function"
    }
  ],
  "bytecode": "0x60806040523480156200001157600080fd5b506040516200356e3803806200356e8339818101604052810190620000379190620001dd565b6040518060400160405280601d81526020017f5061796d656e7420467261676d656e746174696f6e2053657276696365000000815250600090805190602001906200008492919062000116565b5080600360006101000a81548173ffffffffffffffffffffffffffffffffffffffff021916908373ffffffffffffffffffffffffffffffffffffffff16021790555033600160006101000a81548173ffffffffffffffffffffffffffffffffffffffff021916908373ffffffffffffffffffffffffffffffffffffffff160217905550600060028190555050620002d0565b828054620001249062000251565b90600052602060002090601f01602090048101928262000148576000855562000194565b82601f106200016357805160ff191683800117855562000194565b8280016001018555821562000194579182015b828111156200019357825182559160200191906001019062000176565b5b509050620001a39190620001a7565b5090565b5b80821115620001c2576000816000905550600101620001a8565b5090565b600081519050620001d781620002b6565b92915050565b600060208284031215620001f057600080fd5b60006200020084828501620001c6565b91505092915050565b6000620002168262000231565b9050919050565b60006200022a8262000209565b9050919050565b600073ffffffffffffffffffffffffffffffffffffffff82169050919050565b600060028204905060018216806200026a57607f821691505b6020821081141562000281576200028062000287565b5b50919050565b7f4e487b7100000000000000000000000000000000000000000000000000000000600052602260045260246000fd5b620002c1816200021d565b8114620002cd57600080fd5b50565b61328e80620002e06000396000f3fe608060405234801561001057600080fd5b50600436106100ea5760003560e01c80637ad5be881161008c578063939626ea11610066578063939626ea146102425780639baca1ce1461025e578063d0f0fc781461028f578063dabd94f5146102ab576100ea565b80637ad5be88146101ea5780638736381a146102065780638da5cb5b14610224576100ea565b80632c999e55116100c85780632c999e551461015b5780632cd73dab1461017757806342ff1f1b1461019357806369f00a36146101af576100ea565b806306fdde03146100ef578063125153f61461010d5780631b4a5cc81461013d575b600080fd5b6100f76102b5565b604051610104919061239d565b60405180910390f35b61012760048036038101906101229190611e28565b610343565b604051610134919061261f565b60405180910390f35b610145610374565b6040516101529190612382565b60405180910390f35b61017560048036038101906101709190611f57565b61039a565b005b610191600480360381019061018c9190611f57565b6106bb565b005b6101ad60048036038101906101a89190611f57565b6109dc565b005b6101c960048036038101906101c49190611f57565b610c71565b6040516101e19c9b9a99989796959493929190612732565b60405180910390f35b61020460048036038101906101ff9190611fa9565b610da6565b005b61020e611160565b60405161021b919061261f565b60405180910390f35b61022c611166565b604051610239919061233e565b60405180910390f35b61025c60048036038101906102579190611e8d565b61118c565b005b61027860048036038101906102739190611fe5565b6115f7565b6040516102869291906127f3565b60405180910390f35b6102a960048036038101906102a49190611fe5565b611638565b005b6102b361163c565b005b600080546102c2906129b3565b80601f01602080910402602001604051908101604052809291908181526020018280546102ee906129b3565b801561033b5780601f106103105761010080835404028352916020019161033b565b820191906000526020600020905b81548152906001019060200180831161031e57829003601f168201915b505050505081565b6006602052816000526040600020818154811061035f57600080fd5b90600052602060002001600091509150505481565b600360009054906101000a900473ffffffffffffffffffffffffffffffffffffffff1681565b6000811180156103ac57506002548111155b6103eb576040517f08c379a00000000000000000000000000000000000000000000000000000000081526004016103e29061255f565b60405180910390fd5b6000600460008381526020019081526020016000206040518061018001604052908160008201548152602001600182018054610426906129b3565b80601f0160208091040260200160405190810160405280929190818152602001828054610452906129b3565b801561049f5780601f106104745761010080835404028352916020019161049f565b820191906000526020600020905b81548152906001019060200180831161048257829003601f168201915b5050505050815260200160028201548152602001600382015481526020016004820160009054906101000a900473ffffffffffffffffffffffffffffffffffffffff1673ffffffffffffffffffffffffffffffffffffffff1673ffffffffffffffffffffffffffffffffffffffff1681526020016005820160009054906101000a900473ffffffffffffffffffffffffffffffffffffffff1673ffffffffffffffffffffffffffffffffffffffff1673ffffffffffffffffffffffffffffffffffffffff16815260200160068201548152602001600782015481526020016008820154815260200160098201548152602001600a8201548152602001600b820160009054906101000a900460ff16151515158152505090508061016001511561063957806080015173ffffffffffffffffffffffffffffffffffffffff163373ffffffffffffffffffffffffffffffffffffffff1614610634576040517f08c379a000000000000000000000000000000000000000000000000000000000815260040161062b906123df565b60405180910390fd5b6106ac565b8060a0015173ffffffffffffffffffffffffffffffffffffffff163373ffffffffffffffffffffffffffffffffffffffff16146106ab576040517f08c379a00000000000000000000000000000000000000000000000000000000081526004016106a2906125ff565b60405180910390fd5b5b6106b78260026118d2565b5050565b6000811180156106cd57506002548111155b61070c576040517f08c379a00000000000000000000000000000000000000000000000000000000081526004016107039061255f565b60405180910390fd5b6000600460008381526020019081526020016000206040518061018001604052908160008201548152602001600182018054610747906129b3565b80601f0160208091040260200160405190810160405280929190818152602001828054610773906129b3565b80156107c05780601f10610795576101008083540402835291602001916107c0565b820191906000526020600020905b8154815290600101906020018083116107a357829003601f168201915b5050505050815260200160028201548152602001600382015481526020016004820160009054906101000a900473ffffffffffffffffffffffffffffffffffffffff1673ffffffffffffffffffffffffffffffffffffffff1673ffffffffffffffffffffffffffffffffffffffff1681526020016005820160009054906101000a900473ffffffffffffffffffffffffffffffffffffffff1673ffffffffffffffffffffffffffffffffffffffff1673ffffffffffffffffffffffffffffffffffffffff16815260200160068201548152602001600782015481526020016008820154815260200160098201548152602001600a8201548152602001600b820160009054906101000a900460ff16151515158152505090508061016001511561095a57806080015173ffffffffffffffffffffffffffffffffffffffff163373ffffffffffffffffffffffffffffffffffffffff1614610955576040517f08c379a000000000000000000000000000000000000000000000000000000000815260040161094c9061247f565b60405180910390fd5b6109cd565b8060a0015173ffffffffffffffffffffffffffffffffffffffff163373ffffffffffffffffffffffffffffffffffffffff16146109cc576040517f08c379a00000000000000000000000000000000000000000000000000000000081526004016109c3906123bf565b60405180910390fd5b5b6109d88260036118d2565b5050565b6000811180156109ee57506002548111155b610a2d576040517f08c379a0000000000000000000000000000000000000000000000000000000008152600401610a249061255f565b60405180910390fd5b6000600460008381526020019081526020016000206040518061018001604052908160008201548152602001600182018054610a68906129b3565b80601f0160208091040260200160405190810160405280929190818152602001828054610a94906129b3565b8015610ae15780601f10610ab657610100808354040283529160200191610ae1565b820191906000526020600020905b815481529060010190602001808311610ac457829003601f168201915b5050505050815260200160028201548152602001600382015481526020016004820160009054906101000a900473ffffffffffffffffffffffffffffffffffffffff1673ffffffffffffffffffffffffffffffffffffffff1673ffffffffffffffffffffffffffffffffffffffff1681526020016005820160009054906101000a900473ffffffffffffffffffffffffffffffffffffffff1673ffffffffffffffffffffffffffffffffffffffff1673ffffffffffffffffffffffffffffffffffffffff16815260200160068201548152602001600782015481526020016008820154815260200160098201548152602001600a8201548152602001600b820160009054906101000a900460ff16151515158152505090508060e001514211610c3f576040517f08c379a0000000000000000000000000000000000000000000000000000000008152600401610c36906125df565b60405180910390fd5b600081606001518260400151610c5591906128bf565b9050610c618382611638565b610c6c8360046118d2565b505050565b6004602052806000526040600020600091509050806000015490806001018054610c9a906129b3565b80601f0160208091040260200160405190810160405280929190818152602001828054610cc6906129b3565b8015610d135780601f10610ce857610100808354040283529160200191610d13565b820191906000526020600020905b815481529060010190602001808311610cf657829003601f168201915b5050505050908060020154908060030154908060040160009054906101000a900473ffffffffffffffffffffffffffffffffffffffff16908060050160009054906101000a900473ffffffffffffffffffffffffffffffffffffffff169080600601549080600701549080600801549080600901549080600a01549080600b0160009054906101000a900460ff1690508c565b600160009054906101000a900473ffffffffffffffffffffffffffffffffffffffff1673ffffffffffffffffffffffffffffffffffffffff163373ffffffffffffffffffffffffffffffffffffffff1614610e36576040517f08c379a0000000000000000000000000000000000000000000000000000000008152600401610e2d9061257f565b60405180910390fd5b60008211610e79576040517f08c379a0000000000000000000000000000000000000000000000000000000008152600401610e709061253f565b60405180910390fd5b6064600360009054906101000a900473ffffffffffffffffffffffffffffffffffffffff1673ffffffffffffffffffffffffffffffffffffffff166370a08231306040518263ffffffff1660e01b8152600401610ed6919061233e565b60206040518083038186803b158015610eee57600080fd5b505afa158015610f02573d6000803e3d6000fd5b505050506040513d601f19601f82011682018060405250810190610f269190611f80565b610f30919061288e565b8210610f71576040517f08c379a0000000000000000000000000000000000000000000000000000000008152600401610f68906124bf565b60405180910390fd5b6000600360009054906101000a900473ffffffffffffffffffffffffffffffffffffffff1673ffffffffffffffffffffffffffffffffffffffff166370a08231336040518263ffffffff1660e01b8152600401610fce919061233e565b60206040518083038186803b158015610fe657600080fd5b505afa158015610ffa573d6000803e3d6000fd5b505050506040513d601f19601f8201168201806040525081019061101e9190611f80565b14801561106d57506000600660003373ffffffffffffffffffffffffffffffffffffffff1673ffffffffffffffffffffffffffffffffffffffff16815260200190815260200160002080549050145b6110ac576040517f08c379a00000000000000000000000000000000000000000000000000000000081526004016110a3906125bf565b60405180910390fd5b600360009054906101000a900473ffffffffffffffffffffffffffffffffffffffff1673ffffffffffffffffffffffffffffffffffffffff1663a9059cbb82846040518363ffffffff1660e01b8152600401611109929190612359565b602060405180830381600087803b15801561112357600080fd5b505af1158015611137573d6000803e3d6000fd5b505050506040513d601f19601f8201168201806040525081019061115b9190611e64565b505050565b60025481565b600160009054906101000a900473ffffffffffffffffffffffffffffffffffffffff1681565b8385116111ce576040517f08c379a00000000000000000000000000000000000000000000000000000000081526004016111c59061245f565b60405180910390fd5b60008711611211576040517f08c379a00000000000000000000000000000000000000000000000000000000081526004016112089061241f565b60405180910390fd5b6000885111611255576040517f08c379a000000000000000000000000000000000000000000000000000000000815260040161124c906124ff565b60405180910390fd5b8260026112628787611c83565b61126c919061288e565b106112ac576040517f08c379a00000000000000000000000000000000000000000000000000000000081526004016112a3906123ff565b60405180910390fd5b6000821180156112bc5750606482105b6112fb576040517f08c379a00000000000000000000000000000000000000000000000000000000081526004016112f29061249f565b60405180910390fd5b83421061133d576040517f08c379a0000000000000000000000000000000000000000000000000000000008152600401611334906124df565b60405180910390fd5b3373ffffffffffffffffffffffffffffffffffffffff168673ffffffffffffffffffffffffffffffffffffffff1614156113ac576040517f08c379a00000000000000000000000000000000000000000000000000000000081526004016113a39061251f565b60405180910390fd5b60008082156113c0573390508791506113c7565b8790503391505b60405180610180016040528060025481526020018b81526020018a8152602001600081526020018373ffffffffffffffffffffffffffffffffffffffff1681526020018273ffffffffffffffffffffffffffffffffffffffff16815260200188815260200187815260200186815260200185815260200160018152602001841515815250600460006002548152602001908152602001600020600082015181600001556020820151816001019080519060200190611486929190611cb4565b50604082015181600201556060820151816003015560808201518160040160006101000a81548173ffffffffffffffffffffffffffffffffffffffff021916908373ffffffffffffffffffffffffffffffffffffffff16021790555060a08201518160050160006101000a81548173ffffffffffffffffffffffffffffffffffffffff021916908373ffffffffffffffffffffffffffffffffffffffff16021790555060c0820151816006015560e082015181600701556101008201518160080155610120820151816009015561014082015181600a015561016082015181600b0160006101000a81548160ff0219169083151502179055509050507f79bfcb54b3bcb25901d31a541e63fd14023cf570d0633be12d45d9dfe2d237e26002548b8b600086868d8d8d8d60018e6040516115cb9c9b9a99989796959493929190612671565b60405180910390a1600260008154809291906115e690612a16565b919050555050505050505050505050565b6005602052816000526040600020818154811061161357600080fd5b9060005260206000209060020201600091509150508060000154908060010154905082565b5050565b600160009054906101000a900473ffffffffffffffffffffffffffffffffffffffff1673ffffffffffffffffffffffffffffffffffffffff163373ffffffffffffffffffffffffffffffffffffffff16146116cc576040517f08c379a00000000000000000000000000000000000000000000000000000000081526004016116c39061259f565b60405180910390fd5b60005b6002548110156118cf576000600460008381526020019081526020016000206040518061018001604052908160008201548152602001600182018054611714906129b3565b80601f0160208091040260200160405190810160405280929190818152602001828054611740906129b3565b801561178d5780601f106117625761010080835404028352916020019161178d565b820191906000526020600020905b81548152906001019060200180831161177057829003601f168201915b5050505050815260200160028201548152602001600382015481526020016004820160009054906101000a900473ffffffffffffffffffffffffffffffffffffffff1673ffffffffffffffffffffffffffffffffffffffff1673ffffffffffffffffffffffffffffffffffffffff1681526020016005820160009054906101000a900473ffffffffffffffffffffffffffffffffffffffff1673ffffffffffffffffffffffffffffffffffffffff1673ffffffffffffffffffffffffffffffffffffffff16815260200160068201548152602001600782015481526020016008820154815260200160098201548152602001600a8201548152602001600b820160009054906101000a900460ff16151515158152505090508060e001514211156118bb576118ba826109dc565b5b5080806118c790612a16565b9150506116cf565b50565b600060046000848152602001908152602001600020604051806101800160405290816000820154815260200160018201805461190d906129b3565b80601f0160208091040260200160405190810160405280929190818152602001828054611939906129b3565b80156119865780601f1061195b57610100808354040283529160200191611986565b820191906000526020600020905b81548152906001019060200180831161196957829003601f168201915b5050505050815260200160028201548152602001600382015481526020016004820160009054906101000a900473ffffffffffffffffffffffffffffffffffffffff1673ffffffffffffffffffffffffffffffffffffffff1673ffffffffffffffffffffffffffffffffffffffff1681526020016005820160009054906101000a900473ffffffffffffffffffffffffffffffffffffffff1673ffffffffffffffffffffffffffffffffffffffff1673ffffffffffffffffffffffffffffffffffffffff16815260200160068201548152602001600782015481526020016008820154815260200160098201548152602001600a8201548152602001600b820160009054906101000a900460ff16151515158152505090506001821480611aad5750600282145b80611ab85750600382145b80611ac35750600482145b611b02576040517f08c379a0000000000000000000000000000000000000000000000000000000008152600401611af99061243f565b60405180910390fd5b81816101400181815250508060046000858152602001908152602001600020600082015181600001556020820151816001019080519060200190611b47929190611cb4565b50604082015181600201556060820151816003015560808201518160040160006101000a81548173ffffffffffffffffffffffffffffffffffffffff021916908373ffffffffffffffffffffffffffffffffffffffff16021790555060a08201518160050160006101000a81548173ffffffffffffffffffffffffffffffffffffffff021916908373ffffffffffffffffffffffffffffffffffffffff16021790555060c0820151816006015560e082015181600701556101008201518160080155610120820151816009015561014082015181600a015561016082015181600b0160006101000a81548160ff0219169083151502179055509050507f41d7871512f1ea70eeb217a259d1ca01e83ae67c6c0e263f9061a8a750f7eda4833384604051611c769392919061263a565b60405180910390a1505050565b600081831115611c9257600080fd5b620151808383611ca291906128bf565b611cac919061288e565b905092915050565b828054611cc0906129b3565b90600052602060002090601f016020900481019282611ce25760008555611d29565b82601f10611cfb57805160ff1916838001178555611d29565b82800160010185558215611d29579182015b82811115611d28578251825591602001919060010190611d0d565b5b509050611d369190611d3a565b5090565b5b80821115611d53576000816000905550600101611d3b565b5090565b6000611d6a611d6584612841565b61281c565b905082815260208101848484011115611d8257600080fd5b611d8d848285612971565b509392505050565b600081359050611da481613213565b92915050565b600081359050611db98161322a565b92915050565b600081519050611dce8161322a565b92915050565b600082601f830112611de557600080fd5b8135611df5848260208601611d57565b91505092915050565b600081359050611e0d81613241565b92915050565b600081519050611e2281613241565b92915050565b60008060408385031215611e3b57600080fd5b6000611e4985828601611d95565b9250506020611e5a85828601611dfe565b9150509250929050565b600060208284031215611e7657600080fd5b6000611e8484828501611dbf565b91505092915050565b600080600080600080600080610100898b031215611eaa57600080fd5b600089013567ffffffffffffffff811115611ec457600080fd5b611ed08b828c01611dd4565b9850506020611ee18b828c01611dfe565b9750506040611ef28b828c01611d95565b9650506060611f038b828c01611dfe565b9550506080611f148b828c01611dfe565b94505060a0611f258b828c01611dfe565b93505060c0611f368b828c01611dfe565b92505060e0611f478b828c01611daa565b9150509295985092959890939650565b600060208284031215611f6957600080fd5b6000611f7784828501611dfe565b91505092915050565b600060208284031215611f9257600080fd5b6000611fa084828501611e13565b91505092915050565b60008060408385031215611fbc57600080fd5b6000611fca85828601611dfe565b9250506020611fdb85828601611d95565b9150509250929050565b60008060408385031215611ff857600080fd5b600061200685828601611dfe565b925050602061201785828601611dfe565b9150509250929050565b61202a816128f3565b82525050565b61203981612905565b82525050565b6120488161293b565b82525050565b6120578161295f565b82525050565b600061206882612872565b612072818561287d565b9350612082818560208601612980565b61208b81612b1b565b840191505092915050565b60006120a3604a8361287d565b91506120ae82612b2c565b606082019050919050565b60006120c6604a8361287d565b91506120d182612ba1565b606082019050919050565b60006120e960448361287d565b91506120f482612c16565b606082019050919050565b600061210c602a8361287d565b915061211782612c8b565b604082019050919050565b600061212f60268361287d565b915061213a82612cda565b604082019050919050565b600061215260328361287d565b915061215d82612d29565b604082019050919050565b6000612175604a8361287d565b915061218082612d78565b606082019050919050565b6000612198603b8361287d565b91506121a382612ded565b604082019050919050565b60006121bb603b8361287d565b91506121c682612e3c565b604082019050919050565b60006121de602e8361287d565b91506121e982612e8b565b604082019050919050565b6000612201602e8361287d565b915061220c82612eda565b604082019050919050565b6000612224601e8361287d565b915061222f82612f29565b602082019050919050565b6000612247602d8361287d565b915061225282612f52565b604082019050919050565b600061226a601d8361287d565b915061227582612fa1565b602082019050919050565b600061228d60508361287d565b915061229882612fca565b606082019050919050565b60006122b060688361287d565b91506122bb8261303f565b608082019050919050565b60006122d360328361287d565b91506122de826130da565b604082019050919050565b60006122f6604c8361287d565b915061230182613129565b606082019050919050565b6000612319604a8361287d565b91506123248261319e565b606082019050919050565b61233881612931565b82525050565b60006020820190506123536000830184612021565b92915050565b600060408201905061236e6000830185612021565b61237b602083018461232f565b9392505050565b6000602082019050612397600083018461203f565b92915050565b600060208201905081810360008301526123b7818461205d565b905092915050565b600060208201905081810360008301526123d881612096565b9050919050565b600060208201905081810360008301526123f8816120b9565b9050919050565b60006020820190508181036000830152612418816120dc565b9050919050565b60006020820190508181036000830152612438816120ff565b9050919050565b6000602082019050818103600083015261245881612122565b9050919050565b6000602082019050818103600083015261247881612145565b9050919050565b6000602082019050818103600083015261249881612168565b9050919050565b600060208201905081810360008301526124b88161218b565b9050919050565b600060208201905081810360008301526124d8816121ae565b9050919050565b600060208201905081810360008301526124f8816121d1565b9050919050565b60006020820190508181036000830152612518816121f4565b9050919050565b6000602082019050818103600083015261253881612217565b9050919050565b600060208201905081810360008301526125588161223a565b9050919050565b600060208201905081810360008301526125788161225d565b9050919050565b6000602082019050818103600083015261259881612280565b9050919050565b600060208201905081810360008301526125b8816122a3565b9050919050565b600060208201905081810360008301526125d8816122c6565b9050919050565b600060208201905081810360008301526125f8816122e9565b9050919050565b600060208201905081810360008301526126188161230c565b9050919050565b6000602082019050612634600083018461232f565b92915050565b600060608201905061264f600083018661232f565b61265c6020830185612021565b612669604083018461232f565b949350505050565b600061018082019050612687600083018f61232f565b8181036020830152612699818e61205d565b90506126a8604083018d61232f565b6126b5606083018c61204e565b6126c2608083018b612021565b6126cf60a083018a612021565b6126dc60c083018961232f565b6126e960e083018861232f565b6126f761010083018761232f565b61270561012083018661232f565b61271361014083018561232f565b612721610160830184612030565b9d9c50505050505050505050505050565b600061018082019050612748600083018f61232f565b818103602083015261275a818e61205d565b9050612769604083018d61232f565b612776606083018c61232f565b612783608083018b612021565b61279060a083018a612021565b61279d60c083018961232f565b6127aa60e083018861232f565b6127b861010083018761232f565b6127c661012083018661232f565b6127d461014083018561232f565b6127e2610160830184612030565b9d9c50505050505050505050505050565b6000604082019050612808600083018561232f565b612815602083018461232f565b9392505050565b6000612826612837565b905061283282826129e5565b919050565b6000604051905090565b600067ffffffffffffffff82111561285c5761285b612aec565b5b61286582612b1b565b9050602081019050919050565b600081519050919050565b600082825260208201905092915050565b600061289982612931565b91506128a483612931565b9250826128b4576128b3612a8e565b5b828204905092915050565b60006128ca82612931565b91506128d583612931565b9250828210156128e8576128e7612a5f565b5b828203905092915050565b60006128fe82612911565b9050919050565b60008115159050919050565b600073ffffffffffffffffffffffffffffffffffffffff82169050919050565b6000819050919050565b60006129468261294d565b9050919050565b600061295882612911565b9050919050565b600061296a82612931565b9050919050565b82818337600083830152505050565b60005b8381101561299e578082015181840152602081019050612983565b838111156129ad576000848401525b50505050565b600060028204905060018216806129cb57607f821691505b602082108114156129df576129de612abd565b5b50919050565b6129ee82612b1b565b810181811067ffffffffffffffff82111715612a0d57612a0c612aec565b5b80604052505050565b6000612a2182612931565b91507fffffffffffffffffffffffffffffffffffffffffffffffffffffffffffffffff821415612a5457612a53612a5f565b5b600182019050919050565b7f4e487b7100000000000000000000000000000000000000000000000000000000600052601160045260246000fd5b7f4e487b7100000000000000000000000000000000000000000000000000000000600052601260045260246000fd5b7f4e487b7100000000000000000000000000000000000000000000000000000000600052602260045260246000fd5b7f4e487b7100000000000000000000000000000000000000000000000000000000600052604160045260246000fd5b6000601f19601f8301169050919050565b7f53696e63652074686520636f6e7472616374207761732063726561746564206260008201527f79207468652062757965722c206f6e6c79207468652073656c6c65722063616e60208201527f2061636365707420697400000000000000000000000000000000000000000000604082015250565b7f53696e63652074686520636f6e7472616374207761732063726561746564206260008201527f79207468652073656c6c65722c206f6e6c79207468652062757965722063616e60208201527f2072656a65637420697400000000000000000000000000000000000000000000604082015250565b7f54686520636f6e7472616374206d75737420616c6c6f77207472616e7361637460008201527f696f6e73206265666f72652068616c66207468652074696d652068617320706160208201527f7373656400000000000000000000000000000000000000000000000000000000604082015250565b7f416d6f756e7420746f20506179206d757374206265206d6f7265207468616e2060008201527f30204350546f6b656e7300000000000000000000000000000000000000000000602082015250565b7f546865206e657720737461747573206d7573742062652076616c69642028312c60008201527f20322c2033290000000000000000000000000000000000000000000000000000602082015250565b7f546865205061796d656e7420436f6e74726163742063616e6e6f742066696e6960008201527f7368206265666f7265207374617274696e670000000000000000000000000000602082015250565b7f53696e63652074686520636f6e7472616374207761732063726561746564206260008201527f79207468652073656c6c65722c206f6e6c79207468652062757965722063616e60208201527f2061636365707420697400000000000000000000000000000000000000000000604082015250565b7f546865207061796d656e74207370656564206f662074686520636f6e7472616360008201527f74206d757374206265206265747765656e203020616e64203130300000000000602082015250565b7f416d6f756e74205265717565737465642063616e6e6f74206265206c6172676560008201527f72207468616e203125206f662063757272656e7420737570706c790000000000602082015250565b7f546865205061796d656e7420436f6e74726163742043616e6e6f74206265206160008201527f6c72656164792065787069726564000000000000000000000000000000000000602082015250565b7f546865206e616d65206f6620746865205061796d656e7420436f6e747261637460008201527f206d7573742062652076616c6964000000000000000000000000000000000000602082015250565b7f5468652062757965722063616e6e6f74206265207468652073656c6c65720000600082015250565b7f416d6f756e7420526571756573746564204d757374206265206d6f726520746860008201527f616e2030204350546f6b656e7300000000000000000000000000000000000000602082015250565b7f54686520636f6e7472616374204944206d7573742062652076616c6964000000600082015250565b7f5468652063616c6c6572206d75737420626520436f6c5061792c20746865792060008201527f636f6e74726f6c207768656e206e6577206163636f756e74732061726520697360208201527f737565642074686520746f6b656e732e00000000000000000000000000000000604082015250565b7f5468652063616c6c6572206d75737420626520436f6c5061792c20746865792060008201527f636f6e74726f6c207468652073637269707420666f7220646574656374696e6760208201527f206578706972656420636f6e74726163747320616e64206c697175696461746960408201527f6e67207468656d2e000000000000000000000000000000000000000000000000606082015250565b7f546869732066756e6374696f6e206f6e6c7920697373756573204350546f6b6560008201527f6e7320746f206e6577206163636f756e74730000000000000000000000000000602082015250565b7f54686520636f6e7472616374206578706972792064617465206d75737420626560008201527f20696e20746865207061737420696e206f7264657220746f206578706972652060208201527f74686520636f6e74726163740000000000000000000000000000000000000000604082015250565b7f53696e63652074686520636f6e7472616374207761732063726561746564206260008201527f79207468652062757965722c206f6e6c79207468652073656c6c65722063616e60208201527f2072656a65637420697400000000000000000000000000000000000000000000604082015250565b61321c816128f3565b811461322757600080fd5b50565b61323381612905565b811461323e57600080fd5b50565b61324a81612931565b811461325557600080fd5b5056fea264697066735822122000c57b5b6e49913b842d9d995c00fe2a039fb21b6166c7efdace4e808ac5ad2964736f6c63430008040033",
  "immutableReferences": {},
  "source": "// SPDX-License-Identifier: MIT\npragma solidity 0.8.4;\n\nimport \"./CPToken.sol\" as CPToken;\nimport \"./DateTimeLibrary.sol\" as DateTimeLibrary;\n\ncontract ColPay {\n    string public name;\n    address public owner;\n    uint public contractCount;\n    CPToken.CPToken public cpToken;\n\n    mapping(uint => PaymentContract) public paymentContracts;\n    mapping(uint => Transaction[]) public transactionLists;\n    mapping(address => uint[]) public paymentContractsHeldPerAddress;\n\n    uint constant NOT_REVIEWED_STATUS = 1;\n    uint constant REJECTED_STATUS = 2;\n    uint constant ACCEPTED_STATUS = 3;\n    uint constant EXPIRED_STATUS = 4;\n\n    struct Transaction {\n        uint256 date;\n        uint value;\n    }\n\n    struct PaymentContract {\n        uint id;\n        string name;\n        uint totalAmount;\n        uint amountPaid;\n        address buyer;\n        address seller;\n        uint256 startDate;\n        uint256 expiryDate;\n        uint daysToOpen;\n        uint speed;\n        uint contractStatus;\n        bool createdBySeller;\n    }\n\n    event PaymentContractCreated (\n        uint id,\n        string name,\n        uint totalAmount,\n        uint amountPaid,\n        address buyer,\n        address seller,\n        uint256 startDate,\n        uint256 expiryDate,\n        uint daysToOpen,\n        uint speed,\n        uint contractStatus,\n        bool createdBySeller\n    );\n\n    event PaymentContractStatusUpdate (\n        uint id,\n        address statusUpdatedBy,\n        uint contractStatus\n    );\n\n    constructor(CPToken.CPToken _cpToken) {\n        name = \"Payment Fragmentation Service\";\n        cpToken = _cpToken;\n        owner = msg.sender;\n        contractCount = 0;\n    }\n\n    // Request Tokens - for new accounts\n    function issueTokens(uint256 _value, address _receipient) public {\n        // Check for valid requests\n        require(msg.sender == owner, \"The caller must be ColPay, they control when new accounts are issued the tokens.\");\n        require(_value > 0, \"Amount Requested Must be more than 0 CPTokens\");\n        require(_value < cpToken.balanceOf(address(this))/100, \"Amount Requested cannot be larger than 1% of current supply\");\n        require(cpToken.balanceOf(msg.sender) == 0 && paymentContractsHeldPerAddress[msg.sender].length == 0, \"This function only issues CPTokens to new accounts\");\n\n        cpToken.transfer(_receipient, _value);\n    }\n\n    // Create Payment Contract\n    function createPaymentContract (string memory _name, uint _totalAmount, address _recipient, uint256 _startDate, uint256 _expiryDate, uint _daysToOpen, uint _speed, bool _createdBySeller) public {\n        // Check for valid requests\n        require(_startDate > _expiryDate, \"The Payment Contract cannot finish before starting\");\n        require(_totalAmount > 0, \"Amount to Pay must be more than 0 CPTokens\");\n        require(bytes(_name).length > 0, \"The name of the Payment Contract must be valid\");\n        require(DateTimeLibrary.DateTimeLibrary.diffDays(_startDate, _expiryDate) / 2 < _daysToOpen, \"The contract must allow transactions before half the time has passed\");\n        require(_speed > 0 && _speed < 100, \"The payment speed of the contract must be between 0 and 100\");\n        require(block.timestamp < _expiryDate, \"The Payment Contract Cannot be already expired\");\n        require(_recipient != msg.sender, \"The buyer cannot be the seller\");\n\n        // Create the Contract\n        address buyer;\n        address seller;\n        if (_createdBySeller){\n            seller = msg.sender;\n            buyer = _recipient;\n        } else {\n            seller = _recipient;\n            buyer = msg.sender;\n        }\n        paymentContracts[contractCount] = PaymentContract(contractCount, _name, _totalAmount, 0, buyer, seller, _startDate, _expiryDate, _daysToOpen, _speed, NOT_REVIEWED_STATUS, _createdBySeller);\n\n        // Trigger Event\n        emit PaymentContractCreated(contractCount, _name, _totalAmount, 0, buyer, seller, _startDate, _expiryDate, _daysToOpen, _speed, NOT_REVIEWED_STATUS, _createdBySeller);\n\n        // Increment contractCount\n        contractCount ++;\n    }\n\n    // Accept a Payment Contract\n    function acceptPaymentContract(uint _contractID) public {\n        // Check for valid requests\n        require(_contractID > 0 && _contractID <= contractCount, \"The contract ID must be valid\");\n\n        PaymentContract memory _contract = paymentContracts[_contractID];\n        if(_contract.createdBySeller){\n            require (msg.sender == _contract.buyer, \"Since the contract was created by the seller, only the buyer can accept it\");\n        } else {\n            require (msg.sender == _contract.seller, \"Since the contract was created by the buyer, only the seller can accept it\");\n        }\n\n        updatePaymentContractStatus(_contractID, ACCEPTED_STATUS);\n    }\n\n    // Reject a Payment Contract\n    function rejectPaymentContract(uint _contractID) public {\n        // Check for valid requests\n        require(_contractID > 0 && _contractID <= contractCount, \"The contract ID must be valid\");\n\n        PaymentContract memory _contract = paymentContracts[_contractID];\n        if(_contract.createdBySeller){\n            require (msg.sender == _contract.buyer, \"Since the contract was created by the seller, only the buyer can reject it\");\n        } else {\n            require (msg.sender == _contract.seller, \"Since the contract was created by the buyer, only the seller can reject it\");\n        }\n\n        updatePaymentContractStatus(_contractID, REJECTED_STATUS);\n    }\n\n    // Finalize a Payment Contract\n    function expirePaymentContract(uint _contractID) public {\n        // Check for valid requests\n        require(_contractID > 0 && _contractID <= contractCount, \"The contract ID must be valid\");\n\n        PaymentContract memory _contract = paymentContracts[_contractID];\n        require(block.timestamp > _contract.expiryDate, \"The contract expiry date must be in the past in order to expire the contract\");\n\n        uint remainingValue = _contract.totalAmount - _contract.amountPaid;\n\n        makeTransaction(_contractID, remainingValue);\n\n        updatePaymentContractStatus(_contractID, EXPIRED_STATUS);\n    }\n\n    function updatePaymentContractStatus(uint _contractID, uint _newStatusID) private {\n        // Check for valid requests\n        PaymentContract memory _contract = paymentContracts[_contractID];\n\n        require(_newStatusID == NOT_REVIEWED_STATUS || _newStatusID == REJECTED_STATUS || _newStatusID == ACCEPTED_STATUS || _newStatusID == EXPIRED_STATUS, \"The new status must be valid (1, 2, 3)\");\n\n        // Change contract agreement status\n        _contract.contractStatus = _newStatusID;\n        paymentContracts[_contractID] = _contract;\n\n        // Trigger Event\n        emit PaymentContractStatusUpdate(_contractID, msg.sender, _newStatusID);\n\n    }\n\n    // Script to be daily to check for contracts that have expired\n    function checkForExpiredContracts() public {\n        // Only owner can call this function\n        require(msg.sender == owner, \"The caller must be ColPay, they control the script for detecting expired contracts and liquidating them.\");\n\n        // Check for expired contracts\n        for (uint i=0; i<contractCount; i++) {\n            PaymentContract memory _contract = paymentContracts[i];\n            if(block.timestamp > _contract.expiryDate) {\n                expirePaymentContract(i);\n            }\n        }\n    }\n\n    // Request a Payment\n\n    // Make a Transaction\n    function makeTransaction (uint _contractID, uint _value) public {\n\n    }\n\n}",
  "sourcePath": "/Users/coverwallet/Documents/Personal/Blockchain/ColPay/src/contracts/ColPay.sol",
  "compiler": {
    "name": "solc",
    "version": "0.8.4+commit.c7e474f2.Emscripten.clang"
  },
  "schemaVersion": "3.4.1",
  "updatedAt": "2021-05-15T20:35:55.211Z",
  "networkType": "ethereum",
  "devdoc": {
    "kind": "dev",
    "methods": {},
    "version": 1
  },
  "userdoc": {
    "kind": "user",
    "methods": {},
    "version": 1
  }
}